{
  "_format": "hh-sol-artifact-1",
  "contractName": "Int1",
  "sourceName": "contracts/Int1.sol",
  "abi": [
    {
      "inputs": [],
      "name": "AccessControlBadConfirmation",
      "type": "error"
    },
    {
      "inputs": [
        {
          "internalType": "address",
          "name": "account",
          "type": "address"
        },
        {
          "internalType": "bytes32",
          "name": "neededRole",
          "type": "bytes32"
        }
      ],
      "name": "AccessControlUnauthorizedAccount",
      "type": "error"
    },
    {
      "inputs": [
        {
          "internalType": "address",
          "name": "target",
          "type": "address"
        }
      ],
      "name": "AddressEmptyCode",
      "type": "error"
    },
    {
      "inputs": [
        {
          "internalType": "address",
          "name": "implementation",
          "type": "address"
        }
      ],
      "name": "ERC1967InvalidImplementation",
      "type": "error"
    },
    {
      "inputs": [],
      "name": "ERC1967NonPayable",
      "type": "error"
    },
    {
      "inputs": [],
      "name": "FailedInnerCall",
      "type": "error"
    },
    {
      "inputs": [
        {
          "internalType": "bytes32",
          "name": "depositDataHash",
          "type": "bytes32"
        },
        {
          "internalType": "bytes32",
          "name": "calculatedHash",
          "type": "bytes32"
        }
      ],
      "name": "InvalidDepositHash",
      "type": "error"
    },
    {
      "inputs": [],
      "name": "InvalidInitialization",
      "type": "error"
    },
    {
      "inputs": [],
      "name": "MerkleTreeFull",
      "type": "error"
    },
    {
      "inputs": [],
      "name": "NotInitializing",
      "type": "error"
    },
    {
      "inputs": [],
      "name": "OnlySenderCanCancelDeposit",
      "type": "error"
    },
    {
      "inputs": [
        {
          "internalType": "uint256",
          "name": "upToDepositId",
          "type": "uint256"
        },
        {
          "internalType": "uint256",
          "name": "lastDepositId",
          "type": "uint256"
        }
      ],
      "name": "TriedAnalyzeNotExists",
      "type": "error"
    },
    {
      "inputs": [],
      "name": "TriedToDepositZero",
      "type": "error"
    },
    {
      "inputs": [
        {
          "internalType": "uint256",
          "name": "rejectIndex",
          "type": "uint256"
        },
        {
          "internalType": "uint256",
          "name": "front",
          "type": "uint256"
        },
        {
          "internalType": "uint256",
          "name": "upToDepositId",
          "type": "uint256"
        }
      ],
      "name": "TriedToRejectOutOfRange",
      "type": "error"
    },
    {
      "inputs": [],
      "name": "UUPSUnauthorizedCallContext",
      "type": "error"
    },
    {
      "inputs": [
        {
          "internalType": "bytes32",
          "name": "slot",
          "type": "bytes32"
        }
      ],
      "name": "UUPSUnsupportedProxiableUUID",
      "type": "error"
    },
    {
      "anonymous": false,
      "inputs": [
        {
          "indexed": true,
          "internalType": "uint256",
          "name": "depositId",
          "type": "uint256"
        }
      ],
      "name": "DepositCanceled",
      "type": "event"
    },
    {
      "anonymous": false,
      "inputs": [
        {
          "indexed": true,
          "internalType": "uint32",
          "name": "depositIndex",
          "type": "uint32"
        },
        {
          "indexed": true,
          "internalType": "bytes32",
          "name": "depositHash",
          "type": "bytes32"
        }
      ],
      "name": "DepositLeafInserted",
      "type": "event"
    },
    {
      "anonymous": false,
      "inputs": [
        {
          "indexed": true,
          "internalType": "uint256",
          "name": "depositId",
          "type": "uint256"
        },
        {
          "indexed": true,
          "internalType": "address",
          "name": "sender",
          "type": "address"
        },
        {
          "indexed": true,
          "internalType": "bytes32",
          "name": "recipientSaltHash",
          "type": "bytes32"
        },
        {
          "indexed": false,
          "internalType": "uint32",
          "name": "tokenIndex",
          "type": "uint32"
        },
        {
          "indexed": false,
          "internalType": "uint256",
          "name": "amount",
          "type": "uint256"
        },
        {
          "indexed": false,
          "internalType": "uint256",
          "name": "depositedAt",
          "type": "uint256"
        }
      ],
      "name": "Deposited",
      "type": "event"
    },
    {
      "anonymous": false,
      "inputs": [
        {
          "indexed": true,
          "internalType": "uint256",
          "name": "upToDepositId",
          "type": "uint256"
        },
        {
          "indexed": false,
          "internalType": "uint256[]",
          "name": "rejectedIndices",
          "type": "uint256[]"
        },
        {
          "indexed": false,
          "internalType": "bytes32[]",
          "name": "depositHashes",
          "type": "bytes32[]"
        }
      ],
      "name": "DepositsAnalyzedAndProcessed",
      "type": "event"
    },
    {
      "anonymous": false,
      "inputs": [
        {
          "indexed": false,
          "internalType": "uint64",
          "name": "version",
          "type": "uint64"
        }
      ],
      "name": "Initialized",
      "type": "event"
    },
    {
      "anonymous": false,
      "inputs": [
        {
          "indexed": true,
          "internalType": "bytes32",
          "name": "role",
          "type": "bytes32"
        },
        {
          "indexed": true,
          "internalType": "bytes32",
          "name": "previousAdminRole",
          "type": "bytes32"
        },
        {
          "indexed": true,
          "internalType": "bytes32",
          "name": "newAdminRole",
          "type": "bytes32"
        }
      ],
      "name": "RoleAdminChanged",
      "type": "event"
    },
    {
      "anonymous": false,
      "inputs": [
        {
          "indexed": true,
          "internalType": "bytes32",
          "name": "role",
          "type": "bytes32"
        },
        {
          "indexed": true,
          "internalType": "address",
          "name": "account",
          "type": "address"
        },
        {
          "indexed": true,
          "internalType": "address",
          "name": "sender",
          "type": "address"
        }
      ],
      "name": "RoleGranted",
      "type": "event"
    },
    {
      "anonymous": false,
      "inputs": [
        {
          "indexed": true,
          "internalType": "bytes32",
          "name": "role",
          "type": "bytes32"
        },
        {
          "indexed": true,
          "internalType": "address",
          "name": "account",
          "type": "address"
        },
        {
          "indexed": true,
          "internalType": "address",
          "name": "sender",
          "type": "address"
        }
      ],
      "name": "RoleRevoked",
      "type": "event"
    },
    {
      "anonymous": false,
      "inputs": [
        {
          "indexed": true,
          "internalType": "address",
          "name": "implementation",
          "type": "address"
        }
      ],
      "name": "Upgraded",
      "type": "event"
    },
    {
      "anonymous": false,
      "inputs": [
        {
          "indexed": true,
          "internalType": "address",
          "name": "recipient",
          "type": "address"
        },
        {
          "indexed": true,
          "internalType": "bytes32",
          "name": "nullifier",
          "type": "bytes32"
        },
        {
          "indexed": false,
          "internalType": "uint32",
          "name": "tokenIndex",
          "type": "uint32"
        },
        {
          "indexed": false,
          "internalType": "uint256",
          "name": "amount",
          "type": "uint256"
        }
      ],
      "name": "Withdrawn",
      "type": "event"
    },
    {
      "inputs": [],
      "name": "ANALYZER",
      "outputs": [
        {
          "internalType": "bytes32",
          "name": "",
          "type": "bytes32"
        }
      ],
      "stateMutability": "view",
      "type": "function"
    },
    {
      "inputs": [],
      "name": "DEFAULT_ADMIN_ROLE",
      "outputs": [
        {
          "internalType": "bytes32",
          "name": "",
          "type": "bytes32"
        }
      ],
      "stateMutability": "view",
      "type": "function"
    },
    {
      "inputs": [],
      "name": "UPGRADE_INTERFACE_VERSION",
      "outputs": [
        {
          "internalType": "string",
          "name": "",
          "type": "string"
        }
      ],
      "stateMutability": "view",
      "type": "function"
    },
    {
      "inputs": [
        {
          "internalType": "uint256",
          "name": "upToDepositId",
          "type": "uint256"
        },
        {
          "internalType": "uint256[]",
          "name": "rejectDepositIds",
          "type": "uint256[]"
        }
      ],
      "name": "analyzeAndProcessDeposits",
      "outputs": [],
      "stateMutability": "nonpayable",
      "type": "function"
    },
    {
      "inputs": [
        {
          "internalType": "uint256",
          "name": "depositId",
          "type": "uint256"
        },
        {
          "components": [
            {
              "internalType": "bytes32",
              "name": "recipientSaltHash",
              "type": "bytes32"
            },
            {
              "internalType": "uint32",
              "name": "tokenIndex",
              "type": "uint32"
            },
            {
              "internalType": "uint256",
              "name": "amount",
              "type": "uint256"
            }
          ],
          "internalType": "struct DepositLib.Deposit",
          "name": "deposit",
          "type": "tuple"
        }
      ],
      "name": "cancelDeposit",
      "outputs": [],
      "stateMutability": "nonpayable",
      "type": "function"
    },
    {
      "inputs": [],
      "name": "depositIndex",
      "outputs": [
        {
          "internalType": "uint32",
          "name": "",
          "type": "uint32"
        }
      ],
      "stateMutability": "view",
      "type": "function"
    },
    {
      "inputs": [
        {
          "internalType": "bytes32",
          "name": "recipientSaltHash",
          "type": "bytes32"
        }
      ],
      "name": "depositNativeToken",
      "outputs": [],
      "stateMutability": "payable",
      "type": "function"
    },
    {
      "inputs": [
        {
          "internalType": "bytes32",
          "name": "",
          "type": "bytes32"
        }
      ],
      "name": "depositRoots",
      "outputs": [
        {
          "internalType": "uint256",
          "name": "",
          "type": "uint256"
        }
      ],
      "stateMutability": "view",
      "type": "function"
    },
    {
      "inputs": [
        {
          "internalType": "uint256",
          "name": "depositId",
          "type": "uint256"
        }
      ],
      "name": "getDepositData",
      "outputs": [
        {
          "components": [
            {
              "internalType": "bytes32",
              "name": "depositHash",
              "type": "bytes32"
            },
            {
              "internalType": "address",
              "name": "sender",
              "type": "address"
            },
            {
              "internalType": "bool",
              "name": "isRejected",
              "type": "bool"
            }
          ],
          "internalType": "struct DepositQueueLib.DepositData",
          "name": "",
          "type": "tuple"
        }
      ],
      "stateMutability": "view",
      "type": "function"
    },
    {
      "inputs": [
        {
          "internalType": "uint256[]",
          "name": "depositIds",
          "type": "uint256[]"
        }
      ],
      "name": "getDepositDataBatch",
      "outputs": [
        {
          "components": [
            {
              "internalType": "bytes32",
              "name": "depositHash",
              "type": "bytes32"
            },
            {
              "internalType": "address",
              "name": "sender",
              "type": "address"
            },
            {
              "internalType": "bool",
              "name": "isRejected",
              "type": "bool"
            }
          ],
          "internalType": "struct DepositQueueLib.DepositData[]",
          "name": "",
          "type": "tuple[]"
        }
      ],
      "stateMutability": "view",
      "type": "function"
    },
    {
      "inputs": [],
      "name": "getDepositRoot",
      "outputs": [
        {
          "internalType": "bytes32",
          "name": "",
          "type": "bytes32"
        }
      ],
      "stateMutability": "view",
      "type": "function"
    },
    {
      "inputs": [],
      "name": "getLastDepositId",
      "outputs": [
        {
          "internalType": "uint256",
          "name": "",
          "type": "uint256"
        }
      ],
      "stateMutability": "view",
      "type": "function"
    },
    {
      "inputs": [],
      "name": "getLastProcessedDepositId",
      "outputs": [
        {
          "internalType": "uint256",
          "name": "",
          "type": "uint256"
        }
      ],
      "stateMutability": "view",
      "type": "function"
    },
    {
      "inputs": [
        {
          "internalType": "bytes32",
          "name": "role",
          "type": "bytes32"
        }
      ],
      "name": "getRoleAdmin",
      "outputs": [
        {
          "internalType": "bytes32",
          "name": "",
          "type": "bytes32"
        }
      ],
      "stateMutability": "view",
      "type": "function"
    },
    {
      "inputs": [
        {
          "internalType": "bytes32",
          "name": "role",
          "type": "bytes32"
        },
        {
          "internalType": "address",
          "name": "account",
          "type": "address"
        }
      ],
      "name": "grantRole",
      "outputs": [],
      "stateMutability": "nonpayable",
      "type": "function"
    },
    {
      "inputs": [
        {
          "internalType": "bytes32",
          "name": "role",
          "type": "bytes32"
        },
        {
          "internalType": "address",
          "name": "account",
          "type": "address"
        }
      ],
      "name": "hasRole",
      "outputs": [
        {
          "internalType": "bool",
          "name": "",
          "type": "bool"
        }
      ],
      "stateMutability": "view",
      "type": "function"
    },
    {
      "inputs": [
        {
          "internalType": "address",
          "name": "withdrawalVerifier_",
          "type": "address"
        },
        {
          "internalType": "address",
          "name": "analyzer_",
          "type": "address"
        }
      ],
      "name": "initialize",
      "outputs": [],
      "stateMutability": "nonpayable",
      "type": "function"
    },
    {
      "inputs": [
        {
          "internalType": "bytes32",
          "name": "",
          "type": "bytes32"
        }
      ],
      "name": "nullifiers",
      "outputs": [
        {
          "internalType": "uint256",
          "name": "",
          "type": "uint256"
        }
      ],
      "stateMutability": "view",
      "type": "function"
    },
    {
      "inputs": [],
      "name": "proxiableUUID",
      "outputs": [
        {
          "internalType": "bytes32",
          "name": "",
          "type": "bytes32"
        }
      ],
      "stateMutability": "view",
      "type": "function"
    },
    {
      "inputs": [
        {
          "internalType": "bytes32",
          "name": "role",
          "type": "bytes32"
        },
        {
          "internalType": "address",
          "name": "callerConfirmation",
          "type": "address"
        }
      ],
      "name": "renounceRole",
      "outputs": [],
      "stateMutability": "nonpayable",
      "type": "function"
    },
    {
      "inputs": [
        {
          "internalType": "bytes32",
          "name": "role",
          "type": "bytes32"
        },
        {
          "internalType": "address",
          "name": "account",
          "type": "address"
        }
      ],
      "name": "revokeRole",
      "outputs": [],
      "stateMutability": "nonpayable",
      "type": "function"
    },
    {
      "inputs": [
        {
          "internalType": "bytes4",
          "name": "interfaceId",
          "type": "bytes4"
        }
      ],
      "name": "supportsInterface",
      "outputs": [
        {
          "internalType": "bool",
          "name": "",
          "type": "bool"
        }
      ],
      "stateMutability": "view",
      "type": "function"
    },
    {
      "inputs": [
        {
          "internalType": "address",
          "name": "newImplementation",
          "type": "address"
        },
        {
          "internalType": "bytes",
          "name": "data",
          "type": "bytes"
        }
      ],
      "name": "upgradeToAndCall",
      "outputs": [],
      "stateMutability": "payable",
      "type": "function"
    },
    {
      "inputs": [
        {
          "components": [
            {
              "internalType": "bytes32",
              "name": "depositRoot",
              "type": "bytes32"
            },
            {
              "internalType": "bytes32",
              "name": "nullifier",
              "type": "bytes32"
            },
            {
              "internalType": "address",
              "name": "recipient",
              "type": "address"
            },
            {
              "internalType": "uint32",
              "name": "tokenIndex",
              "type": "uint32"
            },
            {
              "internalType": "uint256",
              "name": "amount",
              "type": "uint256"
            }
          ],
          "internalType": "struct IInt1.WithdrawalPublicInputs",
          "name": "pis",
          "type": "tuple"
        },
        {
          "internalType": "bytes",
          "name": "proof",
          "type": "bytes"
        }
      ],
      "name": "verifyProof",
      "outputs": [
        {
          "internalType": "bool",
          "name": "",
          "type": "bool"
        }
      ],
      "stateMutability": "view",
      "type": "function"
    },
    {
      "inputs": [
        {
          "components": [
            {
              "internalType": "bytes32",
              "name": "depositRoot",
              "type": "bytes32"
            },
            {
              "internalType": "bytes32",
              "name": "nullifier",
              "type": "bytes32"
            },
            {
              "internalType": "address",
              "name": "recipient",
              "type": "address"
            },
            {
              "internalType": "uint32",
              "name": "tokenIndex",
              "type": "uint32"
            },
            {
              "internalType": "uint256",
              "name": "amount",
              "type": "uint256"
            }
          ],
          "internalType": "struct IInt1.WithdrawalPublicInputs",
          "name": "publicInputs",
          "type": "tuple"
        },
        {
          "internalType": "bytes",
          "name": "proof",
          "type": "bytes"
        }
      ],
      "name": "withdraw",
      "outputs": [],
      "stateMutability": "payable",
      "type": "function"
    },
    {
      "inputs": [],
      "name": "withdrawalVerifier",
      "outputs": [
        {
          "internalType": "contract IPlonkVerifier",
          "name": "",
          "type": "address"
        }
      ],
      "stateMutability": "view",
      "type": "function"
    }
  ],
  "bytecode": "0x60a06040523073ffffffffffffffffffffffffffffffffffffffff1660809073ffffffffffffffffffffffffffffffffffffffff1681525034801561004357600080fd5b50608051613f3061006d60003960008181611a9c01528181611af10152611cb20152613f306000f3fe6080604052600436106101815760003560e01c80636ef5475b116100d1578063d547741f1161008a578063defe4d5b11610064578063defe4d5b1461057c578063e09dfaa2146105a5578063eff97cd2146105e2578063ffd553321461061f57610181565b8063d547741f146104fd578063dd4d4e8914610526578063dd9ea2991461055157610181565b80636ef5475b146103d95780637b8989391461040257806391d148541461042d578063a217fddf1461046a578063ad3cb1cc14610495578063c13819b6146104c057610181565b80633310ea4f1161013e5780633ae05047116101185780633ae050471461033e578063485cc955146103695780634f1ef2861461039257806352d1902d146103ae57610181565b80633310ea4f146102ce57806336568abe146102ea57806337f9fe261461031357610181565b806301ffc9a7146101865780630c0b59b9146101c3578063232c1c8a146101ee578063248a9ca31461022b5780632997e86b146102685780632f2ff15d146102a5575b600080fd5b34801561019257600080fd5b506101ad60048036038101906101a89190612947565b61063b565b6040516101ba919061298f565b60405180910390f35b3480156101cf57600080fd5b506101d86106b5565b6040516101e591906129c3565b60405180910390f35b3480156101fa57600080fd5b5061021560048036038101906102109190612b6d565b6106d9565b6040516102229190612d06565b60405180910390f35b34801561023757600080fd5b50610252600480360381019061024d9190612d54565b61083a565b60405161025f91906129c3565b60405180910390f35b34801561027457600080fd5b5061028f600480360381019061028a9190612d54565b610868565b60405161029c9190612d90565b60405180910390f35b3480156102b157600080fd5b506102cc60048036038101906102c79190612dd7565b610880565b005b6102e860048036038101906102e39190612f3f565b6108a2565b005b3480156102f657600080fd5b50610311600480360381019061030c9190612dd7565b610a8f565b005b34801561031f57600080fd5b50610328610b0a565b6040516103359190612ffe565b60405180910390f35b34801561034a57600080fd5b50610353610b2e565b60405161036091906129c3565b60405180910390f35b34801561037557600080fd5b50610390600480360381019061038b9190613019565b610ba3565b005b6103ac60048036038101906103a7919061310e565b610dbe565b005b3480156103ba57600080fd5b506103c3610ddd565b6040516103d091906129c3565b60405180910390f35b3480156103e557600080fd5b5061040060048036038101906103fb919061318e565b610e10565b005b34801561040e57600080fd5b50610417610f97565b60405161042491906131dd565b60405180910390f35b34801561043957600080fd5b50610454600480360381019061044f9190612dd7565b610fad565b604051610461919061298f565b60405180910390f35b34801561047657600080fd5b5061047f611026565b60405161048c91906129c3565b60405180910390f35b3480156104a157600080fd5b506104aa61102d565b6040516104b79190613277565b60405180910390f35b3480156104cc57600080fd5b506104e760048036038101906104e29190613299565b611066565b6040516104f49190613308565b60405180910390f35b34801561050957600080fd5b50610524600480360381019061051f9190612dd7565b611120565b005b34801561053257600080fd5b5061053b611142565b6040516105489190612d90565b60405180910390f35b34801561055d57600080fd5b5061056661115b565b6040516105739190612d90565b60405180910390f35b34801561058857600080fd5b506105a3600480360381019061059e9190613323565b611174565b005b3480156105b157600080fd5b506105cc60048036038101906105c79190612d54565b61136c565b6040516105d99190612d90565b60405180910390f35b3480156105ee57600080fd5b5061060960048036038101906106049190612f3f565b611384565b604051610616919061298f565b60405180910390f35b61063960048036038101906106349190612d54565b61147c565b005b60007f7965db0b000000000000000000000000000000000000000000000000000000007bffffffffffffffffffffffffffffffffffffffffffffffffffffffff1916827bffffffffffffffffffffffffffffffffffffffffffffffffffffffff191614806106ae57506106ad82611566565b5b9050919050565b7fe5002bd16ffc71462a6c1c19eaf55e254c97864c770378b6f68c1a085231514a81565b60606000825167ffffffffffffffff8111156106f8576106f76129f4565b5b60405190808252806020026020018201604052801561073157816020015b61071e61289f565b8152602001906001900390816107165790505b50905060005b83518110156108305760236000018482815181106107585761075761337f565b5b6020026020010151815481106107715761077061337f565b5b9060005260206000209060020201604051806060016040529081600082015481526020016001820160009054906101000a900473ffffffffffffffffffffffffffffffffffffffff1673ffffffffffffffffffffffffffffffffffffffff1673ffffffffffffffffffffffffffffffffffffffff1681526020016001820160149054906101000a900460ff1615151515815250508282815181106108185761081761337f565b5b60200260200101819052508080600101915050610737565b5080915050919050565b6000806108456115d0565b905080600001600084815260200190815260200160002060010154915050919050565b60286020528060005260406000206000915090505481565b6108898261083a565b610892816115f8565b61089c838361160c565b50505050565b6000602760008560000151815260200190815260200160002054116108fc576040517f08c379a00000000000000000000000000000000000000000000000000000000081526004016108f3906133fa565b60405180910390fd5b600060286000856020015181526020019081526020016000205414610956576040517f08c379a000000000000000000000000000000000000000000000000000000000815260040161094d90613466565b60405180910390fd5b610961838383611384565b6109a0576040517f08c379a0000000000000000000000000000000000000000000000000000000008152600401610997906134d2565b60405180910390fd5b426028600085602001518152602001908152602001600020819055506000836060015163ffffffff1603610a2957826040015173ffffffffffffffffffffffffffffffffffffffff166108fc3485608001516109fc9190613521565b9081150290604051600060405180830381858888f19350505050158015610a27573d6000803e3d6000fd5b505b8260200151836040015173ffffffffffffffffffffffffffffffffffffffff167f38cde577523eac700ac823c90961f96de39cbc1d0b288ca592f5e9c7b67d7d7385606001518660800151604051610a82929190613555565b60405180910390a3505050565b610a9761170d565b73ffffffffffffffffffffffffffffffffffffffff168173ffffffffffffffffffffffffffffffffffffffff1614610afb576040517f6697b23200000000000000000000000000000000000000000000000000000000815260040160405180910390fd5b610b058282611715565b505050565b60008054906101000a900473ffffffffffffffffffffffffffffffffffffffff1681565b6000610b9e600160405180606001604052908160008201602080602002604051908101604052809291908260208015610b7c576020028201915b815481526020019060010190808311610b68575b5050505050815260200160208201548152602001602182015481525050611817565b905090565b6000610bad611907565b905060008160000160089054906101000a900460ff1615905060008260000160009054906101000a900467ffffffffffffffff1690506000808267ffffffffffffffff16148015610bfb5750825b9050600060018367ffffffffffffffff16148015610c30575060003073ffffffffffffffffffffffffffffffffffffffff163b145b905081158015610c3e575080155b15610c75576040517ff92ee8a900000000000000000000000000000000000000000000000000000000815260040160405180910390fd5b60018560000160006101000a81548167ffffffffffffffff021916908367ffffffffffffffff1602179055508315610cc55760018560000160086101000a81548160ff0219169083151502179055505b866000806101000a81548173ffffffffffffffffffffffffffffffffffffffff021916908373ffffffffffffffffffffffffffffffffffffffff160217905550610d0f600161192f565b610d1960236119ab565b610d2d6000801b610d2861170d565b61160c565b50610d587fe5002bd16ffc71462a6c1c19eaf55e254c97864c770378b6f68c1a085231514a8761160c565b508315610db55760008560000160086101000a81548160ff0219169083151502179055507fc7f505b2f371ae2175ee4913f4499e1f2633a7b5936321eed1cdaeb6115181d26001604051610dac91906135cd565b60405180910390a15b50505050505050565b610dc6611a9a565b610dcf82611b80565b610dd98282611b91565b5050565b6000610de7611cb0565b7f360894a13ba1a3210667c828492db98dca3e2076cc3735a920a3ca505d382bbc60001b905090565b6000610e26836023611d3790919063ffffffff16565b9050610e3061170d565b73ffffffffffffffffffffffffffffffffffffffff16816020015173ffffffffffffffffffffffffffffffffffffffff1614610e98576040517f8b2ea0f800000000000000000000000000000000000000000000000000000000815260040160405180910390fd5b610eb182803603810190610eac919061364c565b611e5b565b816000015114610f16578060000151610ed983803603810190610ed4919061364c565b611e5b565b6040517f7be225b6000000000000000000000000000000000000000000000000000000008152600401610f0d929190613679565b60405180910390fd5b806020015173ffffffffffffffffffffffffffffffffffffffff166108fc83604001359081150290604051600060405180830381858888f19350505050158015610f64573d6000803e3d6000fd5b50827f0c1c0787650562778c282502dfd6dcea2fb79d23783920aa18aee36b4aa3dc4860405160405180910390a2505050565b602660009054906101000a900463ffffffff1681565b600080610fb86115d0565b905080600001600085815260200190815260200160002060000160008473ffffffffffffffffffffffffffffffffffffffff1673ffffffffffffffffffffffffffffffffffffffff16815260200190815260200160002060009054906101000a900460ff1691505092915050565b6000801b81565b6040518060400160405280600581526020017f352e302e3000000000000000000000000000000000000000000000000000000081525081565b61106e61289f565b602360000182815481106110855761108461337f565b5b9060005260206000209060020201604051806060016040529081600082015481526020016001820160009054906101000a900473ffffffffffffffffffffffffffffffffffffffff1673ffffffffffffffffffffffffffffffffffffffff1673ffffffffffffffffffffffffffffffffffffffff1681526020016001820160149054906101000a900460ff1615151515815250509050919050565b6111298261083a565b611132816115f8565b61113c8383611715565b50505050565b6000600160236001015461115691906136a2565b905090565b6000600160236002015461116f91906136a2565b905090565b7fe5002bd16ffc71462a6c1c19eaf55e254c97864c770378b6f68c1a085231514a61119e816115f8565b60006111b684846023611e9b9092919063ffffffff16565b905060005b81518110156112a0576111f28282815181106111da576111d961337f565b5b6020026020010151600161225690919063ffffffff16565b8181815181106112055761120461337f565b5b6020026020010151602660009054906101000a900463ffffffff1663ffffffff167f529a1f0fdd7142aabe2b12dd8590a30a26c8427b5200ad8c775a5b4aa03fb41d60405160405180910390a36026600081819054906101000a900463ffffffff1680929190611274906136d6565b91906101000a81548163ffffffff021916908363ffffffff1602179055505080806001019150506111bb565b5060006113116001604051806060016040529081600082016020806020026040519081016040528092919082602080156112ef576020028201915b8154815260200190600101908083116112db575b5050505050815260200160208201548152602001602182015481525050611817565b9050426027600083815260200190815260200160002081905550847ff18887951e0128c56f80fe285e446cc180799fea48be52617a5b00d742ccd7cc858460405161135d92919061386f565b60405180910390a25050505050565b60276020528060005260406000206000915090505481565b600080846000015185602001518660400151876060015188608001516040516020016113b4959493929190613966565b60405160208183030381529060405280519060200120905060008054906101000a900473ffffffffffffffffffffffffffffffffffffffff1673ffffffffffffffffffffffffffffffffffffffff16637e4f7a8a85856114138561236f565b6040518463ffffffff1660e01b815260040161143193929190613a03565b602060405180830381865afa15801561144e573d6000803e3d6000fd5b505050506040513d601f19601f820116820180604052508101906114729190613a68565b9150509392505050565b600034036114b6576040517f94fe88d900000000000000000000000000000000000000000000000000000000815260040160405180910390fd5b60006114e26040518060600160405280848152602001600063ffffffff16815260200134815250611e5b565b90506000611503826114f261170d565b602361241a9092919063ffffffff16565b90508261150e61170d565b73ffffffffffffffffffffffffffffffffffffffff16827f1e88950eef3c1bd8dd83d765aec1f21f34ca153104f0acd7a6218bf8f48e84106000344260405161155993929190613ad0565b60405180910390a4505050565b60007f01ffc9a7000000000000000000000000000000000000000000000000000000007bffffffffffffffffffffffffffffffffffffffffffffffffffffffff1916827bffffffffffffffffffffffffffffffffffffffffffffffffffffffff1916149050919050565b60007f02dd7bc7dec4dceedda775e58dd541e08a116c6c53815c0bd028192f7b626800905090565b6116098161160461170d565b612518565b50565b6000806116176115d0565b90506116238484610fad565b61170157600181600001600086815260200190815260200160002060000160008573ffffffffffffffffffffffffffffffffffffffff1673ffffffffffffffffffffffffffffffffffffffff16815260200190815260200160002060006101000a81548160ff02191690831515021790555061169d61170d565b73ffffffffffffffffffffffffffffffffffffffff168373ffffffffffffffffffffffffffffffffffffffff16857f2f8788117e7eff1d82e926ec794901d17c78024a50270940304540a733656f0d60405160405180910390a46001915050611707565b60009150505b92915050565b600033905090565b6000806117206115d0565b905061172c8484610fad565b1561180b57600081600001600086815260200190815260200160002060000160008573ffffffffffffffffffffffffffffffffffffffff1673ffffffffffffffffffffffffffffffffffffffff16815260200190815260200160002060006101000a81548160ff0219169083151502179055506117a761170d565b73ffffffffffffffffffffffffffffffffffffffff168373ffffffffffffffffffffffffffffffffffffffff16857ff6391f5c32d9c69d2a47ea670b442974b53935d1edc7fd64eb21e047a839171b60405160405180910390a46001915050611811565b60009150505b92915050565b6000808260400151905060008360200151905060008460400151905060005b60208110156118fb576001808285901c160361189757856000015181602081106118635761186261337f565b5b60200201518460405160200161187a929190613b07565b6040516020818303038152906040528051906020012093506118c3565b83826040516020016118aa929190613b07565b6040516020818303038152906040528051906020012093505b81826040516020016118d6929190613b07565b6040516020818303038152906040528051906020012091508080600101915050611836565b50829350505050919050565b60007ff0c57e16840df040f15088dc2f81fe391c3923bec73e23a9662efc9c229c6a00905090565b6000816020018190555061196760405180606001604052806000801b8152602001600063ffffffff1681526020016000815250611e5b565b816021018190555060005b60208110156119a7576000801b8260000182602081106119955761199461337f565b5b01819055508080600101915050611972565b5050565b8060000160405180606001604052806000801b8152602001600073ffffffffffffffffffffffffffffffffffffffff1681526020016000151581525090806001815401808255809150506001900390600052602060002090600202016000909190919091506000820151816000015560208201518160010160006101000a81548173ffffffffffffffffffffffffffffffffffffffff021916908373ffffffffffffffffffffffffffffffffffffffff16021790555060408201518160010160146101000a81548160ff0219169083151502179055505050600181600101819055506001816002018190555050565b7f000000000000000000000000000000000000000000000000000000000000000073ffffffffffffffffffffffffffffffffffffffff163073ffffffffffffffffffffffffffffffffffffffff161480611b4757507f000000000000000000000000000000000000000000000000000000000000000073ffffffffffffffffffffffffffffffffffffffff16611b2e612569565b73ffffffffffffffffffffffffffffffffffffffff1614155b15611b7e576040517fe07c8dba00000000000000000000000000000000000000000000000000000000815260040160405180910390fd5b565b6000801b611b8d816115f8565b5050565b8173ffffffffffffffffffffffffffffffffffffffff166352d1902d6040518163ffffffff1660e01b8152600401602060405180830381865afa925050508015611bf957506040513d601f19601f82011682018060405250810190611bf69190613b48565b60015b611c3a57816040517f4c9c8ce3000000000000000000000000000000000000000000000000000000008152600401611c319190613b84565b60405180910390fd5b7f360894a13ba1a3210667c828492db98dca3e2076cc3735a920a3ca505d382bbc60001b8114611ca157806040517faa1d49a4000000000000000000000000000000000000000000000000000000008152600401611c9891906129c3565b60405180910390fd5b611cab83836125c0565b505050565b7f000000000000000000000000000000000000000000000000000000000000000073ffffffffffffffffffffffffffffffffffffffff163073ffffffffffffffffffffffffffffffffffffffff1614611d35576040517fe07c8dba00000000000000000000000000000000000000000000000000000000815260040160405180910390fd5b565b611d3f61289f565b826000018281548110611d5557611d5461337f565b5b9060005260206000209060020201604051806060016040529081600082015481526020016001820160009054906101000a900473ffffffffffffffffffffffffffffffffffffffff1673ffffffffffffffffffffffffffffffffffffffff1673ffffffffffffffffffffffffffffffffffffffff1681526020016001820160149054906101000a900460ff1615151515815250509050826000018281548110611e0157611e0061337f565b5b90600052602060002090600202016000808201600090556001820160006101000a81549073ffffffffffffffffffffffffffffffffffffffff02191690556001820160146101000a81549060ff0219169055505092915050565b6000816000015182602001518360400151604051602001611e7e93929190613b9f565b604051602081830303815290604052805190602001209050919050565b606083600201548310611ef7578260018560020154611eba91906136a2565b6040517f091724e1000000000000000000000000000000000000000000000000000000008152600401611eee929190613bdc565b60405180910390fd5b60005b8251811015611fcb576000838281518110611f1857611f1761337f565b5b6020026020010151905084811180611f335750856001015481105b15611f7d57808660010154866040517f9e16c3b9000000000000000000000000000000000000000000000000000000008152600401611f7493929190613c05565b60405180910390fd5b6001866000018281548110611f9557611f9461337f565b5b906000526020600020906002020160010160146101000a81548160ff021916908315150217905550508080600101915050611efa565b50600080856001015490505b8481116120b557600073ffffffffffffffffffffffffffffffffffffffff1686600001828154811061200c5761200b61337f565b5b906000526020600020906002020160010160009054906101000a900473ffffffffffffffffffffffffffffffffffffffff1673ffffffffffffffffffffffffffffffffffffffff1603156120a2578560000181815481106120705761206f61337f565b5b906000526020600020906002020160010160149054906101000a900460ff166120a257818061209e90613c3c565b9250505b80806120ad90613c3c565b915050611fd7565b5060008167ffffffffffffffff8111156120d2576120d16129f4565b5b6040519080825280602002602001820160405280156121005781602001602082028036833780820191505090505b509050600080876001015490505b86811161223357600073ffffffffffffffffffffffffffffffffffffffff168860000182815481106121435761214261337f565b5b906000526020600020906002020160010160009054906101000a900473ffffffffffffffffffffffffffffffffffffffff1673ffffffffffffffffffffffffffffffffffffffff160315612220578760000181815481106121a7576121a661337f565b5b906000526020600020906002020160010160149054906101000a900460ff16612220578760000181815481106121e0576121df61337f565b5b9060005260206000209060020201600001548383815181106122055761220461337f565b5b602002602001018181525050818061221c90613c3c565b9250505b808061222b90613c3c565b91505061210e565b506001866122419190613521565b87600101819055508193505050509392505050565b600081905060016020600261226b9190613db7565b61227591906136a2565b8360200154106122b1576040517fef5ccf6600000000000000000000000000000000000000000000000000000000815260040160405180910390fd5b600083602001600081546122c490613c3c565b919050819055905060005b6020811015612358576001808284901c160361230957828560000182602081106122fc576122fb61337f565b5b018190555050505061236b565b84600001816020811061231f5761231e61337f565b5b015483604051602001612333929190613b07565b60405160208183030381529060405280519060200120925080806001019150506122cf565b50600061236857612367613e02565b5b50505b5050565b60606000600867ffffffffffffffff81111561238e5761238d6129f4565b5b6040519080825280602002602001820160405280156123bc5781602001602082028036833780820191505090505b50905060005b6008811015612410576020816123d89190613e31565b84901b60e01c63ffffffff168282815181106123f7576123f661337f565b5b60200260200101818152505080806001019150506123c2565b5080915050919050565b60008360000160405180606001604052808581526020018473ffffffffffffffffffffffffffffffffffffffff1681526020016000151581525090806001815401808255809150506001900390600052602060002090600202016000909190919091506000820151816000015560208201518160010160006101000a81548173ffffffffffffffffffffffffffffffffffffffff021916908373ffffffffffffffffffffffffffffffffffffffff16021790555060408201518160010160146101000a81548160ff02191690831515021790555050508360020154905083600201600081548092919061250c90613c3c565b91905055509392505050565b6125228282610fad565b6125655780826040517fe2517d3f00000000000000000000000000000000000000000000000000000000815260040161255c929190613e73565b60405180910390fd5b5050565b60006125977f360894a13ba1a3210667c828492db98dca3e2076cc3735a920a3ca505d382bbc60001b612633565b60000160009054906101000a900473ffffffffffffffffffffffffffffffffffffffff16905090565b6125c98261263d565b8173ffffffffffffffffffffffffffffffffffffffff167fbc7cd75a20ee27fd9adebab32041f755214dbc6bffa90cc0225b39da2e5c2d3b60405160405180910390a260008151111561262657612620828261270a565b5061262f565b61262e61278e565b5b5050565b6000819050919050565b60008173ffffffffffffffffffffffffffffffffffffffff163b0361269957806040517f4c9c8ce30000000000000000000000000000000000000000000000000000000081526004016126909190613b84565b60405180910390fd5b806126c67f360894a13ba1a3210667c828492db98dca3e2076cc3735a920a3ca505d382bbc60001b612633565b60000160006101000a81548173ffffffffffffffffffffffffffffffffffffffff021916908373ffffffffffffffffffffffffffffffffffffffff16021790555050565b60606000808473ffffffffffffffffffffffffffffffffffffffff16846040516127349190613ee3565b600060405180830381855af49150503d806000811461276f576040519150601f19603f3d011682016040523d82523d6000602084013e612774565b606091505b50915091506127848583836127cb565b9250505092915050565b60003411156127c9576040517fb398979f00000000000000000000000000000000000000000000000000000000815260040160405180910390fd5b565b6060826127e0576127db8261285a565b612852565b60008251148015612808575060008473ffffffffffffffffffffffffffffffffffffffff163b145b1561284a57836040517f9996b3150000000000000000000000000000000000000000000000000000000081526004016128419190613b84565b60405180910390fd5b819050612853565b5b9392505050565b60008151111561286d5780518082602001fd5b6040517f1425ea4200000000000000000000000000000000000000000000000000000000815260040160405180910390fd5b604051806060016040528060008019168152602001600073ffffffffffffffffffffffffffffffffffffffff1681526020016000151581525090565b6000604051905090565b600080fd5b600080fd5b60007fffffffff0000000000000000000000000000000000000000000000000000000082169050919050565b612924816128ef565b811461292f57600080fd5b50565b6000813590506129418161291b565b92915050565b60006020828403121561295d5761295c6128e5565b5b600061296b84828501612932565b91505092915050565b60008115159050919050565b61298981612974565b82525050565b60006020820190506129a46000830184612980565b92915050565b6000819050919050565b6129bd816129aa565b82525050565b60006020820190506129d860008301846129b4565b92915050565b600080fd5b6000601f19601f8301169050919050565b7f4e487b7100000000000000000000000000000000000000000000000000000000600052604160045260246000fd5b612a2c826129e3565b810181811067ffffffffffffffff82111715612a4b57612a4a6129f4565b5b80604052505050565b6000612a5e6128db565b9050612a6a8282612a23565b919050565b600067ffffffffffffffff821115612a8a57612a896129f4565b5b602082029050602081019050919050565b600080fd5b6000819050919050565b612ab381612aa0565b8114612abe57600080fd5b50565b600081359050612ad081612aaa565b92915050565b6000612ae9612ae484612a6f565b612a54565b90508083825260208201905060208402830185811115612b0c57612b0b612a9b565b5b835b81811015612b355780612b218882612ac1565b845260208401935050602081019050612b0e565b5050509392505050565b600082601f830112612b5457612b536129de565b5b8135612b64848260208601612ad6565b91505092915050565b600060208284031215612b8357612b826128e5565b5b600082013567ffffffffffffffff811115612ba157612ba06128ea565b5b612bad84828501612b3f565b91505092915050565b600081519050919050565b600082825260208201905092915050565b6000819050602082019050919050565b612beb816129aa565b82525050565b600073ffffffffffffffffffffffffffffffffffffffff82169050919050565b6000612c1c82612bf1565b9050919050565b612c2c81612c11565b82525050565b612c3b81612974565b82525050565b606082016000820151612c576000850182612be2565b506020820151612c6a6020850182612c23565b506040820151612c7d6040850182612c32565b50505050565b6000612c8f8383612c41565b60608301905092915050565b6000602082019050919050565b6000612cb382612bb6565b612cbd8185612bc1565b9350612cc883612bd2565b8060005b83811015612cf9578151612ce08882612c83565b9750612ceb83612c9b565b925050600181019050612ccc565b5085935050505092915050565b60006020820190508181036000830152612d208184612ca8565b905092915050565b612d31816129aa565b8114612d3c57600080fd5b50565b600081359050612d4e81612d28565b92915050565b600060208284031215612d6a57612d696128e5565b5b6000612d7884828501612d3f565b91505092915050565b612d8a81612aa0565b82525050565b6000602082019050612da56000830184612d81565b92915050565b612db481612c11565b8114612dbf57600080fd5b50565b600081359050612dd181612dab565b92915050565b60008060408385031215612dee57612ded6128e5565b5b6000612dfc85828601612d3f565b9250506020612e0d85828601612dc2565b9150509250929050565b600080fd5b600063ffffffff82169050919050565b612e3581612e1c565b8114612e4057600080fd5b50565b600081359050612e5281612e2c565b92915050565b600060a08284031215612e6e57612e6d612e17565b5b612e7860a0612a54565b90506000612e8884828501612d3f565b6000830152506020612e9c84828501612d3f565b6020830152506040612eb084828501612dc2565b6040830152506060612ec484828501612e43565b6060830152506080612ed884828501612ac1565b60808301525092915050565b600080fd5b60008083601f840112612eff57612efe6129de565b5b8235905067ffffffffffffffff811115612f1c57612f1b612ee4565b5b602083019150836001820283011115612f3857612f37612a9b565b5b9250929050565b600080600060c08486031215612f5857612f576128e5565b5b6000612f6686828701612e58565b93505060a084013567ffffffffffffffff811115612f8757612f866128ea565b5b612f9386828701612ee9565b92509250509250925092565b6000819050919050565b6000612fc4612fbf612fba84612bf1565b612f9f565b612bf1565b9050919050565b6000612fd682612fa9565b9050919050565b6000612fe882612fcb565b9050919050565b612ff881612fdd565b82525050565b60006020820190506130136000830184612fef565b92915050565b600080604083850312156130305761302f6128e5565b5b600061303e85828601612dc2565b925050602061304f85828601612dc2565b9150509250929050565b600080fd5b600067ffffffffffffffff821115613079576130786129f4565b5b613082826129e3565b9050602081019050919050565b82818337600083830152505050565b60006130b16130ac8461305e565b612a54565b9050828152602081018484840111156130cd576130cc613059565b5b6130d884828561308f565b509392505050565b600082601f8301126130f5576130f46129de565b5b813561310584826020860161309e565b91505092915050565b60008060408385031215613125576131246128e5565b5b600061313385828601612dc2565b925050602083013567ffffffffffffffff811115613154576131536128ea565b5b613160858286016130e0565b9150509250929050565b600080fd5b6000606082840312156131855761318461316a565b5b81905092915050565b600080608083850312156131a5576131a46128e5565b5b60006131b385828601612ac1565b92505060206131c48582860161316f565b9150509250929050565b6131d781612e1c565b82525050565b60006020820190506131f260008301846131ce565b92915050565b600081519050919050565b600082825260208201905092915050565b60005b83811015613232578082015181840152602081019050613217565b60008484015250505050565b6000613249826131f8565b6132538185613203565b9350613263818560208601613214565b61326c816129e3565b840191505092915050565b60006020820190508181036000830152613291818461323e565b905092915050565b6000602082840312156132af576132ae6128e5565b5b60006132bd84828501612ac1565b91505092915050565b6060820160008201516132dc6000850182612be2565b5060208201516132ef6020850182612c23565b5060408201516133026040850182612c32565b50505050565b600060608201905061331d60008301846132c6565b92915050565b6000806040838503121561333a576133396128e5565b5b600061334885828601612ac1565b925050602083013567ffffffffffffffff811115613369576133686128ea565b5b61337585828601612b3f565b9150509250929050565b7f4e487b7100000000000000000000000000000000000000000000000000000000600052603260045260246000fd5b7f496e76616c6964206465706f736974526f6f7400000000000000000000000000600082015250565b60006133e4601383613203565b91506133ef826133ae565b602082019050919050565b60006020820190508181036000830152613413816133d7565b9050919050565b7f496e76616c6964206e756c6c6966696572000000000000000000000000000000600082015250565b6000613450601183613203565b915061345b8261341a565b602082019050919050565b6000602082019050818103600083015261347f81613443565b9050919050565b7f496e76616c69642070726f6f6600000000000000000000000000000000000000600082015250565b60006134bc600d83613203565b91506134c782613486565b602082019050919050565b600060208201905081810360008301526134eb816134af565b9050919050565b7f4e487b7100000000000000000000000000000000000000000000000000000000600052601160045260246000fd5b600061352c82612aa0565b915061353783612aa0565b925082820190508082111561354f5761354e6134f2565b5b92915050565b600060408201905061356a60008301856131ce565b6135776020830184612d81565b9392505050565b6000819050919050565b600067ffffffffffffffff82169050919050565b60006135b76135b26135ad8461357e565b612f9f565b613588565b9050919050565b6135c78161359c565b82525050565b60006020820190506135e260008301846135be565b92915050565b6000606082840312156135fe576135fd612e17565b5b6136086060612a54565b9050600061361884828501612d3f565b600083015250602061362c84828501612e43565b602083015250604061364084828501612ac1565b60408301525092915050565b600060608284031215613662576136616128e5565b5b6000613670848285016135e8565b91505092915050565b600060408201905061368e60008301856129b4565b61369b60208301846129b4565b9392505050565b60006136ad82612aa0565b91506136b883612aa0565b92508282039050818111156136d0576136cf6134f2565b5b92915050565b60006136e182612e1c565b915063ffffffff82036136f7576136f66134f2565b5b600182019050919050565b600081519050919050565b600082825260208201905092915050565b6000819050602082019050919050565b61373781612aa0565b82525050565b6000613749838361372e565b60208301905092915050565b6000602082019050919050565b600061376d82613702565b613777818561370d565b93506137828361371e565b8060005b838110156137b357815161379a888261373d565b97506137a583613755565b925050600181019050613786565b5085935050505092915050565b600081519050919050565b600082825260208201905092915050565b6000819050602082019050919050565b60006137f88383612be2565b60208301905092915050565b6000602082019050919050565b600061381c826137c0565b61382681856137cb565b9350613831836137dc565b8060005b8381101561386257815161384988826137ec565b975061385483613804565b925050600181019050613835565b5085935050505092915050565b600060408201905081810360008301526138898185613762565b9050818103602083015261389d8184613811565b90509392505050565b6000819050919050565b6138c16138bc826129aa565b6138a6565b82525050565b60008160601b9050919050565b60006138df826138c7565b9050919050565b60006138f1826138d4565b9050919050565b61390961390482612c11565b6138e6565b82525050565b60008160e01b9050919050565b60006139278261390f565b9050919050565b61393f61393a82612e1c565b61391c565b82525050565b6000819050919050565b61396061395b82612aa0565b613945565b82525050565b600061397282886138b0565b60208201915061398282876138b0565b60208201915061399282866138f8565b6014820191506139a2828561392e565b6004820191506139b2828461394f565b6020820191508190509695505050505050565b600082825260208201905092915050565b60006139e283856139c5565b93506139ef83858461308f565b6139f8836129e3565b840190509392505050565b60006040820190508181036000830152613a1e8185876139d6565b90508181036020830152613a328184613762565b9050949350505050565b613a4581612974565b8114613a5057600080fd5b50565b600081519050613a6281613a3c565b92915050565b600060208284031215613a7e57613a7d6128e5565b5b6000613a8c84828501613a53565b91505092915050565b6000819050919050565b6000613aba613ab5613ab084613a95565b612f9f565b612e1c565b9050919050565b613aca81613a9f565b82525050565b6000606082019050613ae56000830186613ac1565b613af26020830185612d81565b613aff6040830184612d81565b949350505050565b6000613b1382856138b0565b602082019150613b2382846138b0565b6020820191508190509392505050565b600081519050613b4281612d28565b92915050565b600060208284031215613b5e57613b5d6128e5565b5b6000613b6c84828501613b33565b91505092915050565b613b7e81612c11565b82525050565b6000602082019050613b996000830184613b75565b92915050565b6000613bab82866138b0565b602082019150613bbb828561392e565b600482019150613bcb828461394f565b602082019150819050949350505050565b6000604082019050613bf16000830185612d81565b613bfe6020830184612d81565b9392505050565b6000606082019050613c1a6000830186612d81565b613c276020830185612d81565b613c346040830184612d81565b949350505050565b6000613c4782612aa0565b91507fffffffffffffffffffffffffffffffffffffffffffffffffffffffffffffffff8203613c7957613c786134f2565b5b600182019050919050565b60008160011c9050919050565b6000808291508390505b6001851115613cdb57808604811115613cb757613cb66134f2565b5b6001851615613cc65780820291505b8081029050613cd485613c84565b9450613c9b565b94509492505050565b600082613cf45760019050613db0565b81613d025760009050613db0565b8160018114613d185760028114613d2257613d51565b6001915050613db0565b60ff841115613d3457613d336134f2565b5b8360020a915084821115613d4b57613d4a6134f2565b5b50613db0565b5060208310610133831016604e8410600b8410161715613d865782820a905083811115613d8157613d806134f2565b5b613db0565b613d938484846001613c91565b92509050818404811115613daa57613da96134f2565b5b81810290505b9392505050565b6000613dc282612aa0565b9150613dcd83612aa0565b9250613dfa7fffffffffffffffffffffffffffffffffffffffffffffffffffffffffffffffff8484613ce4565b905092915050565b7f4e487b7100000000000000000000000000000000000000000000000000000000600052600160045260246000fd5b6000613e3c82612aa0565b9150613e4783612aa0565b9250828202613e5581612aa0565b91508282048414831517613e6c57613e6b6134f2565b5b5092915050565b6000604082019050613e886000830185613b75565b613e9560208301846129b4565b9392505050565b600081519050919050565b600081905092915050565b6000613ebd82613e9c565b613ec78185613ea7565b9350613ed7818560208601613214565b80840191505092915050565b6000613eef8284613eb2565b91508190509291505056fea264697066735822122064131b4a3a7c4472503137b167576d022dceb9ed750e46ecaf7d9f1cfb3b6b6c64736f6c63430008180033",
  "linkReferences": {},
  "deployedLinkReferences": {}
}