{
  "_format": "hh-sol-artifact-1",
  "contractName": "MinterV1",
  "sourceName": "contracts/MinterV1.sol",
  "abi": [
    {
      "inputs": [
        {
          "internalType": "address",
          "name": "plonkVerifier_",
          "type": "address"
        },
        {
          "internalType": "address",
          "name": "token_",
          "type": "address"
        },
        {
          "internalType": "address",
          "name": "int1_",
          "type": "address"
        },
        {
          "internalType": "address",
          "name": "admin_",
          "type": "address"
        }
      ],
      "stateMutability": "nonpayable",
      "type": "constructor"
    },
    {
      "inputs": [],
      "name": "AccessControlBadConfirmation",
      "type": "error"
    },
    {
      "inputs": [
        {
          "internalType": "address",
          "name": "account",
          "type": "address"
        },
        {
          "internalType": "bytes32",
          "name": "neededRole",
          "type": "bytes32"
        }
      ],
      "name": "AccessControlUnauthorizedAccount",
      "type": "error"
    },
    {
      "anonymous": false,
      "inputs": [
        {
          "indexed": true,
          "internalType": "bytes32",
          "name": "role",
          "type": "bytes32"
        },
        {
          "indexed": true,
          "internalType": "bytes32",
          "name": "previousAdminRole",
          "type": "bytes32"
        },
        {
          "indexed": true,
          "internalType": "bytes32",
          "name": "newAdminRole",
          "type": "bytes32"
        }
      ],
      "name": "RoleAdminChanged",
      "type": "event"
    },
    {
      "anonymous": false,
      "inputs": [
        {
          "indexed": true,
          "internalType": "bytes32",
          "name": "role",
          "type": "bytes32"
        },
        {
          "indexed": true,
          "internalType": "address",
          "name": "account",
          "type": "address"
        },
        {
          "indexed": true,
          "internalType": "address",
          "name": "sender",
          "type": "address"
        }
      ],
      "name": "RoleGranted",
      "type": "event"
    },
    {
      "anonymous": false,
      "inputs": [
        {
          "indexed": true,
          "internalType": "bytes32",
          "name": "role",
          "type": "bytes32"
        },
        {
          "indexed": true,
          "internalType": "address",
          "name": "account",
          "type": "address"
        },
        {
          "indexed": true,
          "internalType": "address",
          "name": "sender",
          "type": "address"
        }
      ],
      "name": "RoleRevoked",
      "type": "event"
    },
    {
      "inputs": [],
      "name": "DEFAULT_ADMIN_ROLE",
      "outputs": [
        {
          "internalType": "bytes32",
          "name": "",
          "type": "bytes32"
        }
      ],
      "stateMutability": "view",
      "type": "function"
    },
    {
      "inputs": [
        {
          "components": [
            {
              "internalType": "address",
              "name": "recipient",
              "type": "address"
            },
            {
              "internalType": "bytes32",
              "name": "nullifier",
              "type": "bytes32"
            },
            {
              "internalType": "uint256",
              "name": "amount",
              "type": "uint256"
            }
          ],
          "internalType": "struct MinterV1.MintClaim[]",
          "name": "claims",
          "type": "tuple[]"
        },
        {
          "components": [
            {
              "internalType": "bytes32",
              "name": "depositTreeRoot",
              "type": "bytes32"
            },
            {
              "internalType": "bytes32",
              "name": "eligibleTreeRoot",
              "type": "bytes32"
            },
            {
              "internalType": "bytes32",
              "name": "lastClaimHash",
              "type": "bytes32"
            }
          ],
          "internalType": "struct MinterV1.ClaimPublicInputs",
          "name": "publicInputs",
          "type": "tuple"
        },
        {
          "internalType": "bytes",
          "name": "proof",
          "type": "bytes"
        }
      ],
      "name": "claimTokens",
      "outputs": [],
      "stateMutability": "nonpayable",
      "type": "function"
    },
    {
      "inputs": [],
      "name": "eligibleTreeRoot",
      "outputs": [
        {
          "internalType": "bytes32",
          "name": "",
          "type": "bytes32"
        }
      ],
      "stateMutability": "view",
      "type": "function"
    },
    {
      "inputs": [
        {
          "internalType": "bytes32",
          "name": "role",
          "type": "bytes32"
        }
      ],
      "name": "getRoleAdmin",
      "outputs": [
        {
          "internalType": "bytes32",
          "name": "",
          "type": "bytes32"
        }
      ],
      "stateMutability": "view",
      "type": "function"
    },
    {
      "inputs": [
        {
          "internalType": "bytes32",
          "name": "role",
          "type": "bytes32"
        },
        {
          "internalType": "address",
          "name": "account",
          "type": "address"
        }
      ],
      "name": "grantRole",
      "outputs": [],
      "stateMutability": "nonpayable",
      "type": "function"
    },
    {
      "inputs": [
        {
          "internalType": "bytes32",
          "name": "role",
          "type": "bytes32"
        },
        {
          "internalType": "address",
          "name": "account",
          "type": "address"
        }
      ],
      "name": "hasRole",
      "outputs": [
        {
          "internalType": "bool",
          "name": "",
          "type": "bool"
        }
      ],
      "stateMutability": "view",
      "type": "function"
    },
    {
      "inputs": [],
      "name": "int1",
      "outputs": [
        {
          "internalType": "contract IInt1",
          "name": "",
          "type": "address"
        }
      ],
      "stateMutability": "view",
      "type": "function"
    },
    {
      "inputs": [
        {
          "internalType": "address",
          "name": "newMinter",
          "type": "address"
        }
      ],
      "name": "migrate",
      "outputs": [],
      "stateMutability": "nonpayable",
      "type": "function"
    },
    {
      "inputs": [],
      "name": "mint",
      "outputs": [],
      "stateMutability": "nonpayable",
      "type": "function"
    },
    {
      "inputs": [
        {
          "internalType": "bytes32",
          "name": "",
          "type": "bytes32"
        }
      ],
      "name": "nullifiers",
      "outputs": [
        {
          "internalType": "bool",
          "name": "",
          "type": "bool"
        }
      ],
      "stateMutability": "view",
      "type": "function"
    },
    {
      "inputs": [
        {
          "internalType": "bytes32",
          "name": "role",
          "type": "bytes32"
        },
        {
          "internalType": "address",
          "name": "callerConfirmation",
          "type": "address"
        }
      ],
      "name": "renounceRole",
      "outputs": [],
      "stateMutability": "nonpayable",
      "type": "function"
    },
    {
      "inputs": [
        {
          "internalType": "bytes32",
          "name": "role",
          "type": "bytes32"
        },
        {
          "internalType": "address",
          "name": "account",
          "type": "address"
        }
      ],
      "name": "revokeRole",
      "outputs": [],
      "stateMutability": "nonpayable",
      "type": "function"
    },
    {
      "inputs": [
        {
          "internalType": "bytes32",
          "name": "eligibleTreeRoot_",
          "type": "bytes32"
        },
        {
          "internalType": "uint256",
          "name": "targetBalance",
          "type": "uint256"
        }
      ],
      "name": "setTreeRoots",
      "outputs": [],
      "stateMutability": "nonpayable",
      "type": "function"
    },
    {
      "inputs": [
        {
          "internalType": "bytes4",
          "name": "interfaceId",
          "type": "bytes4"
        }
      ],
      "name": "supportsInterface",
      "outputs": [
        {
          "internalType": "bool",
          "name": "",
          "type": "bool"
        }
      ],
      "stateMutability": "view",
      "type": "function"
    },
    {
      "inputs": [],
      "name": "token",
      "outputs": [
        {
          "internalType": "contract IINTMAXToken",
          "name": "",
          "type": "address"
        }
      ],
      "stateMutability": "view",
      "type": "function"
    },
    {
      "inputs": [],
      "name": "verifier",
      "outputs": [
        {
          "internalType": "contract IPlonkVerifier",
          "name": "",
          "type": "address"
        }
      ],
      "stateMutability": "view",
      "type": "function"
    }
  ],
  "bytecode": "0x60806040523480156200001157600080fd5b506040516200213e3803806200213e8339818101604052810190620000379190620002f9565b83600160006101000a81548173ffffffffffffffffffffffffffffffffffffffff021916908373ffffffffffffffffffffffffffffffffffffffff16021790555082600260006101000a81548173ffffffffffffffffffffffffffffffffffffffff021916908373ffffffffffffffffffffffffffffffffffffffff16021790555081600360006101000a81548173ffffffffffffffffffffffffffffffffffffffff021916908373ffffffffffffffffffffffffffffffffffffffff1602179055506200010f6000801b826200011a60201b60201c565b50505050506200036b565b60006200012e83836200021d60201b60201c565b6200021257600160008085815260200190815260200160002060000160008473ffffffffffffffffffffffffffffffffffffffff1673ffffffffffffffffffffffffffffffffffffffff16815260200190815260200160002060006101000a81548160ff021916908315150217905550620001ae6200028760201b60201c565b73ffffffffffffffffffffffffffffffffffffffff168273ffffffffffffffffffffffffffffffffffffffff16847f2f8788117e7eff1d82e926ec794901d17c78024a50270940304540a733656f0d60405160405180910390a46001905062000217565b600090505b92915050565b600080600084815260200190815260200160002060000160008373ffffffffffffffffffffffffffffffffffffffff1673ffffffffffffffffffffffffffffffffffffffff16815260200190815260200160002060009054906101000a900460ff16905092915050565b600033905090565b600080fd5b600073ffffffffffffffffffffffffffffffffffffffff82169050919050565b6000620002c18262000294565b9050919050565b620002d381620002b4565b8114620002df57600080fd5b50565b600081519050620002f381620002c8565b92915050565b600080600080608085870312156200031657620003156200028f565b5b60006200032687828801620002e2565b94505060206200033987828801620002e2565b93505060406200034c87828801620002e2565b92505060606200035f87828801620002e2565b91505092959194509250565b611dc3806200037b6000396000f3fe608060405234801561001057600080fd5b50600436106100ff5760003560e01c8063550ca5f811610097578063ce5494bb11610066578063ce5494bb14610298578063d547741f146102b4578063def496a8146102d0578063fc0c546a146102ee576100ff565b8063550ca5f81461021257806391d148541461022e578063a217fddf1461025e578063b875f89e1461027c576100ff565b80632997e86b116100d35780632997e86b1461018c5780632b7ac3f3146101bc5780632f2ff15d146101da57806336568abe146101f6576100ff565b8062aadd0f1461010457806301ffc9a7146101225780631249c58b14610152578063248a9ca31461015c575b600080fd5b61010c61030c565b604051610119919061113d565b60405180910390f35b61013c600480360381019061013791906111c4565b610332565b604051610149919061120c565b60405180910390f35b61015a6103ac565b005b6101766004803603810190610171919061125d565b610449565b6040516101839190611299565b60405180910390f35b6101a660048036038101906101a1919061125d565b610468565b6040516101b3919061120c565b60405180910390f35b6101c4610488565b6040516101d191906112d5565b60405180910390f35b6101f460048036038101906101ef919061132e565b6104ae565b005b610210600480360381019061020b919061132e565b6104d0565b005b61022c60048036038101906102279190611625565b61054b565b005b6102486004803603810190610243919061132e565b6108bc565b604051610255919061120c565b60405180910390f35b610266610926565b6040516102739190611299565b60405180910390f35b610296600480360381019061029191906116b5565b61092d565b005b6102b260048036038101906102ad91906116f5565b610a85565b005b6102ce60048036038101906102c9919061132e565b610bd8565b005b6102d8610bfa565b6040516102e59190611299565b60405180910390f35b6102f6610c00565b6040516103039190611743565b60405180910390f35b600360009054906101000a900473ffffffffffffffffffffffffffffffffffffffff1681565b60007f7965db0b000000000000000000000000000000000000000000000000000000007bffffffffffffffffffffffffffffffffffffffffffffffffffffffff1916827bffffffffffffffffffffffffffffffffffffffffffffffffffffffff191614806103a557506103a482610c26565b5b9050919050565b6000801b6103b981610c90565b600260009054906101000a900473ffffffffffffffffffffffffffffffffffffffff1673ffffffffffffffffffffffffffffffffffffffff16636a627842306040518263ffffffff1660e01b8152600401610414919061176d565b600060405180830381600087803b15801561042e57600080fd5b505af1158015610442573d6000803e3d6000fd5b5050505050565b6000806000838152602001908152602001600020600101549050919050565b60056020528060005260406000206000915054906101000a900460ff1681565b600160009054906101000a900473ffffffffffffffffffffffffffffffffffffffff1681565b6104b782610449565b6104c081610c90565b6104ca8383610ca4565b50505050565b6104d8610d95565b73ffffffffffffffffffffffffffffffffffffffff168173ffffffffffffffffffffffffffffffffffffffff161461053c576040517f6697b23200000000000000000000000000000000000000000000000000000000815260040160405180910390fd5b6105468282610d9d565b505050565b6000600360009054906101000a900473ffffffffffffffffffffffffffffffffffffffff1673ffffffffffffffffffffffffffffffffffffffff1663e09dfaa285600001516040518263ffffffff1660e01b81526004016105ac9190611299565b602060405180830381865afa1580156105c9573d6000803e3d6000fd5b505050506040513d601f19601f820116820180604052508101906105ed919061179d565b1161062d576040517f08c379a000000000000000000000000000000000000000000000000000000000815260040161062490611827565b60405180910390fd5b600061063885610e8f565b905083604001518114610680576040517f08c379a000000000000000000000000000000000000000000000000000000000815260040161067790611893565b60405180910390fd5b60008460000151856020015186604001516040516020016106a3939291906118d4565b6040516020818303038152906040528051906020012090506000600160009054906101000a900473ffffffffffffffffffffffffffffffffffffffff1673ffffffffffffffffffffffffffffffffffffffff16637e4f7a8a868661070686610f16565b6040518463ffffffff1660e01b815260040161072493929190611a1c565b602060405180830381865afa158015610741573d6000803e3d6000fd5b505050506040513d601f19601f820116820180604052508101906107659190611a81565b9050806107a7576040517f08c379a000000000000000000000000000000000000000000000000000000000815260040161079e90611afa565b60405180910390fd5b60005b87518110156108755760008882815181106107c8576107c7611b1a565b5b60200260200101519050600560008260200151815260200190815260200160002060009054906101000a900460ff1615610837576040517f08c379a000000000000000000000000000000000000000000000000000000000815260040161082e90611b95565b60405180910390fd5b6001600560008360200151815260200190815260200160002060006101000a81548160ff0219169083151502179055505080806001019150506107aa565b5060005b87518110156108b2576108a588828151811061089857610897611b1a565b5b6020026020010151610fc1565b8080600101915050610879565b5050505050505050565b600080600084815260200190815260200160002060000160008373ffffffffffffffffffffffffffffffffffffffff1673ffffffffffffffffffffffffffffffffffffffff16815260200190815260200160002060009054906101000a900460ff16905092915050565b6000801b81565b6000801b61093a81610c90565b826004819055506000600260009054906101000a900473ffffffffffffffffffffffffffffffffffffffff1673ffffffffffffffffffffffffffffffffffffffff166370a08231306040518263ffffffff1660e01b815260040161099e919061176d565b602060405180830381865afa1580156109bb573d6000803e3d6000fd5b505050506040513d601f19601f820116820180604052508101906109df919061179d565b9050600083826109ef9190611be4565b9050600260009054906101000a900473ffffffffffffffffffffffffffffffffffffffff1673ffffffffffffffffffffffffffffffffffffffff166342966c68826040518263ffffffff1660e01b8152600401610a4c9190611c27565b600060405180830381600087803b158015610a6657600080fd5b505af1158015610a7a573d6000803e3d6000fd5b505050505050505050565b6000801b610a9281610c90565b6000600260009054906101000a900473ffffffffffffffffffffffffffffffffffffffff1673ffffffffffffffffffffffffffffffffffffffff166370a08231306040518263ffffffff1660e01b8152600401610aef919061176d565b602060405180830381865afa158015610b0c573d6000803e3d6000fd5b505050506040513d601f19601f82011682018060405250810190610b30919061179d565b9050600260009054906101000a900473ffffffffffffffffffffffffffffffffffffffff1673ffffffffffffffffffffffffffffffffffffffff1663a9059cbb84836040518363ffffffff1660e01b8152600401610b8f929190611c42565b6020604051808303816000875af1158015610bae573d6000803e3d6000fd5b505050506040513d601f19601f82011682018060405250810190610bd29190611a81565b50505050565b610be182610449565b610bea81610c90565b610bf48383610d9d565b50505050565b60045481565b600260009054906101000a900473ffffffffffffffffffffffffffffffffffffffff1681565b60007f01ffc9a7000000000000000000000000000000000000000000000000000000007bffffffffffffffffffffffffffffffffffffffffffffffffffffffff1916827bffffffffffffffffffffffffffffffffffffffffffffffffffffffff1916149050919050565b610ca181610c9c610d95565b61106d565b50565b6000610cb083836108bc565b610d8a57600160008085815260200190815260200160002060000160008473ffffffffffffffffffffffffffffffffffffffff1673ffffffffffffffffffffffffffffffffffffffff16815260200190815260200160002060006101000a81548160ff021916908315150217905550610d27610d95565b73ffffffffffffffffffffffffffffffffffffffff168273ffffffffffffffffffffffffffffffffffffffff16847f2f8788117e7eff1d82e926ec794901d17c78024a50270940304540a733656f0d60405160405180910390a460019050610d8f565b600090505b92915050565b600033905090565b6000610da983836108bc565b15610e8457600080600085815260200190815260200160002060000160008473ffffffffffffffffffffffffffffffffffffffff1673ffffffffffffffffffffffffffffffffffffffff16815260200190815260200160002060006101000a81548160ff021916908315150217905550610e21610d95565b73ffffffffffffffffffffffffffffffffffffffff168273ffffffffffffffffffffffffffffffffffffffff16847ff6391f5c32d9c69d2a47ea670b442974b53935d1edc7fd64eb21e047a839171b60405160405180910390a460019050610e89565b600090505b92915050565b6000806000801b905060005b8351811015610f0c576000848281518110610eb957610eb8611b1a565b5b6020026020010151905082816000015182602001518360400151604051602001610ee69493929190611cd4565b604051602081830303815290604052805190602001209250508080600101915050610e9b565b5080915050919050565b60606000600867ffffffffffffffff811115610f3557610f34611384565b5b604051908082528060200260200182016040528015610f635781602001602082028036833780820191505090505b50905060005b6008811015610fb757602081610f7f9190611d22565b84901b60e01c63ffffffff16828281518110610f9e57610f9d611b1a565b5b6020026020010181815250508080600101915050610f69565b5080915050919050565b600260009054906101000a900473ffffffffffffffffffffffffffffffffffffffff1673ffffffffffffffffffffffffffffffffffffffff1663a9059cbb826000015183604001516040518363ffffffff1660e01b8152600401611026929190611c42565b6020604051808303816000875af1158015611045573d6000803e3d6000fd5b505050506040513d601f19601f820116820180604052508101906110699190611a81565b5050565b61107782826108bc565b6110ba5780826040517fe2517d3f0000000000000000000000000000000000000000000000000000000081526004016110b1929190611d64565b60405180910390fd5b5050565b600073ffffffffffffffffffffffffffffffffffffffff82169050919050565b6000819050919050565b60006111036110fe6110f9846110be565b6110de565b6110be565b9050919050565b6000611115826110e8565b9050919050565b60006111278261110a565b9050919050565b6111378161111c565b82525050565b6000602082019050611152600083018461112e565b92915050565b6000604051905090565b600080fd5b600080fd5b60007fffffffff0000000000000000000000000000000000000000000000000000000082169050919050565b6111a18161116c565b81146111ac57600080fd5b50565b6000813590506111be81611198565b92915050565b6000602082840312156111da576111d9611162565b5b60006111e8848285016111af565b91505092915050565b60008115159050919050565b611206816111f1565b82525050565b600060208201905061122160008301846111fd565b92915050565b6000819050919050565b61123a81611227565b811461124557600080fd5b50565b60008135905061125781611231565b92915050565b60006020828403121561127357611272611162565b5b600061128184828501611248565b91505092915050565b61129381611227565b82525050565b60006020820190506112ae600083018461128a565b92915050565b60006112bf8261110a565b9050919050565b6112cf816112b4565b82525050565b60006020820190506112ea60008301846112c6565b92915050565b60006112fb826110be565b9050919050565b61130b816112f0565b811461131657600080fd5b50565b60008135905061132881611302565b92915050565b6000806040838503121561134557611344611162565b5b600061135385828601611248565b925050602061136485828601611319565b9150509250929050565b600080fd5b6000601f19601f8301169050919050565b7f4e487b7100000000000000000000000000000000000000000000000000000000600052604160045260246000fd5b6113bc82611373565b810181811067ffffffffffffffff821117156113db576113da611384565b5b80604052505050565b60006113ee611158565b90506113fa82826113b3565b919050565b600067ffffffffffffffff82111561141a57611419611384565b5b602082029050602081019050919050565b600080fd5b600080fd5b6000819050919050565b61144881611435565b811461145357600080fd5b50565b6000813590506114658161143f565b92915050565b60006060828403121561148157611480611430565b5b61148b60606113e4565b9050600061149b84828501611319565b60008301525060206114af84828501611248565b60208301525060406114c384828501611456565b60408301525092915050565b60006114e26114dd846113ff565b6113e4565b905080838252602082019050606084028301858111156115055761150461142b565b5b835b8181101561152e578061151a888261146b565b845260208401935050606081019050611507565b5050509392505050565b600082601f83011261154d5761154c61136e565b5b813561155d8482602086016114cf565b91505092915050565b60006060828403121561157c5761157b611430565b5b61158660606113e4565b9050600061159684828501611248565b60008301525060206115aa84828501611248565b60208301525060406115be84828501611248565b60408301525092915050565b600080fd5b60008083601f8401126115e5576115e461136e565b5b8235905067ffffffffffffffff811115611602576116016115ca565b5b60208301915083600182028301111561161e5761161d61142b565b5b9250929050565b60008060008060a0858703121561163f5761163e611162565b5b600085013567ffffffffffffffff81111561165d5761165c611167565b5b61166987828801611538565b945050602061167a87828801611566565b935050608085013567ffffffffffffffff81111561169b5761169a611167565b5b6116a7878288016115cf565b925092505092959194509250565b600080604083850312156116cc576116cb611162565b5b60006116da85828601611248565b92505060206116eb85828601611456565b9150509250929050565b60006020828403121561170b5761170a611162565b5b600061171984828501611319565b91505092915050565b600061172d8261110a565b9050919050565b61173d81611722565b82525050565b60006020820190506117586000830184611734565b92915050565b611767816112f0565b82525050565b6000602082019050611782600083018461175e565b92915050565b6000815190506117978161143f565b92915050565b6000602082840312156117b3576117b2611162565b5b60006117c184828501611788565b91505092915050565b600082825260208201905092915050565b7f496e76616c6964206465706f736974207472656520726f6f7400000000000000600082015250565b60006118116019836117ca565b915061181c826117db565b602082019050919050565b6000602082019050818103600083015261184081611804565b9050919050565b7f496e76616c6964206c61737420636c61696d2068617368000000000000000000600082015250565b600061187d6017836117ca565b915061188882611847565b602082019050919050565b600060208201905081810360008301526118ac81611870565b9050919050565b6000819050919050565b6118ce6118c982611227565b6118b3565b82525050565b60006118e082866118bd565b6020820191506118f082856118bd565b60208201915061190082846118bd565b602082019150819050949350505050565b600082825260208201905092915050565b82818337600083830152505050565b600061193d8385611911565b935061194a838584611922565b61195383611373565b840190509392505050565b600081519050919050565b600082825260208201905092915050565b6000819050602082019050919050565b61199381611435565b82525050565b60006119a5838361198a565b60208301905092915050565b6000602082019050919050565b60006119c98261195e565b6119d38185611969565b93506119de8361197a565b8060005b83811015611a0f5781516119f68882611999565b9750611a01836119b1565b9250506001810190506119e2565b5085935050505092915050565b60006040820190508181036000830152611a37818587611931565b90508181036020830152611a4b81846119be565b9050949350505050565b611a5e816111f1565b8114611a6957600080fd5b50565b600081519050611a7b81611a55565b92915050565b600060208284031215611a9757611a96611162565b5b6000611aa584828501611a6c565b91505092915050565b7f496e76616c69642070726f6f6600000000000000000000000000000000000000600082015250565b6000611ae4600d836117ca565b9150611aef82611aae565b602082019050919050565b60006020820190508181036000830152611b1381611ad7565b9050919050565b7f4e487b7100000000000000000000000000000000000000000000000000000000600052603260045260246000fd5b7f4e756c6c696669657220616c7265616479207573656400000000000000000000600082015250565b6000611b7f6016836117ca565b9150611b8a82611b49565b602082019050919050565b60006020820190508181036000830152611bae81611b72565b9050919050565b7f4e487b7100000000000000000000000000000000000000000000000000000000600052601160045260246000fd5b6000611bef82611435565b9150611bfa83611435565b9250828203905081811115611c1257611c11611bb5565b5b92915050565b611c2181611435565b82525050565b6000602082019050611c3c6000830184611c18565b92915050565b6000604082019050611c57600083018561175e565b611c646020830184611c18565b9392505050565b60008160601b9050919050565b6000611c8382611c6b565b9050919050565b6000611c9582611c78565b9050919050565b611cad611ca8826112f0565b611c8a565b82525050565b6000819050919050565b611cce611cc982611435565b611cb3565b82525050565b6000611ce082876118bd565b602082019150611cf08286611c9c565b601482019150611d0082856118bd565b602082019150611d108284611cbd565b60208201915081905095945050505050565b6000611d2d82611435565b9150611d3883611435565b9250828202611d4681611435565b91508282048414831517611d5d57611d5c611bb5565b5b5092915050565b6000604082019050611d79600083018561175e565b611d86602083018461128a565b939250505056fea26469706673582212205eff9947d9299521f4a5d0e1b3301ee22a5d4a99ac65e04f8324767e1d37272764736f6c63430008180033",
  "linkReferences": {},
  "deployedLinkReferences": {}
}