{
  "_format": "hh-sol-artifact-1",
  "contractName": "Int1",
  "sourceName": "contracts/Int1.sol",
  "abi": [
    {
      "inputs": [],
      "name": "AccessControlBadConfirmation",
      "type": "error"
    },
    {
      "inputs": [
        {
          "internalType": "address",
          "name": "account",
          "type": "address"
        },
        {
          "internalType": "bytes32",
          "name": "neededRole",
          "type": "bytes32"
        }
      ],
      "name": "AccessControlUnauthorizedAccount",
      "type": "error"
    },
    {
      "inputs": [
        {
          "internalType": "address",
          "name": "target",
          "type": "address"
        }
      ],
      "name": "AddressEmptyCode",
      "type": "error"
    },
    {
      "inputs": [],
      "name": "AlreadyAnalyzed",
      "type": "error"
    },
    {
      "inputs": [
        {
          "internalType": "address",
          "name": "implementation",
          "type": "address"
        }
      ],
      "name": "ERC1967InvalidImplementation",
      "type": "error"
    },
    {
      "inputs": [],
      "name": "ERC1967NonPayable",
      "type": "error"
    },
    {
      "inputs": [],
      "name": "FailedInnerCall",
      "type": "error"
    },
    {
      "inputs": [],
      "name": "GasTooHigh",
      "type": "error"
    },
    {
      "inputs": [
        {
          "internalType": "bytes32",
          "name": "depositDataHash",
          "type": "bytes32"
        },
        {
          "internalType": "bytes32",
          "name": "calculatedHash",
          "type": "bytes32"
        }
      ],
      "name": "InvalidDepositHash",
      "type": "error"
    },
    {
      "inputs": [
        {
          "internalType": "bytes32",
          "name": "depositRoot",
          "type": "bytes32"
        }
      ],
      "name": "InvalidDepositRoot",
      "type": "error"
    },
    {
      "inputs": [],
      "name": "InvalidInitialization",
      "type": "error"
    },
    {
      "inputs": [],
      "name": "InvalidProof",
      "type": "error"
    },
    {
      "inputs": [],
      "name": "InvalidTokenIndex",
      "type": "error"
    },
    {
      "inputs": [],
      "name": "MerkleTreeFull",
      "type": "error"
    },
    {
      "inputs": [],
      "name": "NotInitializing",
      "type": "error"
    },
    {
      "inputs": [],
      "name": "OnlySenderCanCancelDeposit",
      "type": "error"
    },
    {
      "inputs": [],
      "name": "RecipientSaltHashAlreadyUsed",
      "type": "error"
    },
    {
      "inputs": [
        {
          "internalType": "uint256",
          "name": "upToDepositId",
          "type": "uint256"
        },
        {
          "internalType": "uint256",
          "name": "lastDepositId",
          "type": "uint256"
        }
      ],
      "name": "TriedAnalyzeNotExists",
      "type": "error"
    },
    {
      "inputs": [],
      "name": "TriedToDepositZero",
      "type": "error"
    },
    {
      "inputs": [
        {
          "internalType": "uint256",
          "name": "rejectIndex",
          "type": "uint256"
        },
        {
          "internalType": "uint256",
          "name": "front",
          "type": "uint256"
        },
        {
          "internalType": "uint256",
          "name": "upToDepositId",
          "type": "uint256"
        }
      ],
      "name": "TriedToRejectOutOfRange",
      "type": "error"
    },
    {
      "inputs": [],
      "name": "UUPSUnauthorizedCallContext",
      "type": "error"
    },
    {
      "inputs": [
        {
          "internalType": "bytes32",
          "name": "slot",
          "type": "bytes32"
        }
      ],
      "name": "UUPSUnsupportedProxiableUUID",
      "type": "error"
    },
    {
      "inputs": [
        {
          "internalType": "bytes32",
          "name": "nullifier",
          "type": "bytes32"
        }
      ],
      "name": "UsedNullifier",
      "type": "error"
    },
    {
      "anonymous": false,
      "inputs": [
        {
          "indexed": true,
          "internalType": "uint256",
          "name": "depositId",
          "type": "uint256"
        }
      ],
      "name": "DepositCanceled",
      "type": "event"
    },
    {
      "anonymous": false,
      "inputs": [
        {
          "indexed": true,
          "internalType": "uint32",
          "name": "depositIndex",
          "type": "uint32"
        },
        {
          "indexed": true,
          "internalType": "bytes32",
          "name": "depositHash",
          "type": "bytes32"
        }
      ],
      "name": "DepositLeafInserted",
      "type": "event"
    },
    {
      "anonymous": false,
      "inputs": [
        {
          "indexed": true,
          "internalType": "uint256",
          "name": "depositId",
          "type": "uint256"
        },
        {
          "indexed": true,
          "internalType": "address",
          "name": "sender",
          "type": "address"
        },
        {
          "indexed": true,
          "internalType": "bytes32",
          "name": "recipientSaltHash",
          "type": "bytes32"
        },
        {
          "indexed": false,
          "internalType": "uint32",
          "name": "tokenIndex",
          "type": "uint32"
        },
        {
          "indexed": false,
          "internalType": "uint256",
          "name": "amount",
          "type": "uint256"
        },
        {
          "indexed": false,
          "internalType": "uint256",
          "name": "depositedAt",
          "type": "uint256"
        }
      ],
      "name": "Deposited",
      "type": "event"
    },
    {
      "anonymous": false,
      "inputs": [
        {
          "indexed": true,
          "internalType": "uint256",
          "name": "upToDepositId",
          "type": "uint256"
        },
        {
          "indexed": false,
          "internalType": "uint256[]",
          "name": "rejectedIndices",
          "type": "uint256[]"
        },
        {
          "indexed": false,
          "internalType": "bytes32[]",
          "name": "depositHashes",
          "type": "bytes32[]"
        }
      ],
      "name": "DepositsAnalyzedAndProcessed",
      "type": "event"
    },
    {
      "anonymous": false,
      "inputs": [
        {
          "indexed": false,
          "internalType": "uint64",
          "name": "version",
          "type": "uint64"
        }
      ],
      "name": "Initialized",
      "type": "event"
    },
    {
      "anonymous": false,
      "inputs": [
        {
          "indexed": true,
          "internalType": "bytes32",
          "name": "role",
          "type": "bytes32"
        },
        {
          "indexed": true,
          "internalType": "bytes32",
          "name": "previousAdminRole",
          "type": "bytes32"
        },
        {
          "indexed": true,
          "internalType": "bytes32",
          "name": "newAdminRole",
          "type": "bytes32"
        }
      ],
      "name": "RoleAdminChanged",
      "type": "event"
    },
    {
      "anonymous": false,
      "inputs": [
        {
          "indexed": true,
          "internalType": "bytes32",
          "name": "role",
          "type": "bytes32"
        },
        {
          "indexed": true,
          "internalType": "address",
          "name": "account",
          "type": "address"
        },
        {
          "indexed": true,
          "internalType": "address",
          "name": "sender",
          "type": "address"
        }
      ],
      "name": "RoleGranted",
      "type": "event"
    },
    {
      "anonymous": false,
      "inputs": [
        {
          "indexed": true,
          "internalType": "bytes32",
          "name": "role",
          "type": "bytes32"
        },
        {
          "indexed": true,
          "internalType": "address",
          "name": "account",
          "type": "address"
        },
        {
          "indexed": true,
          "internalType": "address",
          "name": "sender",
          "type": "address"
        }
      ],
      "name": "RoleRevoked",
      "type": "event"
    },
    {
      "anonymous": false,
      "inputs": [
        {
          "indexed": true,
          "internalType": "address",
          "name": "implementation",
          "type": "address"
        }
      ],
      "name": "Upgraded",
      "type": "event"
    },
    {
      "anonymous": false,
      "inputs": [
        {
          "indexed": true,
          "internalType": "address",
          "name": "recipient",
          "type": "address"
        },
        {
          "indexed": true,
          "internalType": "bytes32",
          "name": "nullifier",
          "type": "bytes32"
        },
        {
          "indexed": false,
          "internalType": "uint32",
          "name": "tokenIndex",
          "type": "uint32"
        },
        {
          "indexed": false,
          "internalType": "uint256",
          "name": "amount",
          "type": "uint256"
        }
      ],
      "name": "Withdrawn",
      "type": "event"
    },
    {
      "inputs": [],
      "name": "ANALYZER",
      "outputs": [
        {
          "internalType": "bytes32",
          "name": "",
          "type": "bytes32"
        }
      ],
      "stateMutability": "view",
      "type": "function"
    },
    {
      "inputs": [],
      "name": "DEFAULT_ADMIN_ROLE",
      "outputs": [
        {
          "internalType": "bytes32",
          "name": "",
          "type": "bytes32"
        }
      ],
      "stateMutability": "view",
      "type": "function"
    },
    {
      "inputs": [],
      "name": "TX_BASE_GAS",
      "outputs": [
        {
          "internalType": "uint256",
          "name": "",
          "type": "uint256"
        }
      ],
      "stateMutability": "view",
      "type": "function"
    },
    {
      "inputs": [],
      "name": "TX_TRANSFER_GAS",
      "outputs": [
        {
          "internalType": "uint256",
          "name": "",
          "type": "uint256"
        }
      ],
      "stateMutability": "view",
      "type": "function"
    },
    {
      "inputs": [],
      "name": "UPGRADE_INTERFACE_VERSION",
      "outputs": [
        {
          "internalType": "string",
          "name": "",
          "type": "string"
        }
      ],
      "stateMutability": "view",
      "type": "function"
    },
    {
      "inputs": [],
      "name": "WITHDRAWER",
      "outputs": [
        {
          "internalType": "bytes32",
          "name": "",
          "type": "bytes32"
        }
      ],
      "stateMutability": "view",
      "type": "function"
    },
    {
      "inputs": [
        {
          "internalType": "uint256",
          "name": "upToDepositId",
          "type": "uint256"
        },
        {
          "internalType": "uint256[]",
          "name": "rejectDepositIds",
          "type": "uint256[]"
        }
      ],
      "name": "analyzeAndProcessDeposits",
      "outputs": [],
      "stateMutability": "nonpayable",
      "type": "function"
    },
    {
      "inputs": [
        {
          "internalType": "uint256",
          "name": "depositId",
          "type": "uint256"
        },
        {
          "components": [
            {
              "internalType": "bytes32",
              "name": "recipientSaltHash",
              "type": "bytes32"
            },
            {
              "internalType": "uint32",
              "name": "tokenIndex",
              "type": "uint32"
            },
            {
              "internalType": "uint256",
              "name": "amount",
              "type": "uint256"
            }
          ],
          "internalType": "struct DepositLib.Deposit",
          "name": "deposit",
          "type": "tuple"
        }
      ],
      "name": "cancelDeposit",
      "outputs": [],
      "stateMutability": "nonpayable",
      "type": "function"
    },
    {
      "inputs": [],
      "name": "depositIndex",
      "outputs": [
        {
          "internalType": "uint32",
          "name": "",
          "type": "uint32"
        }
      ],
      "stateMutability": "view",
      "type": "function"
    },
    {
      "inputs": [
        {
          "internalType": "bytes32",
          "name": "recipientSaltHash",
          "type": "bytes32"
        }
      ],
      "name": "depositNativeToken",
      "outputs": [],
      "stateMutability": "payable",
      "type": "function"
    },
    {
      "inputs": [
        {
          "internalType": "bytes32",
          "name": "",
          "type": "bytes32"
        }
      ],
      "name": "depositRoots",
      "outputs": [
        {
          "internalType": "uint256",
          "name": "",
          "type": "uint256"
        }
      ],
      "stateMutability": "view",
      "type": "function"
    },
    {
      "inputs": [
        {
          "internalType": "uint256",
          "name": "depositId",
          "type": "uint256"
        }
      ],
      "name": "getDepositData",
      "outputs": [
        {
          "components": [
            {
              "internalType": "bytes32",
              "name": "depositHash",
              "type": "bytes32"
            },
            {
              "internalType": "address",
              "name": "sender",
              "type": "address"
            },
            {
              "internalType": "bool",
              "name": "isRejected",
              "type": "bool"
            }
          ],
          "internalType": "struct DepositQueueLib.DepositData",
          "name": "",
          "type": "tuple"
        }
      ],
      "stateMutability": "view",
      "type": "function"
    },
    {
      "inputs": [
        {
          "internalType": "uint256[]",
          "name": "depositIds",
          "type": "uint256[]"
        }
      ],
      "name": "getDepositDataBatch",
      "outputs": [
        {
          "components": [
            {
              "internalType": "bytes32",
              "name": "depositHash",
              "type": "bytes32"
            },
            {
              "internalType": "address",
              "name": "sender",
              "type": "address"
            },
            {
              "internalType": "bool",
              "name": "isRejected",
              "type": "bool"
            }
          ],
          "internalType": "struct DepositQueueLib.DepositData[]",
          "name": "",
          "type": "tuple[]"
        }
      ],
      "stateMutability": "view",
      "type": "function"
    },
    {
      "inputs": [],
      "name": "getDepositRoot",
      "outputs": [
        {
          "internalType": "bytes32",
          "name": "",
          "type": "bytes32"
        }
      ],
      "stateMutability": "view",
      "type": "function"
    },
    {
      "inputs": [],
      "name": "getLastDepositId",
      "outputs": [
        {
          "internalType": "uint256",
          "name": "",
          "type": "uint256"
        }
      ],
      "stateMutability": "view",
      "type": "function"
    },
    {
      "inputs": [],
      "name": "getLastProcessedDepositId",
      "outputs": [
        {
          "internalType": "uint256",
          "name": "",
          "type": "uint256"
        }
      ],
      "stateMutability": "view",
      "type": "function"
    },
    {
      "inputs": [
        {
          "internalType": "bytes32",
          "name": "role",
          "type": "bytes32"
        }
      ],
      "name": "getRoleAdmin",
      "outputs": [
        {
          "internalType": "bytes32",
          "name": "",
          "type": "bytes32"
        }
      ],
      "stateMutability": "view",
      "type": "function"
    },
    {
      "inputs": [
        {
          "internalType": "bytes32",
          "name": "role",
          "type": "bytes32"
        },
        {
          "internalType": "address",
          "name": "account",
          "type": "address"
        }
      ],
      "name": "grantRole",
      "outputs": [],
      "stateMutability": "nonpayable",
      "type": "function"
    },
    {
      "inputs": [
        {
          "internalType": "bytes32",
          "name": "role",
          "type": "bytes32"
        },
        {
          "internalType": "address",
          "name": "account",
          "type": "address"
        }
      ],
      "name": "hasRole",
      "outputs": [
        {
          "internalType": "bool",
          "name": "",
          "type": "bool"
        }
      ],
      "stateMutability": "view",
      "type": "function"
    },
    {
      "inputs": [
        {
          "internalType": "address",
          "name": "withdrawalVerifier_",
          "type": "address"
        },
        {
          "internalType": "address",
          "name": "admin_",
          "type": "address"
        }
      ],
      "name": "initialize",
      "outputs": [],
      "stateMutability": "nonpayable",
      "type": "function"
    },
    {
      "inputs": [
        {
          "internalType": "bytes32",
          "name": "",
          "type": "bytes32"
        }
      ],
      "name": "nullifiers",
      "outputs": [
        {
          "internalType": "uint256",
          "name": "",
          "type": "uint256"
        }
      ],
      "stateMutability": "view",
      "type": "function"
    },
    {
      "inputs": [],
      "name": "proxiableUUID",
      "outputs": [
        {
          "internalType": "bytes32",
          "name": "",
          "type": "bytes32"
        }
      ],
      "stateMutability": "view",
      "type": "function"
    },
    {
      "inputs": [
        {
          "internalType": "bytes32",
          "name": "role",
          "type": "bytes32"
        },
        {
          "internalType": "address",
          "name": "callerConfirmation",
          "type": "address"
        }
      ],
      "name": "renounceRole",
      "outputs": [],
      "stateMutability": "nonpayable",
      "type": "function"
    },
    {
      "inputs": [
        {
          "internalType": "bytes32",
          "name": "role",
          "type": "bytes32"
        },
        {
          "internalType": "address",
          "name": "account",
          "type": "address"
        }
      ],
      "name": "revokeRole",
      "outputs": [],
      "stateMutability": "nonpayable",
      "type": "function"
    },
    {
      "inputs": [
        {
          "internalType": "bytes4",
          "name": "interfaceId",
          "type": "bytes4"
        }
      ],
      "name": "supportsInterface",
      "outputs": [
        {
          "internalType": "bool",
          "name": "",
          "type": "bool"
        }
      ],
      "stateMutability": "view",
      "type": "function"
    },
    {
      "inputs": [
        {
          "internalType": "address",
          "name": "newImplementation",
          "type": "address"
        },
        {
          "internalType": "bytes",
          "name": "data",
          "type": "bytes"
        }
      ],
      "name": "upgradeToAndCall",
      "outputs": [],
      "stateMutability": "payable",
      "type": "function"
    },
    {
      "inputs": [
        {
          "components": [
            {
              "internalType": "bytes32",
              "name": "depositRoot",
              "type": "bytes32"
            },
            {
              "internalType": "bytes32",
              "name": "nullifier",
              "type": "bytes32"
            },
            {
              "internalType": "address",
              "name": "recipient",
              "type": "address"
            },
            {
              "internalType": "uint32",
              "name": "tokenIndex",
              "type": "uint32"
            },
            {
              "internalType": "uint256",
              "name": "amount",
              "type": "uint256"
            }
          ],
          "internalType": "struct IInt1.WithdrawalPublicInputs",
          "name": "pis",
          "type": "tuple"
        },
        {
          "internalType": "bytes",
          "name": "proof",
          "type": "bytes"
        }
      ],
      "name": "verifyProof",
      "outputs": [
        {
          "internalType": "bool",
          "name": "",
          "type": "bool"
        }
      ],
      "stateMutability": "view",
      "type": "function"
    },
    {
      "inputs": [
        {
          "components": [
            {
              "internalType": "bytes32",
              "name": "depositRoot",
              "type": "bytes32"
            },
            {
              "internalType": "bytes32",
              "name": "nullifier",
              "type": "bytes32"
            },
            {
              "internalType": "address",
              "name": "recipient",
              "type": "address"
            },
            {
              "internalType": "uint32",
              "name": "tokenIndex",
              "type": "uint32"
            },
            {
              "internalType": "uint256",
              "name": "amount",
              "type": "uint256"
            }
          ],
          "internalType": "struct IInt1.WithdrawalPublicInputs",
          "name": "publicInputs",
          "type": "tuple"
        },
        {
          "internalType": "bytes",
          "name": "proof",
          "type": "bytes"
        }
      ],
      "name": "withdraw",
      "outputs": [],
      "stateMutability": "payable",
      "type": "function"
    },
    {
      "inputs": [],
      "name": "withdrawalVerifier",
      "outputs": [
        {
          "internalType": "contract IPlonkVerifier",
          "name": "",
          "type": "address"
        }
      ],
      "stateMutability": "view",
      "type": "function"
    }
  ],
  "bytecode": "0x60a06040523073ffffffffffffffffffffffffffffffffffffffff1660809073ffffffffffffffffffffffffffffffffffffffff1681525034801561004357600080fd5b5060805161434c61006d60003960008181611ffc015281816120510152612212015261434c6000f3fe6080604052600436106101c25760003560e01c806366941984116100f7578063c13819b611610095578063defe4d5b11610064578063defe4d5b1461063e578063e09dfaa214610667578063eff97cd2146106a4578063ffd55332146106e1576101c2565b8063c13819b614610582578063d547741f146105bf578063dd4d4e89146105e8578063dd9ea29914610613576101c2565b806391d14854116100d157806391d14854146104c45780639a33390614610501578063a217fddf1461052c578063ad3cb1cc14610557576101c2565b806366941984146104455780636ef5475b146104705780637b89893914610499576101c2565b80633310ea4f116101645780633ae050471161013e5780633ae05047146103aa578063485cc955146103d55780634f1ef286146103fe57806352d1902d1461041a576101c2565b80633310ea4f1461033a57806336568abe1461035657806337f9fe261461037f576101c2565b8063248a9ca3116101a0578063248a9ca31461026c5780632997e86b146102a95780632f2ff15d146102e65780632f7d39221461030f576101c2565b806301ffc9a7146101c75780630c0b59b914610204578063232c1c8a1461022f575b600080fd5b3480156101d357600080fd5b506101ee60048036038101906101e99190612ea7565b6106fd565b6040516101fb9190612eef565b60405180910390f35b34801561021057600080fd5b50610219610777565b6040516102269190612f23565b60405180910390f35b34801561023b57600080fd5b50610256600480360381019061025191906130cd565b61079b565b6040516102639190613266565b60405180910390f35b34801561027857600080fd5b50610293600480360381019061028e91906132b4565b6108fc565b6040516102a09190612f23565b60405180910390f35b3480156102b557600080fd5b506102d060048036038101906102cb91906132b4565b61092a565b6040516102dd91906132f0565b60405180910390f35b3480156102f257600080fd5b5061030d60048036038101906103089190613337565b610942565b005b34801561031b57600080fd5b50610324610964565b60405161033191906132f0565b60405180910390f35b610354600480360381019061034f919061349f565b61096a565b005b34801561036257600080fd5b5061037d60048036038101906103789190613337565b610d0b565b005b34801561038b57600080fd5b50610394610d86565b6040516103a1919061355e565b60405180910390f35b3480156103b657600080fd5b506103bf610daa565b6040516103cc9190612f23565b60405180910390f35b3480156103e157600080fd5b506103fc60048036038101906103f79190613579565b610e1f565b005b6104186004803603810190610413919061366e565b61108d565b005b34801561042657600080fd5b5061042f6110ac565b60405161043c9190612f23565b60405180910390f35b34801561045157600080fd5b5061045a6110df565b6040516104679190612f23565b60405180910390f35b34801561047c57600080fd5b50610497600480360381019061049291906136ee565b611103565b005b3480156104a557600080fd5b506104ae61146b565b6040516104bb919061373d565b60405180910390f35b3480156104d057600080fd5b506104eb60048036038101906104e69190613337565b611481565b6040516104f89190612eef565b60405180910390f35b34801561050d57600080fd5b506105166114fa565b60405161052391906132f0565b60405180910390f35b34801561053857600080fd5b50610541611500565b60405161054e9190612f23565b60405180910390f35b34801561056357600080fd5b5061056c611507565b60405161057991906137d7565b60405180910390f35b34801561058e57600080fd5b506105a960048036038101906105a491906137f9565b611540565b6040516105b69190613868565b60405180910390f35b3480156105cb57600080fd5b506105e660048036038101906105e19190613337565b6115fa565b005b3480156105f457600080fd5b506105fd61161c565b60405161060a91906132f0565b60405180910390f35b34801561061f57600080fd5b50610628611635565b60405161063591906132f0565b60405180910390f35b34801561064a57600080fd5b5061066560048036038101906106609190613883565b61164e565b005b34801561067357600080fd5b5061068e600480360381019061068991906132b4565b611846565b60405161069b91906132f0565b60405180910390f35b3480156106b057600080fd5b506106cb60048036038101906106c6919061349f565b61185e565b6040516106d89190612eef565b60405180910390f35b6106fb60048036038101906106f691906132b4565b611956565b005b60007f7965db0b000000000000000000000000000000000000000000000000000000007bffffffffffffffffffffffffffffffffffffffffffffffffffffffff1916827bffffffffffffffffffffffffffffffffffffffffffffffffffffffff19161480610770575061076f82611ac6565b5b9050919050565b7fe5002bd16ffc71462a6c1c19eaf55e254c97864c770378b6f68c1a085231514a81565b60606000825167ffffffffffffffff8111156107ba576107b9612f54565b5b6040519080825280602002602001820160405280156107f357816020015b6107e0612dff565b8152602001906001900390816107d85790505b50905060005b83518110156108f257602360000184828151811061081a576108196138df565b5b602002602001015181548110610833576108326138df565b5b9060005260206000209060020201604051806060016040529081600082015481526020016001820160009054906101000a900473ffffffffffffffffffffffffffffffffffffffff1673ffffffffffffffffffffffffffffffffffffffff1673ffffffffffffffffffffffffffffffffffffffff1681526020016001820160149054906101000a900460ff1615151515815250508282815181106108da576108d96138df565b5b602002602001018190525080806001019150506107f9565b5080915050919050565b600080610907611b30565b905080600001600084815260200190815260200160002060010154915050919050565b60276020528060005260406000206000915090505481565b61094b826108fc565b61095481611b58565b61095e8383611b6c565b50505050565b61520881565b60005a90506000602660008660000151815260200190815260200160002054036109cf5783600001516040517f1497ae930000000000000000000000000000000000000000000000000000000081526004016109c69190612f23565b60405180910390fd5b600060276000866020015181526020019081526020016000205414610a2f5783602001516040517f3d39a253000000000000000000000000000000000000000000000000000000008152600401610a269190612f23565b60405180910390fd5b610a3a84848461185e565b610a70576040517f09bde33900000000000000000000000000000000000000000000000000000000815260040160405180910390fd5b6000846060015163ffffffff1614610ab4576040517f609f982f00000000000000000000000000000000000000000000000000000000815260040160405180910390fd5b426027600086602001518152602001908152602001600020819055508360200151846040015173ffffffffffffffffffffffffffffffffffffffff167f38cde577523eac700ac823c90961f96de39cbc1d0b288ca592f5e9c7b67d7d7386606001518760800151604051610b2992919061390e565b60405180910390a3610b627f779b9d7b1cefd23059ce3e2b194efb3183a6685dd830e8cbb723b0cbeb982b28610b5d611c6d565b611481565b15610caa5760003a5a836108fc6002610b7b9190613966565b615208610b8891906139a8565b610b9291906139a8565b610b9c91906139dc565b610ba69190613966565b9050348560800151610bb891906139a8565b811115610bf1576040517fb257743000000000000000000000000000000000000000000000000000000000815260040160405180910390fd5b846040015173ffffffffffffffffffffffffffffffffffffffff166108fc82348860800151610c2091906139a8565b610c2a91906139dc565b9081150290604051600060405180830381858888f19350505050158015610c55573d6000803e3d6000fd5b50610c5e611c6d565b73ffffffffffffffffffffffffffffffffffffffff166108fc829081150290604051600060405180830381858888f19350505050158015610ca3573d6000803e3d6000fd5b5050610d05565b836040015173ffffffffffffffffffffffffffffffffffffffff166108fc348660800151610cd891906139a8565b9081150290604051600060405180830381858888f19350505050158015610d03573d6000803e3d6000fd5b505b50505050565b610d13611c6d565b73ffffffffffffffffffffffffffffffffffffffff168173ffffffffffffffffffffffffffffffffffffffff1614610d77576040517f6697b23200000000000000000000000000000000000000000000000000000000815260040160405180910390fd5b610d818282611c75565b505050565b60008054906101000a900473ffffffffffffffffffffffffffffffffffffffff1681565b6000610e1a600160405180606001604052908160008201602080602002604051908101604052809291908260208015610df8576020028201915b815481526020019060010190808311610de4575b5050505050815260200160208201548152602001602182015481525050611d77565b905090565b6000610e29611e67565b905060008160000160089054906101000a900460ff1615905060008260000160009054906101000a900467ffffffffffffffff1690506000808267ffffffffffffffff16148015610e775750825b9050600060018367ffffffffffffffff16148015610eac575060003073ffffffffffffffffffffffffffffffffffffffff163b145b905081158015610eba575080155b15610ef1576040517ff92ee8a900000000000000000000000000000000000000000000000000000000815260040160405180910390fd5b60018560000160006101000a81548167ffffffffffffffff021916908367ffffffffffffffff1602179055508315610f415760018560000160086101000a81548160ff0219169083151502179055505b866000806101000a81548173ffffffffffffffffffffffffffffffffffffffff021916908373ffffffffffffffffffffffffffffffffffffffff160217905550610f8b6001611e8f565b610f956023611f0b565b4260266000611008600160405180606001604052908160008201602080602002604051908101604052809291908260208015610fe6576020028201915b815481526020019060010190808311610fd2575b5050505050815260200160208201548152602001602182015481525050611d77565b8152602001908152602001600020819055506110276000801b87611b6c565b5083156110845760008560000160086101000a81548160ff0219169083151502179055507fc7f505b2f371ae2175ee4913f4499e1f2633a7b5936321eed1cdaeb6115181d2600160405161107b9190613a5f565b60405180910390a15b50505050505050565b611095611ffa565b61109e826120e0565b6110a882826120f1565b5050565b60006110b6612210565b7f360894a13ba1a3210667c828492db98dca3e2076cc3735a920a3ca505d382bbc60001b905090565b7f779b9d7b1cefd23059ce3e2b194efb3183a6685dd830e8cbb723b0cbeb982b2881565b81818036038101906111159190613ade565b60006023600001838154811061112e5761112d6138df565b5b9060005260206000209060020201604051806060016040529081600082015481526020016001820160009054906101000a900473ffffffffffffffffffffffffffffffffffffffff1673ffffffffffffffffffffffffffffffffffffffff1673ffffffffffffffffffffffffffffffffffffffff1681526020016001820160149054906101000a900460ff16151515158152505090506111cc611c6d565b73ffffffffffffffffffffffffffffffffffffffff16816020015173ffffffffffffffffffffffffffffffffffffffff1614611234576040517f8b2ea0f800000000000000000000000000000000000000000000000000000000815260040160405180910390fd5b600061123f83612297565b90508082600001511461128f578160000151816040517f7be225b6000000000000000000000000000000000000000000000000000000008152600401611286929190613b0b565b60405180910390fd5b61129761161c565b84116112e0576000151582604001511515036112df576040517f643710d400000000000000000000000000000000000000000000000000000000815260040160405180910390fd5b5b60006112f68760236122d790919063ffffffff16565b9050611300611c6d565b73ffffffffffffffffffffffffffffffffffffffff16816020015173ffffffffffffffffffffffffffffffffffffffff1614611368576040517f8b2ea0f800000000000000000000000000000000000000000000000000000000815260040160405180910390fd5b6113818680360381019061137c9190613ade565b612297565b8160000151146113e65780600001516113a9878036038101906113a49190613ade565b612297565b6040517f7be225b60000000000000000000000000000000000000000000000000000000081526004016113dd929190613b0b565b60405180910390fd5b806020015173ffffffffffffffffffffffffffffffffffffffff166108fc87604001359081150290604051600060405180830381858888f19350505050158015611434573d6000803e3d6000fd5b50867f0c1c0787650562778c282502dfd6dcea2fb79d23783920aa18aee36b4aa3dc4860405160405180910390a250505050505050565b600060149054906101000a900463ffffffff1681565b60008061148c611b30565b905080600001600085815260200190815260200160002060000160008473ffffffffffffffffffffffffffffffffffffffff1673ffffffffffffffffffffffffffffffffffffffff16815260200190815260200160002060009054906101000a900460ff1691505092915050565b6108fc81565b6000801b81565b6040518060400160405280600581526020017f352e302e3000000000000000000000000000000000000000000000000000000081525081565b611548612dff565b6023600001828154811061155f5761155e6138df565b5b9060005260206000209060020201604051806060016040529081600082015481526020016001820160009054906101000a900473ffffffffffffffffffffffffffffffffffffffff1673ffffffffffffffffffffffffffffffffffffffff1673ffffffffffffffffffffffffffffffffffffffff1681526020016001820160149054906101000a900460ff1615151515815250509050919050565b611603826108fc565b61160c81611b58565b6116168383611c75565b50505050565b6000600160236001015461163091906139dc565b905090565b6000600160236002015461164991906139dc565b905090565b7fe5002bd16ffc71462a6c1c19eaf55e254c97864c770378b6f68c1a085231514a61167881611b58565b6000611690848460236123fb9092919063ffffffff16565b905060005b815181101561177a576116cc8282815181106116b4576116b36138df565b5b602002602001015160016127b690919063ffffffff16565b8181815181106116df576116de6138df565b5b6020026020010151600060149054906101000a900463ffffffff1663ffffffff167f529a1f0fdd7142aabe2b12dd8590a30a26c8427b5200ad8c775a5b4aa03fb41d60405160405180910390a36000601481819054906101000a900463ffffffff168092919061174e90613b34565b91906101000a81548163ffffffff021916908363ffffffff160217905550508080600101915050611695565b5060006117eb6001604051806060016040529081600082016020806020026040519081016040528092919082602080156117c9576020028201915b8154815260200190600101908083116117b5575b5050505050815260200160208201548152602001602182015481525050611d77565b9050426026600083815260200190815260200160002081905550847ff18887951e0128c56f80fe285e446cc180799fea48be52617a5b00d742ccd7cc8584604051611837929190613ccd565b60405180910390a25050505050565b60266020528060005260406000206000915090505481565b6000808460000151856020015186604001518760600151886080015160405160200161188e959493929190613dc4565b60405160208183030381529060405280519060200120905060008054906101000a900473ffffffffffffffffffffffffffffffffffffffff1673ffffffffffffffffffffffffffffffffffffffff16637e4f7a8a85856118ed856128cf565b6040518463ffffffff1660e01b815260040161190b93929190613e61565b602060405180830381865afa158015611928573d6000803e3d6000fd5b505050506040513d601f19601f8201168201806040525081019061194c9190613ec6565b9150509392505050565b806028600082815260200190815260200160002060009054906101000a900460ff16156119af576040517f1e5bb9fc00000000000000000000000000000000000000000000000000000000815260040160405180910390fd5b600034036119e9576040517f94fe88d900000000000000000000000000000000000000000000000000000000815260040160405180910390fd5b60016028600084815260200190815260200160002060006101000a81548160ff0219169083151502179055506000611a416040518060600160405280858152602001600063ffffffff16815260200134815250612297565b90506000611a6282611a51611c6d565b602361297a9092919063ffffffff16565b905083611a6d611c6d565b73ffffffffffffffffffffffffffffffffffffffff16827f1e88950eef3c1bd8dd83d765aec1f21f34ca153104f0acd7a6218bf8f48e841060003442604051611ab893929190613f2e565b60405180910390a450505050565b60007f01ffc9a7000000000000000000000000000000000000000000000000000000007bffffffffffffffffffffffffffffffffffffffffffffffffffffffff1916827bffffffffffffffffffffffffffffffffffffffffffffffffffffffff1916149050919050565b60007f02dd7bc7dec4dceedda775e58dd541e08a116c6c53815c0bd028192f7b626800905090565b611b6981611b64611c6d565b612a78565b50565b600080611b77611b30565b9050611b838484611481565b611c6157600181600001600086815260200190815260200160002060000160008573ffffffffffffffffffffffffffffffffffffffff1673ffffffffffffffffffffffffffffffffffffffff16815260200190815260200160002060006101000a81548160ff021916908315150217905550611bfd611c6d565b73ffffffffffffffffffffffffffffffffffffffff168373ffffffffffffffffffffffffffffffffffffffff16857f2f8788117e7eff1d82e926ec794901d17c78024a50270940304540a733656f0d60405160405180910390a46001915050611c67565b60009150505b92915050565b600033905090565b600080611c80611b30565b9050611c8c8484611481565b15611d6b57600081600001600086815260200190815260200160002060000160008573ffffffffffffffffffffffffffffffffffffffff1673ffffffffffffffffffffffffffffffffffffffff16815260200190815260200160002060006101000a81548160ff021916908315150217905550611d07611c6d565b73ffffffffffffffffffffffffffffffffffffffff168373ffffffffffffffffffffffffffffffffffffffff16857ff6391f5c32d9c69d2a47ea670b442974b53935d1edc7fd64eb21e047a839171b60405160405180910390a46001915050611d71565b60009150505b92915050565b6000808260400151905060008360200151905060008460400151905060005b6020811015611e5b576001808285901c1603611df75785600001518160208110611dc357611dc26138df565b5b602002015184604051602001611dda929190613f65565b604051602081830303815290604052805190602001209350611e23565b8382604051602001611e0a929190613f65565b6040516020818303038152906040528051906020012093505b8182604051602001611e36929190613f65565b6040516020818303038152906040528051906020012091508080600101915050611d96565b50829350505050919050565b60007ff0c57e16840df040f15088dc2f81fe391c3923bec73e23a9662efc9c229c6a00905090565b60008160200181905550611ec760405180606001604052806000801b8152602001600063ffffffff1681526020016000815250612297565b816021018190555060005b6020811015611f07576000801b826000018260208110611ef557611ef46138df565b5b01819055508080600101915050611ed2565b5050565b8060000160405180606001604052806000801b8152602001600073ffffffffffffffffffffffffffffffffffffffff1681526020016000151581525090806001815401808255809150506001900390600052602060002090600202016000909190919091506000820151816000015560208201518160010160006101000a81548173ffffffffffffffffffffffffffffffffffffffff021916908373ffffffffffffffffffffffffffffffffffffffff16021790555060408201518160010160146101000a81548160ff0219169083151502179055505050600181600101819055506001816002018190555050565b7f000000000000000000000000000000000000000000000000000000000000000073ffffffffffffffffffffffffffffffffffffffff163073ffffffffffffffffffffffffffffffffffffffff1614806120a757507f000000000000000000000000000000000000000000000000000000000000000073ffffffffffffffffffffffffffffffffffffffff1661208e612ac9565b73ffffffffffffffffffffffffffffffffffffffff1614155b156120de576040517fe07c8dba00000000000000000000000000000000000000000000000000000000815260040160405180910390fd5b565b6000801b6120ed81611b58565b5050565b8173ffffffffffffffffffffffffffffffffffffffff166352d1902d6040518163ffffffff1660e01b8152600401602060405180830381865afa92505050801561215957506040513d601f19601f820116820180604052508101906121569190613fa6565b60015b61219a57816040517f4c9c8ce30000000000000000000000000000000000000000000000000000000081526004016121919190613fe2565b60405180910390fd5b7f360894a13ba1a3210667c828492db98dca3e2076cc3735a920a3ca505d382bbc60001b811461220157806040517faa1d49a40000000000000000000000000000000000000000000000000000000081526004016121f89190612f23565b60405180910390fd5b61220b8383612b20565b505050565b7f000000000000000000000000000000000000000000000000000000000000000073ffffffffffffffffffffffffffffffffffffffff163073ffffffffffffffffffffffffffffffffffffffff1614612295576040517fe07c8dba00000000000000000000000000000000000000000000000000000000815260040160405180910390fd5b565b60008160000151826020015183604001516040516020016122ba93929190613ffd565b604051602081830303815290604052805190602001209050919050565b6122df612dff565b8260000182815481106122f5576122f46138df565b5b9060005260206000209060020201604051806060016040529081600082015481526020016001820160009054906101000a900473ffffffffffffffffffffffffffffffffffffffff1673ffffffffffffffffffffffffffffffffffffffff1673ffffffffffffffffffffffffffffffffffffffff1681526020016001820160149054906101000a900460ff16151515158152505090508260000182815481106123a1576123a06138df565b5b90600052602060002090600202016000808201600090556001820160006101000a81549073ffffffffffffffffffffffffffffffffffffffff02191690556001820160146101000a81549060ff0219169055505092915050565b60608360020154831061245757826001856002015461241a91906139dc565b6040517f091724e100000000000000000000000000000000000000000000000000000000815260040161244e92919061403a565b60405180910390fd5b60005b825181101561252b576000838281518110612478576124776138df565b5b60200260200101519050848111806124935750856001015481105b156124dd57808660010154866040517f9e16c3b90000000000000000000000000000000000000000000000000000000081526004016124d493929190614063565b60405180910390fd5b60018660000182815481106124f5576124f46138df565b5b906000526020600020906002020160010160146101000a81548160ff02191690831515021790555050808060010191505061245a565b50600080856001015490505b84811161261557600073ffffffffffffffffffffffffffffffffffffffff1686600001828154811061256c5761256b6138df565b5b906000526020600020906002020160010160009054906101000a900473ffffffffffffffffffffffffffffffffffffffff1673ffffffffffffffffffffffffffffffffffffffff160315612602578560000181815481106125d0576125cf6138df565b5b906000526020600020906002020160010160149054906101000a900460ff166126025781806125fe9061409a565b9250505b808061260d9061409a565b915050612537565b5060008167ffffffffffffffff81111561263257612631612f54565b5b6040519080825280602002602001820160405280156126605781602001602082028036833780820191505090505b509050600080876001015490505b86811161279357600073ffffffffffffffffffffffffffffffffffffffff168860000182815481106126a3576126a26138df565b5b906000526020600020906002020160010160009054906101000a900473ffffffffffffffffffffffffffffffffffffffff1673ffffffffffffffffffffffffffffffffffffffff16031561278057876000018181548110612707576127066138df565b5b906000526020600020906002020160010160149054906101000a900460ff16612780578760000181815481106127405761273f6138df565b5b906000526020600020906002020160000154838381518110612765576127646138df565b5b602002602001018181525050818061277c9061409a565b9250505b808061278b9061409a565b91505061266e565b506001866127a191906139a8565b87600101819055508193505050509392505050565b60008190506001602060026127cb9190614215565b6127d591906139dc565b836020015410612811576040517fef5ccf6600000000000000000000000000000000000000000000000000000000815260040160405180910390fd5b600083602001600081546128249061409a565b919050819055905060005b60208110156128b8576001808284901c1603612869578285600001826020811061285c5761285b6138df565b5b01819055505050506128cb565b84600001816020811061287f5761287e6138df565b5b015483604051602001612893929190613f65565b604051602081830303815290604052805190602001209250808060010191505061282f565b5060006128c8576128c7614260565b5b50505b5050565b60606000600867ffffffffffffffff8111156128ee576128ed612f54565b5b60405190808252806020026020018201604052801561291c5781602001602082028036833780820191505090505b50905060005b6008811015612970576020816129389190613966565b84901b60e01c63ffffffff16828281518110612957576129566138df565b5b6020026020010181815250508080600101915050612922565b5080915050919050565b60008360000160405180606001604052808581526020018473ffffffffffffffffffffffffffffffffffffffff1681526020016000151581525090806001815401808255809150506001900390600052602060002090600202016000909190919091506000820151816000015560208201518160010160006101000a81548173ffffffffffffffffffffffffffffffffffffffff021916908373ffffffffffffffffffffffffffffffffffffffff16021790555060408201518160010160146101000a81548160ff021916908315150217905550505083600201549050836002016000815480929190612a6c9061409a565b91905055509392505050565b612a828282611481565b612ac55780826040517fe2517d3f000000000000000000000000000000000000000000000000000000008152600401612abc92919061428f565b60405180910390fd5b5050565b6000612af77f360894a13ba1a3210667c828492db98dca3e2076cc3735a920a3ca505d382bbc60001b612b93565b60000160009054906101000a900473ffffffffffffffffffffffffffffffffffffffff16905090565b612b2982612b9d565b8173ffffffffffffffffffffffffffffffffffffffff167fbc7cd75a20ee27fd9adebab32041f755214dbc6bffa90cc0225b39da2e5c2d3b60405160405180910390a2600081511115612b8657612b808282612c6a565b50612b8f565b612b8e612cee565b5b5050565b6000819050919050565b60008173ffffffffffffffffffffffffffffffffffffffff163b03612bf957806040517f4c9c8ce3000000000000000000000000000000000000000000000000000000008152600401612bf09190613fe2565b60405180910390fd5b80612c267f360894a13ba1a3210667c828492db98dca3e2076cc3735a920a3ca505d382bbc60001b612b93565b60000160006101000a81548173ffffffffffffffffffffffffffffffffffffffff021916908373ffffffffffffffffffffffffffffffffffffffff16021790555050565b60606000808473ffffffffffffffffffffffffffffffffffffffff1684604051612c9491906142ff565b600060405180830381855af49150503d8060008114612ccf576040519150601f19603f3d011682016040523d82523d6000602084013e612cd4565b606091505b5091509150612ce4858383612d2b565b9250505092915050565b6000341115612d29576040517fb398979f00000000000000000000000000000000000000000000000000000000815260040160405180910390fd5b565b606082612d4057612d3b82612dba565b612db2565b60008251148015612d68575060008473ffffffffffffffffffffffffffffffffffffffff163b145b15612daa57836040517f9996b315000000000000000000000000000000000000000000000000000000008152600401612da19190613fe2565b60405180910390fd5b819050612db3565b5b9392505050565b600081511115612dcd5780518082602001fd5b6040517f1425ea4200000000000000000000000000000000000000000000000000000000815260040160405180910390fd5b604051806060016040528060008019168152602001600073ffffffffffffffffffffffffffffffffffffffff1681526020016000151581525090565b6000604051905090565b600080fd5b600080fd5b60007fffffffff0000000000000000000000000000000000000000000000000000000082169050919050565b612e8481612e4f565b8114612e8f57600080fd5b50565b600081359050612ea181612e7b565b92915050565b600060208284031215612ebd57612ebc612e45565b5b6000612ecb84828501612e92565b91505092915050565b60008115159050919050565b612ee981612ed4565b82525050565b6000602082019050612f046000830184612ee0565b92915050565b6000819050919050565b612f1d81612f0a565b82525050565b6000602082019050612f386000830184612f14565b92915050565b600080fd5b6000601f19601f8301169050919050565b7f4e487b7100000000000000000000000000000000000000000000000000000000600052604160045260246000fd5b612f8c82612f43565b810181811067ffffffffffffffff82111715612fab57612faa612f54565b5b80604052505050565b6000612fbe612e3b565b9050612fca8282612f83565b919050565b600067ffffffffffffffff821115612fea57612fe9612f54565b5b602082029050602081019050919050565b600080fd5b6000819050919050565b61301381613000565b811461301e57600080fd5b50565b6000813590506130308161300a565b92915050565b600061304961304484612fcf565b612fb4565b9050808382526020820190506020840283018581111561306c5761306b612ffb565b5b835b8181101561309557806130818882613021565b84526020840193505060208101905061306e565b5050509392505050565b600082601f8301126130b4576130b3612f3e565b5b81356130c4848260208601613036565b91505092915050565b6000602082840312156130e3576130e2612e45565b5b600082013567ffffffffffffffff81111561310157613100612e4a565b5b61310d8482850161309f565b91505092915050565b600081519050919050565b600082825260208201905092915050565b6000819050602082019050919050565b61314b81612f0a565b82525050565b600073ffffffffffffffffffffffffffffffffffffffff82169050919050565b600061317c82613151565b9050919050565b61318c81613171565b82525050565b61319b81612ed4565b82525050565b6060820160008201516131b76000850182613142565b5060208201516131ca6020850182613183565b5060408201516131dd6040850182613192565b50505050565b60006131ef83836131a1565b60608301905092915050565b6000602082019050919050565b600061321382613116565b61321d8185613121565b935061322883613132565b8060005b8381101561325957815161324088826131e3565b975061324b836131fb565b92505060018101905061322c565b5085935050505092915050565b600060208201905081810360008301526132808184613208565b905092915050565b61329181612f0a565b811461329c57600080fd5b50565b6000813590506132ae81613288565b92915050565b6000602082840312156132ca576132c9612e45565b5b60006132d88482850161329f565b91505092915050565b6132ea81613000565b82525050565b600060208201905061330560008301846132e1565b92915050565b61331481613171565b811461331f57600080fd5b50565b6000813590506133318161330b565b92915050565b6000806040838503121561334e5761334d612e45565b5b600061335c8582860161329f565b925050602061336d85828601613322565b9150509250929050565b600080fd5b600063ffffffff82169050919050565b6133958161337c565b81146133a057600080fd5b50565b6000813590506133b28161338c565b92915050565b600060a082840312156133ce576133cd613377565b5b6133d860a0612fb4565b905060006133e88482850161329f565b60008301525060206133fc8482850161329f565b602083015250604061341084828501613322565b6040830152506060613424848285016133a3565b606083015250608061343884828501613021565b60808301525092915050565b600080fd5b60008083601f84011261345f5761345e612f3e565b5b8235905067ffffffffffffffff81111561347c5761347b613444565b5b60208301915083600182028301111561349857613497612ffb565b5b9250929050565b600080600060c084860312156134b8576134b7612e45565b5b60006134c6868287016133b8565b93505060a084013567ffffffffffffffff8111156134e7576134e6612e4a565b5b6134f386828701613449565b92509250509250925092565b6000819050919050565b600061352461351f61351a84613151565b6134ff565b613151565b9050919050565b600061353682613509565b9050919050565b60006135488261352b565b9050919050565b6135588161353d565b82525050565b6000602082019050613573600083018461354f565b92915050565b600080604083850312156135905761358f612e45565b5b600061359e85828601613322565b92505060206135af85828601613322565b9150509250929050565b600080fd5b600067ffffffffffffffff8211156135d9576135d8612f54565b5b6135e282612f43565b9050602081019050919050565b82818337600083830152505050565b600061361161360c846135be565b612fb4565b90508281526020810184848401111561362d5761362c6135b9565b5b6136388482856135ef565b509392505050565b600082601f83011261365557613654612f3e565b5b81356136658482602086016135fe565b91505092915050565b6000806040838503121561368557613684612e45565b5b600061369385828601613322565b925050602083013567ffffffffffffffff8111156136b4576136b3612e4a565b5b6136c085828601613640565b9150509250929050565b600080fd5b6000606082840312156136e5576136e46136ca565b5b81905092915050565b6000806080838503121561370557613704612e45565b5b600061371385828601613021565b9250506020613724858286016136cf565b9150509250929050565b6137378161337c565b82525050565b6000602082019050613752600083018461372e565b92915050565b600081519050919050565b600082825260208201905092915050565b60005b83811015613792578082015181840152602081019050613777565b60008484015250505050565b60006137a982613758565b6137b38185613763565b93506137c3818560208601613774565b6137cc81612f43565b840191505092915050565b600060208201905081810360008301526137f1818461379e565b905092915050565b60006020828403121561380f5761380e612e45565b5b600061381d84828501613021565b91505092915050565b60608201600082015161383c6000850182613142565b50602082015161384f6020850182613183565b5060408201516138626040850182613192565b50505050565b600060608201905061387d6000830184613826565b92915050565b6000806040838503121561389a57613899612e45565b5b60006138a885828601613021565b925050602083013567ffffffffffffffff8111156138c9576138c8612e4a565b5b6138d58582860161309f565b9150509250929050565b7f4e487b7100000000000000000000000000000000000000000000000000000000600052603260045260246000fd5b6000604082019050613923600083018561372e565b61393060208301846132e1565b9392505050565b7f4e487b7100000000000000000000000000000000000000000000000000000000600052601160045260246000fd5b600061397182613000565b915061397c83613000565b925082820261398a81613000565b915082820484148315176139a1576139a0613937565b5b5092915050565b60006139b382613000565b91506139be83613000565b92508282019050808211156139d6576139d5613937565b5b92915050565b60006139e782613000565b91506139f283613000565b9250828203905081811115613a0a57613a09613937565b5b92915050565b6000819050919050565b600067ffffffffffffffff82169050919050565b6000613a49613a44613a3f84613a10565b6134ff565b613a1a565b9050919050565b613a5981613a2e565b82525050565b6000602082019050613a746000830184613a50565b92915050565b600060608284031215613a9057613a8f613377565b5b613a9a6060612fb4565b90506000613aaa8482850161329f565b6000830152506020613abe848285016133a3565b6020830152506040613ad284828501613021565b60408301525092915050565b600060608284031215613af457613af3612e45565b5b6000613b0284828501613a7a565b91505092915050565b6000604082019050613b206000830185612f14565b613b2d6020830184612f14565b9392505050565b6000613b3f8261337c565b915063ffffffff8203613b5557613b54613937565b5b600182019050919050565b600081519050919050565b600082825260208201905092915050565b6000819050602082019050919050565b613b9581613000565b82525050565b6000613ba78383613b8c565b60208301905092915050565b6000602082019050919050565b6000613bcb82613b60565b613bd58185613b6b565b9350613be083613b7c565b8060005b83811015613c11578151613bf88882613b9b565b9750613c0383613bb3565b925050600181019050613be4565b5085935050505092915050565b600081519050919050565b600082825260208201905092915050565b6000819050602082019050919050565b6000613c568383613142565b60208301905092915050565b6000602082019050919050565b6000613c7a82613c1e565b613c848185613c29565b9350613c8f83613c3a565b8060005b83811015613cc0578151613ca78882613c4a565b9750613cb283613c62565b925050600181019050613c93565b5085935050505092915050565b60006040820190508181036000830152613ce78185613bc0565b90508181036020830152613cfb8184613c6f565b90509392505050565b6000819050919050565b613d1f613d1a82612f0a565b613d04565b82525050565b60008160601b9050919050565b6000613d3d82613d25565b9050919050565b6000613d4f82613d32565b9050919050565b613d67613d6282613171565b613d44565b82525050565b60008160e01b9050919050565b6000613d8582613d6d565b9050919050565b613d9d613d988261337c565b613d7a565b82525050565b6000819050919050565b613dbe613db982613000565b613da3565b82525050565b6000613dd08288613d0e565b602082019150613de08287613d0e565b602082019150613df08286613d56565b601482019150613e008285613d8c565b600482019150613e108284613dad565b6020820191508190509695505050505050565b600082825260208201905092915050565b6000613e408385613e23565b9350613e4d8385846135ef565b613e5683612f43565b840190509392505050565b60006040820190508181036000830152613e7c818587613e34565b90508181036020830152613e908184613bc0565b9050949350505050565b613ea381612ed4565b8114613eae57600080fd5b50565b600081519050613ec081613e9a565b92915050565b600060208284031215613edc57613edb612e45565b5b6000613eea84828501613eb1565b91505092915050565b6000819050919050565b6000613f18613f13613f0e84613ef3565b6134ff565b61337c565b9050919050565b613f2881613efd565b82525050565b6000606082019050613f436000830186613f1f565b613f5060208301856132e1565b613f5d60408301846132e1565b949350505050565b6000613f718285613d0e565b602082019150613f818284613d0e565b6020820191508190509392505050565b600081519050613fa081613288565b92915050565b600060208284031215613fbc57613fbb612e45565b5b6000613fca84828501613f91565b91505092915050565b613fdc81613171565b82525050565b6000602082019050613ff76000830184613fd3565b92915050565b60006140098286613d0e565b6020820191506140198285613d8c565b6004820191506140298284613dad565b602082019150819050949350505050565b600060408201905061404f60008301856132e1565b61405c60208301846132e1565b9392505050565b600060608201905061407860008301866132e1565b61408560208301856132e1565b61409260408301846132e1565b949350505050565b60006140a582613000565b91507fffffffffffffffffffffffffffffffffffffffffffffffffffffffffffffffff82036140d7576140d6613937565b5b600182019050919050565b60008160011c9050919050565b6000808291508390505b60018511156141395780860481111561411557614114613937565b5b60018516156141245780820291505b8081029050614132856140e2565b94506140f9565b94509492505050565b600082614152576001905061420e565b81614160576000905061420e565b81600181146141765760028114614180576141af565b600191505061420e565b60ff84111561419257614191613937565b5b8360020a9150848211156141a9576141a8613937565b5b5061420e565b5060208310610133831016604e8410600b84101617156141e45782820a9050838111156141df576141de613937565b5b61420e565b6141f184848460016140ef565b9250905081840481111561420857614207613937565b5b81810290505b9392505050565b600061422082613000565b915061422b83613000565b92506142587fffffffffffffffffffffffffffffffffffffffffffffffffffffffffffffffff8484614142565b905092915050565b7f4e487b7100000000000000000000000000000000000000000000000000000000600052600160045260246000fd5b60006040820190506142a46000830185613fd3565b6142b16020830184612f14565b9392505050565b600081519050919050565b600081905092915050565b60006142d9826142b8565b6142e381856142c3565b93506142f3818560208601613774565b80840191505092915050565b600061430b82846142ce565b91508190509291505056fea2646970667358221220e63ff8c44cfb440f6f85cdb05da0077dd389800350260ece1045c2007df4894a64736f6c63430008180033",
  "linkReferences": {},
  "deployedLinkReferences": {}
}