{
  "_format": "hh-sol-artifact-1",
  "contractName": "Int1L",
  "sourceName": "contracts/int1/int1/layer2/Int1L.sol",
  "abi": [
    {
      "inputs": [],
      "name": "AccessControlBadConfirmation",
      "type": "error"
    },
    {
      "inputs": [
        {
          "internalType": "address",
          "name": "account",
          "type": "address"
        },
        {
          "internalType": "bytes32",
          "name": "neededRole",
          "type": "bytes32"
        }
      ],
      "name": "AccessControlUnauthorizedAccount",
      "type": "error"
    },
    {
      "inputs": [
        {
          "internalType": "address",
          "name": "target",
          "type": "address"
        }
      ],
      "name": "AddressEmptyCode",
      "type": "error"
    },
    {
      "inputs": [],
      "name": "AlreadyAnalyzed",
      "type": "error"
    },
    {
      "inputs": [
        {
          "internalType": "address",
          "name": "implementation",
          "type": "address"
        }
      ],
      "name": "ERC1967InvalidImplementation",
      "type": "error"
    },
    {
      "inputs": [],
      "name": "ERC1967NonPayable",
      "type": "error"
    },
    {
      "inputs": [],
      "name": "FailedInnerCall",
      "type": "error"
    },
    {
      "inputs": [],
      "name": "GasTooHigh",
      "type": "error"
    },
    {
      "inputs": [
        {
          "internalType": "bytes32",
          "name": "depositDataHash",
          "type": "bytes32"
        },
        {
          "internalType": "bytes32",
          "name": "calculatedHash",
          "type": "bytes32"
        }
      ],
      "name": "InvalidDepositHash",
      "type": "error"
    },
    {
      "inputs": [
        {
          "internalType": "bytes32",
          "name": "depositRoot",
          "type": "bytes32"
        }
      ],
      "name": "InvalidDepositRoot",
      "type": "error"
    },
    {
      "inputs": [],
      "name": "InvalidInitialization",
      "type": "error"
    },
    {
      "inputs": [],
      "name": "InvalidProof",
      "type": "error"
    },
    {
      "inputs": [],
      "name": "InvalidTokenIndex",
      "type": "error"
    },
    {
      "inputs": [],
      "name": "MerkleTreeFull",
      "type": "error"
    },
    {
      "inputs": [],
      "name": "NotInitializing",
      "type": "error"
    },
    {
      "inputs": [],
      "name": "OnlySenderCanCancelDeposit",
      "type": "error"
    },
    {
      "inputs": [],
      "name": "RecipientSaltHashAlreadyUsed",
      "type": "error"
    },
    {
      "inputs": [
        {
          "internalType": "uint256",
          "name": "upToDepositId",
          "type": "uint256"
        },
        {
          "internalType": "uint256",
          "name": "lastDepositId",
          "type": "uint256"
        }
      ],
      "name": "TriedAnalyzeNotExists",
      "type": "error"
    },
    {
      "inputs": [],
      "name": "TriedToDepositZero",
      "type": "error"
    },
    {
      "inputs": [
        {
          "internalType": "uint256",
          "name": "rejectIndex",
          "type": "uint256"
        },
        {
          "internalType": "uint256",
          "name": "front",
          "type": "uint256"
        },
        {
          "internalType": "uint256",
          "name": "upToDepositId",
          "type": "uint256"
        }
      ],
      "name": "TriedToRejectOutOfRange",
      "type": "error"
    },
    {
      "inputs": [],
      "name": "UUPSUnauthorizedCallContext",
      "type": "error"
    },
    {
      "inputs": [
        {
          "internalType": "bytes32",
          "name": "slot",
          "type": "bytes32"
        }
      ],
      "name": "UUPSUnsupportedProxiableUUID",
      "type": "error"
    },
    {
      "inputs": [
        {
          "internalType": "bytes32",
          "name": "nullifier",
          "type": "bytes32"
        }
      ],
      "name": "UsedNullifier",
      "type": "error"
    },
    {
      "anonymous": false,
      "inputs": [
        {
          "indexed": true,
          "internalType": "uint256",
          "name": "depositId",
          "type": "uint256"
        }
      ],
      "name": "DepositCanceled",
      "type": "event"
    },
    {
      "anonymous": false,
      "inputs": [
        {
          "indexed": true,
          "internalType": "uint32",
          "name": "depositIndex",
          "type": "uint32"
        },
        {
          "indexed": true,
          "internalType": "bytes32",
          "name": "depositHash",
          "type": "bytes32"
        }
      ],
      "name": "DepositLeafInserted",
      "type": "event"
    },
    {
      "anonymous": false,
      "inputs": [
        {
          "indexed": true,
          "internalType": "uint256",
          "name": "depositId",
          "type": "uint256"
        },
        {
          "indexed": true,
          "internalType": "address",
          "name": "sender",
          "type": "address"
        },
        {
          "indexed": true,
          "internalType": "bytes32",
          "name": "recipientSaltHash",
          "type": "bytes32"
        },
        {
          "indexed": false,
          "internalType": "uint32",
          "name": "tokenIndex",
          "type": "uint32"
        },
        {
          "indexed": false,
          "internalType": "uint256",
          "name": "amount",
          "type": "uint256"
        },
        {
          "indexed": false,
          "internalType": "uint256",
          "name": "depositedAt",
          "type": "uint256"
        }
      ],
      "name": "Deposited",
      "type": "event"
    },
    {
      "anonymous": false,
      "inputs": [
        {
          "indexed": true,
          "internalType": "uint256",
          "name": "upToDepositId",
          "type": "uint256"
        },
        {
          "indexed": false,
          "internalType": "uint256[]",
          "name": "rejectedIndices",
          "type": "uint256[]"
        },
        {
          "indexed": false,
          "internalType": "bytes32[]",
          "name": "depositHashes",
          "type": "bytes32[]"
        }
      ],
      "name": "DepositsAnalyzedAndProcessed",
      "type": "event"
    },
    {
      "anonymous": false,
      "inputs": [
        {
          "indexed": false,
          "internalType": "uint64",
          "name": "version",
          "type": "uint64"
        }
      ],
      "name": "Initialized",
      "type": "event"
    },
    {
      "anonymous": false,
      "inputs": [
        {
          "indexed": true,
          "internalType": "bytes32",
          "name": "role",
          "type": "bytes32"
        },
        {
          "indexed": true,
          "internalType": "bytes32",
          "name": "previousAdminRole",
          "type": "bytes32"
        },
        {
          "indexed": true,
          "internalType": "bytes32",
          "name": "newAdminRole",
          "type": "bytes32"
        }
      ],
      "name": "RoleAdminChanged",
      "type": "event"
    },
    {
      "anonymous": false,
      "inputs": [
        {
          "indexed": true,
          "internalType": "bytes32",
          "name": "role",
          "type": "bytes32"
        },
        {
          "indexed": true,
          "internalType": "address",
          "name": "account",
          "type": "address"
        },
        {
          "indexed": true,
          "internalType": "address",
          "name": "sender",
          "type": "address"
        }
      ],
      "name": "RoleGranted",
      "type": "event"
    },
    {
      "anonymous": false,
      "inputs": [
        {
          "indexed": true,
          "internalType": "bytes32",
          "name": "role",
          "type": "bytes32"
        },
        {
          "indexed": true,
          "internalType": "address",
          "name": "account",
          "type": "address"
        },
        {
          "indexed": true,
          "internalType": "address",
          "name": "sender",
          "type": "address"
        }
      ],
      "name": "RoleRevoked",
      "type": "event"
    },
    {
      "anonymous": false,
      "inputs": [
        {
          "indexed": true,
          "internalType": "address",
          "name": "implementation",
          "type": "address"
        }
      ],
      "name": "Upgraded",
      "type": "event"
    },
    {
      "anonymous": false,
      "inputs": [
        {
          "indexed": true,
          "internalType": "address",
          "name": "recipient",
          "type": "address"
        },
        {
          "indexed": true,
          "internalType": "bytes32",
          "name": "nullifier",
          "type": "bytes32"
        },
        {
          "indexed": false,
          "internalType": "uint32",
          "name": "tokenIndex",
          "type": "uint32"
        },
        {
          "indexed": false,
          "internalType": "uint256",
          "name": "amount",
          "type": "uint256"
        }
      ],
      "name": "Withdrawn",
      "type": "event"
    },
    {
      "inputs": [],
      "name": "ANALYZER",
      "outputs": [
        {
          "internalType": "bytes32",
          "name": "",
          "type": "bytes32"
        }
      ],
      "stateMutability": "view",
      "type": "function"
    },
    {
      "inputs": [],
      "name": "DEFAULT_ADMIN_ROLE",
      "outputs": [
        {
          "internalType": "bytes32",
          "name": "",
          "type": "bytes32"
        }
      ],
      "stateMutability": "view",
      "type": "function"
    },
    {
      "inputs": [],
      "name": "TX_BASE_GAS",
      "outputs": [
        {
          "internalType": "uint256",
          "name": "",
          "type": "uint256"
        }
      ],
      "stateMutability": "view",
      "type": "function"
    },
    {
      "inputs": [],
      "name": "TX_TRANSFER_GAS",
      "outputs": [
        {
          "internalType": "uint256",
          "name": "",
          "type": "uint256"
        }
      ],
      "stateMutability": "view",
      "type": "function"
    },
    {
      "inputs": [],
      "name": "UPGRADE_INTERFACE_VERSION",
      "outputs": [
        {
          "internalType": "string",
          "name": "",
          "type": "string"
        }
      ],
      "stateMutability": "view",
      "type": "function"
    },
    {
      "inputs": [],
      "name": "WITHDRAWER",
      "outputs": [
        {
          "internalType": "bytes32",
          "name": "",
          "type": "bytes32"
        }
      ],
      "stateMutability": "view",
      "type": "function"
    },
    {
      "inputs": [
        {
          "internalType": "uint256",
          "name": "upToDepositId",
          "type": "uint256"
        },
        {
          "internalType": "uint256[]",
          "name": "rejectDepositIds",
          "type": "uint256[]"
        }
      ],
      "name": "analyzeAndProcessDeposits",
      "outputs": [],
      "stateMutability": "nonpayable",
      "type": "function"
    },
    {
      "inputs": [
        {
          "internalType": "uint256",
          "name": "depositId",
          "type": "uint256"
        },
        {
          "components": [
            {
              "internalType": "bytes32",
              "name": "recipientSaltHash",
              "type": "bytes32"
            },
            {
              "internalType": "uint32",
              "name": "tokenIndex",
              "type": "uint32"
            },
            {
              "internalType": "uint256",
              "name": "amount",
              "type": "uint256"
            }
          ],
          "internalType": "struct DepositLib.Deposit",
          "name": "deposit",
          "type": "tuple"
        }
      ],
      "name": "cancelDeposit",
      "outputs": [],
      "stateMutability": "nonpayable",
      "type": "function"
    },
    {
      "inputs": [],
      "name": "depositIndex",
      "outputs": [
        {
          "internalType": "uint32",
          "name": "",
          "type": "uint32"
        }
      ],
      "stateMutability": "view",
      "type": "function"
    },
    {
      "inputs": [
        {
          "internalType": "bytes32",
          "name": "recipientSaltHash",
          "type": "bytes32"
        }
      ],
      "name": "depositNativeToken",
      "outputs": [],
      "stateMutability": "payable",
      "type": "function"
    },
    {
      "inputs": [
        {
          "internalType": "bytes32",
          "name": "",
          "type": "bytes32"
        }
      ],
      "name": "depositRoots",
      "outputs": [
        {
          "internalType": "uint256",
          "name": "",
          "type": "uint256"
        }
      ],
      "stateMutability": "view",
      "type": "function"
    },
    {
      "inputs": [
        {
          "internalType": "uint256",
          "name": "depositId",
          "type": "uint256"
        }
      ],
      "name": "getDepositData",
      "outputs": [
        {
          "components": [
            {
              "internalType": "bytes32",
              "name": "depositHash",
              "type": "bytes32"
            },
            {
              "internalType": "address",
              "name": "sender",
              "type": "address"
            },
            {
              "internalType": "bool",
              "name": "isRejected",
              "type": "bool"
            }
          ],
          "internalType": "struct DepositQueueLib.DepositData",
          "name": "",
          "type": "tuple"
        }
      ],
      "stateMutability": "view",
      "type": "function"
    },
    {
      "inputs": [
        {
          "internalType": "uint256[]",
          "name": "depositIds",
          "type": "uint256[]"
        }
      ],
      "name": "getDepositDataBatch",
      "outputs": [
        {
          "components": [
            {
              "internalType": "bytes32",
              "name": "depositHash",
              "type": "bytes32"
            },
            {
              "internalType": "address",
              "name": "sender",
              "type": "address"
            },
            {
              "internalType": "bool",
              "name": "isRejected",
              "type": "bool"
            }
          ],
          "internalType": "struct DepositQueueLib.DepositData[]",
          "name": "",
          "type": "tuple[]"
        }
      ],
      "stateMutability": "view",
      "type": "function"
    },
    {
      "inputs": [],
      "name": "getDepositRoot",
      "outputs": [
        {
          "internalType": "bytes32",
          "name": "",
          "type": "bytes32"
        }
      ],
      "stateMutability": "view",
      "type": "function"
    },
    {
      "inputs": [],
      "name": "getLastDepositId",
      "outputs": [
        {
          "internalType": "uint256",
          "name": "",
          "type": "uint256"
        }
      ],
      "stateMutability": "view",
      "type": "function"
    },
    {
      "inputs": [],
      "name": "getLastProcessedDepositId",
      "outputs": [
        {
          "internalType": "uint256",
          "name": "",
          "type": "uint256"
        }
      ],
      "stateMutability": "view",
      "type": "function"
    },
    {
      "inputs": [
        {
          "internalType": "bytes32",
          "name": "role",
          "type": "bytes32"
        }
      ],
      "name": "getRoleAdmin",
      "outputs": [
        {
          "internalType": "bytes32",
          "name": "",
          "type": "bytes32"
        }
      ],
      "stateMutability": "view",
      "type": "function"
    },
    {
      "inputs": [
        {
          "internalType": "bytes32",
          "name": "role",
          "type": "bytes32"
        },
        {
          "internalType": "address",
          "name": "account",
          "type": "address"
        }
      ],
      "name": "grantRole",
      "outputs": [],
      "stateMutability": "nonpayable",
      "type": "function"
    },
    {
      "inputs": [
        {
          "internalType": "bytes32",
          "name": "role",
          "type": "bytes32"
        },
        {
          "internalType": "address",
          "name": "account",
          "type": "address"
        }
      ],
      "name": "hasRole",
      "outputs": [
        {
          "internalType": "bool",
          "name": "",
          "type": "bool"
        }
      ],
      "stateMutability": "view",
      "type": "function"
    },
    {
      "inputs": [
        {
          "internalType": "address",
          "name": "withdrawalVerifier_",
          "type": "address"
        },
        {
          "internalType": "address",
          "name": "admin_",
          "type": "address"
        }
      ],
      "name": "initialize",
      "outputs": [],
      "stateMutability": "nonpayable",
      "type": "function"
    },
    {
      "inputs": [
        {
          "internalType": "bytes32",
          "name": "",
          "type": "bytes32"
        }
      ],
      "name": "nullifiers",
      "outputs": [
        {
          "internalType": "uint256",
          "name": "",
          "type": "uint256"
        }
      ],
      "stateMutability": "view",
      "type": "function"
    },
    {
      "inputs": [],
      "name": "proxiableUUID",
      "outputs": [
        {
          "internalType": "bytes32",
          "name": "",
          "type": "bytes32"
        }
      ],
      "stateMutability": "view",
      "type": "function"
    },
    {
      "inputs": [
        {
          "internalType": "bytes32",
          "name": "role",
          "type": "bytes32"
        },
        {
          "internalType": "address",
          "name": "callerConfirmation",
          "type": "address"
        }
      ],
      "name": "renounceRole",
      "outputs": [],
      "stateMutability": "nonpayable",
      "type": "function"
    },
    {
      "inputs": [
        {
          "internalType": "bytes32",
          "name": "role",
          "type": "bytes32"
        },
        {
          "internalType": "address",
          "name": "account",
          "type": "address"
        }
      ],
      "name": "revokeRole",
      "outputs": [],
      "stateMutability": "nonpayable",
      "type": "function"
    },
    {
      "inputs": [
        {
          "internalType": "address",
          "name": "verifier_",
          "type": "address"
        }
      ],
      "name": "setVerifier",
      "outputs": [],
      "stateMutability": "nonpayable",
      "type": "function"
    },
    {
      "inputs": [
        {
          "internalType": "bytes4",
          "name": "interfaceId",
          "type": "bytes4"
        }
      ],
      "name": "supportsInterface",
      "outputs": [
        {
          "internalType": "bool",
          "name": "",
          "type": "bool"
        }
      ],
      "stateMutability": "view",
      "type": "function"
    },
    {
      "inputs": [
        {
          "internalType": "address",
          "name": "newImplementation",
          "type": "address"
        },
        {
          "internalType": "bytes",
          "name": "data",
          "type": "bytes"
        }
      ],
      "name": "upgradeToAndCall",
      "outputs": [],
      "stateMutability": "payable",
      "type": "function"
    },
    {
      "inputs": [
        {
          "components": [
            {
              "internalType": "bytes32",
              "name": "depositRoot",
              "type": "bytes32"
            },
            {
              "internalType": "bytes32",
              "name": "nullifier",
              "type": "bytes32"
            },
            {
              "internalType": "address",
              "name": "recipient",
              "type": "address"
            },
            {
              "internalType": "uint32",
              "name": "tokenIndex",
              "type": "uint32"
            },
            {
              "internalType": "uint256",
              "name": "amount",
              "type": "uint256"
            }
          ],
          "internalType": "struct IInt1.WithdrawalPublicInputs",
          "name": "pis",
          "type": "tuple"
        },
        {
          "internalType": "bytes",
          "name": "proof",
          "type": "bytes"
        }
      ],
      "name": "verifyProof",
      "outputs": [
        {
          "internalType": "bool",
          "name": "",
          "type": "bool"
        }
      ],
      "stateMutability": "view",
      "type": "function"
    },
    {
      "inputs": [
        {
          "components": [
            {
              "internalType": "bytes32",
              "name": "depositRoot",
              "type": "bytes32"
            },
            {
              "internalType": "bytes32",
              "name": "nullifier",
              "type": "bytes32"
            },
            {
              "internalType": "address",
              "name": "recipient",
              "type": "address"
            },
            {
              "internalType": "uint32",
              "name": "tokenIndex",
              "type": "uint32"
            },
            {
              "internalType": "uint256",
              "name": "amount",
              "type": "uint256"
            }
          ],
          "internalType": "struct IInt1.WithdrawalPublicInputs",
          "name": "publicInputs",
          "type": "tuple"
        },
        {
          "internalType": "bytes",
          "name": "proof",
          "type": "bytes"
        }
      ],
      "name": "withdraw",
      "outputs": [],
      "stateMutability": "payable",
      "type": "function"
    },
    {
      "inputs": [],
      "name": "withdrawalVerifier",
      "outputs": [
        {
          "internalType": "contract IPlonkVerifier",
          "name": "",
          "type": "address"
        }
      ],
      "stateMutability": "view",
      "type": "function"
    }
  ],
  "bytecode": "0x60a06040523073ffffffffffffffffffffffffffffffffffffffff1660809073ffffffffffffffffffffffffffffffffffffffff16815250348015604257600080fd5b506080516143fe61006c60003960008181612081015281816120d6015261229701526143fe6000f3fe6080604052600436106101cd5760003560e01c806366941984116100f7578063c13819b611610095578063defe4d5b11610064578063defe4d5b14610672578063e09dfaa21461069b578063eff97cd2146106d8578063ffd5533214610715576101cd565b8063c13819b6146105b6578063d547741f146105f3578063dd4d4e891461061c578063dd9ea29914610647576101cd565b806391d14854116100d157806391d14854146104f85780639a33390614610535578063a217fddf14610560578063ad3cb1cc1461058b576101cd565b806366941984146104795780636ef5475b146104a45780637b898939146104cd576101cd565b80633310ea4f1161016f578063485cc9551161013e578063485cc955146103e05780634f1ef2861461040957806352d1902d146104255780635437988d14610450576101cd565b80633310ea4f1461034557806336568abe1461036157806337f9fe261461038a5780633ae05047146103b5576101cd565b8063248a9ca3116101ab578063248a9ca3146102775780632997e86b146102b45780632f2ff15d146102f15780632f7d39221461031a576101cd565b806301ffc9a7146101d25780630c0b59b91461020f578063232c1c8a1461023a575b600080fd5b3480156101de57600080fd5b506101f960048036038101906101f49190612f2c565b610731565b6040516102069190612f74565b60405180910390f35b34801561021b57600080fd5b506102246107ab565b6040516102319190612fa8565b60405180910390f35b34801561024657600080fd5b50610261600480360381019061025c9190613152565b6107cf565b60405161026e91906132eb565b60405180910390f35b34801561028357600080fd5b5061029e60048036038101906102999190613339565b610930565b6040516102ab9190612fa8565b60405180910390f35b3480156102c057600080fd5b506102db60048036038101906102d69190613339565b61095e565b6040516102e89190613375565b60405180910390f35b3480156102fd57600080fd5b50610318600480360381019061031391906133bc565b610976565b005b34801561032657600080fd5b5061032f610998565b60405161033c9190613375565b60405180910390f35b61035f600480360381019061035a9190613524565b61099e565b005b34801561036d57600080fd5b50610388600480360381019061038391906133bc565b610d3f565b005b34801561039657600080fd5b5061039f610dba565b6040516103ac91906135e3565b60405180910390f35b3480156103c157600080fd5b506103ca610dde565b6040516103d79190612fa8565b60405180910390f35b3480156103ec57600080fd5b50610407600480360381019061040291906135fe565b610e53565b005b610423600480360381019061041e91906136f3565b6110c1565b005b34801561043157600080fd5b5061043a6110e0565b6040516104479190612fa8565b60405180910390f35b34801561045c57600080fd5b506104776004803603810190610472919061374f565b611113565b005b34801561048557600080fd5b5061048e611164565b60405161049b9190612fa8565b60405180910390f35b3480156104b057600080fd5b506104cb60048036038101906104c691906137a0565b611188565b005b3480156104d957600080fd5b506104e26114f0565b6040516104ef91906137ef565b60405180910390f35b34801561050457600080fd5b5061051f600480360381019061051a91906133bc565b611506565b60405161052c9190612f74565b60405180910390f35b34801561054157600080fd5b5061054a61157f565b6040516105579190613375565b60405180910390f35b34801561056c57600080fd5b50610575611585565b6040516105829190612fa8565b60405180910390f35b34801561059757600080fd5b506105a061158c565b6040516105ad9190613889565b60405180910390f35b3480156105c257600080fd5b506105dd60048036038101906105d891906138ab565b6115c5565b6040516105ea919061391a565b60405180910390f35b3480156105ff57600080fd5b5061061a600480360381019061061591906133bc565b61167f565b005b34801561062857600080fd5b506106316116a1565b60405161063e9190613375565b60405180910390f35b34801561065357600080fd5b5061065c6116ba565b6040516106699190613375565b60405180910390f35b34801561067e57600080fd5b5061069960048036038101906106949190613935565b6116d3565b005b3480156106a757600080fd5b506106c260048036038101906106bd9190613339565b6118cb565b6040516106cf9190613375565b60405180910390f35b3480156106e457600080fd5b506106ff60048036038101906106fa9190613524565b6118e3565b60405161070c9190612f74565b60405180910390f35b61072f600480360381019061072a9190613339565b6119db565b005b60007f7965db0b000000000000000000000000000000000000000000000000000000007bffffffffffffffffffffffffffffffffffffffffffffffffffffffff1916827bffffffffffffffffffffffffffffffffffffffffffffffffffffffff191614806107a457506107a382611b4b565b5b9050919050565b7fe5002bd16ffc71462a6c1c19eaf55e254c97864c770378b6f68c1a085231514a81565b60606000825167ffffffffffffffff8111156107ee576107ed612fd9565b5b60405190808252806020026020018201604052801561082757816020015b610814612e84565b81526020019060019003908161080c5790505b50905060005b835181101561092657602360000184828151811061084e5761084d613991565b5b60200260200101518154811061086757610866613991565b5b9060005260206000209060020201604051806060016040529081600082015481526020016001820160009054906101000a900473ffffffffffffffffffffffffffffffffffffffff1673ffffffffffffffffffffffffffffffffffffffff1673ffffffffffffffffffffffffffffffffffffffff1681526020016001820160149054906101000a900460ff16151515158152505082828151811061090e5761090d613991565b5b6020026020010181905250808060010191505061082d565b5080915050919050565b60008061093b611bb5565b905080600001600084815260200190815260200160002060010154915050919050565b60276020528060005260406000206000915090505481565b61097f82610930565b61098881611bdd565b6109928383611bf1565b50505050565b61520881565b60005a9050600060266000866000015181526020019081526020016000205403610a035783600001516040517f1497ae930000000000000000000000000000000000000000000000000000000081526004016109fa9190612fa8565b60405180910390fd5b600060276000866020015181526020019081526020016000205414610a635783602001516040517f3d39a253000000000000000000000000000000000000000000000000000000008152600401610a5a9190612fa8565b60405180910390fd5b610a6e8484846118e3565b610aa4576040517f09bde33900000000000000000000000000000000000000000000000000000000815260040160405180910390fd5b6000846060015163ffffffff1614610ae8576040517f609f982f00000000000000000000000000000000000000000000000000000000815260040160405180910390fd5b426027600086602001518152602001908152602001600020819055508360200151846040015173ffffffffffffffffffffffffffffffffffffffff167f38cde577523eac700ac823c90961f96de39cbc1d0b288ca592f5e9c7b67d7d7386606001518760800151604051610b5d9291906139c0565b60405180910390a3610b967f779b9d7b1cefd23059ce3e2b194efb3183a6685dd830e8cbb723b0cbeb982b28610b91611cf2565b611506565b15610cde5760003a5a836108fc6002610baf9190613a18565b615208610bbc9190613a5a565b610bc69190613a5a565b610bd09190613a8e565b610bda9190613a18565b9050348560800151610bec9190613a5a565b811115610c25576040517fb257743000000000000000000000000000000000000000000000000000000000815260040160405180910390fd5b846040015173ffffffffffffffffffffffffffffffffffffffff166108fc82348860800151610c549190613a5a565b610c5e9190613a8e565b9081150290604051600060405180830381858888f19350505050158015610c89573d6000803e3d6000fd5b50610c92611cf2565b73ffffffffffffffffffffffffffffffffffffffff166108fc829081150290604051600060405180830381858888f19350505050158015610cd7573d6000803e3d6000fd5b5050610d39565b836040015173ffffffffffffffffffffffffffffffffffffffff166108fc348660800151610d0c9190613a5a565b9081150290604051600060405180830381858888f19350505050158015610d37573d6000803e3d6000fd5b505b50505050565b610d47611cf2565b73ffffffffffffffffffffffffffffffffffffffff168173ffffffffffffffffffffffffffffffffffffffff1614610dab576040517f6697b23200000000000000000000000000000000000000000000000000000000815260040160405180910390fd5b610db58282611cfa565b505050565b60008054906101000a900473ffffffffffffffffffffffffffffffffffffffff1681565b6000610e4e600160405180606001604052908160008201602080602002604051908101604052809291908260208015610e2c576020028201915b815481526020019060010190808311610e18575b5050505050815260200160208201548152602001602182015481525050611dfc565b905090565b6000610e5d611eec565b905060008160000160089054906101000a900460ff1615905060008260000160009054906101000a900467ffffffffffffffff1690506000808267ffffffffffffffff16148015610eab5750825b9050600060018367ffffffffffffffff16148015610ee0575060003073ffffffffffffffffffffffffffffffffffffffff163b145b905081158015610eee575080155b15610f25576040517ff92ee8a900000000000000000000000000000000000000000000000000000000815260040160405180910390fd5b60018560000160006101000a81548167ffffffffffffffff021916908367ffffffffffffffff1602179055508315610f755760018560000160086101000a81548160ff0219169083151502179055505b866000806101000a81548173ffffffffffffffffffffffffffffffffffffffff021916908373ffffffffffffffffffffffffffffffffffffffff160217905550610fbf6001611f14565b610fc96023611f90565b426026600061103c60016040518060600160405290816000820160208060200260405190810160405280929190826020801561101a576020028201915b815481526020019060010190808311611006575b5050505050815260200160208201548152602001602182015481525050611dfc565b81526020019081526020016000208190555061105b6000801b87611bf1565b5083156110b85760008560000160086101000a81548160ff0219169083151502179055507fc7f505b2f371ae2175ee4913f4499e1f2633a7b5936321eed1cdaeb6115181d260016040516110af9190613b11565b60405180910390a15b50505050505050565b6110c961207f565b6110d282612165565b6110dc8282612176565b5050565b60006110ea612295565b7f360894a13ba1a3210667c828492db98dca3e2076cc3735a920a3ca505d382bbc60001b905090565b6000801b61112081611bdd565b816000806101000a81548173ffffffffffffffffffffffffffffffffffffffff021916908373ffffffffffffffffffffffffffffffffffffffff1602179055505050565b7f779b9d7b1cefd23059ce3e2b194efb3183a6685dd830e8cbb723b0cbeb982b2881565b818180360381019061119a9190613b90565b6000602360000183815481106111b3576111b2613991565b5b9060005260206000209060020201604051806060016040529081600082015481526020016001820160009054906101000a900473ffffffffffffffffffffffffffffffffffffffff1673ffffffffffffffffffffffffffffffffffffffff1673ffffffffffffffffffffffffffffffffffffffff1681526020016001820160149054906101000a900460ff1615151515815250509050611251611cf2565b73ffffffffffffffffffffffffffffffffffffffff16816020015173ffffffffffffffffffffffffffffffffffffffff16146112b9576040517f8b2ea0f800000000000000000000000000000000000000000000000000000000815260040160405180910390fd5b60006112c48361231c565b905080826000015114611314578160000151816040517f7be225b600000000000000000000000000000000000000000000000000000000815260040161130b929190613bbd565b60405180910390fd5b61131c6116a1565b841161136557600015158260400151151503611364576040517f643710d400000000000000000000000000000000000000000000000000000000815260040160405180910390fd5b5b600061137b87602361235c90919063ffffffff16565b9050611385611cf2565b73ffffffffffffffffffffffffffffffffffffffff16816020015173ffffffffffffffffffffffffffffffffffffffff16146113ed576040517f8b2ea0f800000000000000000000000000000000000000000000000000000000815260040160405180910390fd5b611406868036038101906114019190613b90565b61231c565b81600001511461146b57806000015161142e878036038101906114299190613b90565b61231c565b6040517f7be225b6000000000000000000000000000000000000000000000000000000008152600401611462929190613bbd565b60405180910390fd5b806020015173ffffffffffffffffffffffffffffffffffffffff166108fc87604001359081150290604051600060405180830381858888f193505050501580156114b9573d6000803e3d6000fd5b50867f0c1c0787650562778c282502dfd6dcea2fb79d23783920aa18aee36b4aa3dc4860405160405180910390a250505050505050565b600060149054906101000a900463ffffffff1681565b600080611511611bb5565b905080600001600085815260200190815260200160002060000160008473ffffffffffffffffffffffffffffffffffffffff1673ffffffffffffffffffffffffffffffffffffffff16815260200190815260200160002060009054906101000a900460ff1691505092915050565b6108fc81565b6000801b81565b6040518060400160405280600581526020017f352e302e3000000000000000000000000000000000000000000000000000000081525081565b6115cd612e84565b602360000182815481106115e4576115e3613991565b5b9060005260206000209060020201604051806060016040529081600082015481526020016001820160009054906101000a900473ffffffffffffffffffffffffffffffffffffffff1673ffffffffffffffffffffffffffffffffffffffff1673ffffffffffffffffffffffffffffffffffffffff1681526020016001820160149054906101000a900460ff1615151515815250509050919050565b61168882610930565b61169181611bdd565b61169b8383611cfa565b50505050565b600060016023600101546116b59190613a8e565b905090565b600060016023600201546116ce9190613a8e565b905090565b7fe5002bd16ffc71462a6c1c19eaf55e254c97864c770378b6f68c1a085231514a6116fd81611bdd565b6000611715848460236124809092919063ffffffff16565b905060005b81518110156117ff5761175182828151811061173957611738613991565b5b6020026020010151600161283b90919063ffffffff16565b81818151811061176457611763613991565b5b6020026020010151600060149054906101000a900463ffffffff1663ffffffff167f529a1f0fdd7142aabe2b12dd8590a30a26c8427b5200ad8c775a5b4aa03fb41d60405160405180910390a36000601481819054906101000a900463ffffffff16809291906117d390613be6565b91906101000a81548163ffffffff021916908363ffffffff16021790555050808060010191505061171a565b50600061187060016040518060600160405290816000820160208060200260405190810160405280929190826020801561184e576020028201915b81548152602001906001019080831161183a575b5050505050815260200160208201548152602001602182015481525050611dfc565b9050426026600083815260200190815260200160002081905550847ff18887951e0128c56f80fe285e446cc180799fea48be52617a5b00d742ccd7cc85846040516118bc929190613d7f565b60405180910390a25050505050565b60266020528060005260406000206000915090505481565b60008084600001518560200151866040015187606001518860800151604051602001611913959493929190613e76565b60405160208183030381529060405280519060200120905060008054906101000a900473ffffffffffffffffffffffffffffffffffffffff1673ffffffffffffffffffffffffffffffffffffffff16637e4f7a8a858561197285612954565b6040518463ffffffff1660e01b815260040161199093929190613f13565b602060405180830381865afa1580156119ad573d6000803e3d6000fd5b505050506040513d601f19601f820116820180604052508101906119d19190613f78565b9150509392505050565b806028600082815260200190815260200160002060009054906101000a900460ff1615611a34576040517f1e5bb9fc00000000000000000000000000000000000000000000000000000000815260040160405180910390fd5b60003403611a6e576040517f94fe88d900000000000000000000000000000000000000000000000000000000815260040160405180910390fd5b60016028600084815260200190815260200160002060006101000a81548160ff0219169083151502179055506000611ac66040518060600160405280858152602001600063ffffffff1681526020013481525061231c565b90506000611ae782611ad6611cf2565b60236129ff9092919063ffffffff16565b905083611af2611cf2565b73ffffffffffffffffffffffffffffffffffffffff16827f1e88950eef3c1bd8dd83d765aec1f21f34ca153104f0acd7a6218bf8f48e841060003442604051611b3d93929190613fe0565b60405180910390a450505050565b60007f01ffc9a7000000000000000000000000000000000000000000000000000000007bffffffffffffffffffffffffffffffffffffffffffffffffffffffff1916827bffffffffffffffffffffffffffffffffffffffffffffffffffffffff1916149050919050565b60007f02dd7bc7dec4dceedda775e58dd541e08a116c6c53815c0bd028192f7b626800905090565b611bee81611be9611cf2565b612afd565b50565b600080611bfc611bb5565b9050611c088484611506565b611ce657600181600001600086815260200190815260200160002060000160008573ffffffffffffffffffffffffffffffffffffffff1673ffffffffffffffffffffffffffffffffffffffff16815260200190815260200160002060006101000a81548160ff021916908315150217905550611c82611cf2565b73ffffffffffffffffffffffffffffffffffffffff168373ffffffffffffffffffffffffffffffffffffffff16857f2f8788117e7eff1d82e926ec794901d17c78024a50270940304540a733656f0d60405160405180910390a46001915050611cec565b60009150505b92915050565b600033905090565b600080611d05611bb5565b9050611d118484611506565b15611df057600081600001600086815260200190815260200160002060000160008573ffffffffffffffffffffffffffffffffffffffff1673ffffffffffffffffffffffffffffffffffffffff16815260200190815260200160002060006101000a81548160ff021916908315150217905550611d8c611cf2565b73ffffffffffffffffffffffffffffffffffffffff168373ffffffffffffffffffffffffffffffffffffffff16857ff6391f5c32d9c69d2a47ea670b442974b53935d1edc7fd64eb21e047a839171b60405160405180910390a46001915050611df6565b60009150505b92915050565b6000808260400151905060008360200151905060008460400151905060005b6020811015611ee0576001808285901c1603611e7c5785600001518160208110611e4857611e47613991565b5b602002015184604051602001611e5f929190614017565b604051602081830303815290604052805190602001209350611ea8565b8382604051602001611e8f929190614017565b6040516020818303038152906040528051906020012093505b8182604051602001611ebb929190614017565b6040516020818303038152906040528051906020012091508080600101915050611e1b565b50829350505050919050565b60007ff0c57e16840df040f15088dc2f81fe391c3923bec73e23a9662efc9c229c6a00905090565b60008160200181905550611f4c60405180606001604052806000801b8152602001600063ffffffff168152602001600081525061231c565b816021018190555060005b6020811015611f8c576000801b826000018260208110611f7a57611f79613991565b5b01819055508080600101915050611f57565b5050565b8060000160405180606001604052806000801b8152602001600073ffffffffffffffffffffffffffffffffffffffff1681526020016000151581525090806001815401808255809150506001900390600052602060002090600202016000909190919091506000820151816000015560208201518160010160006101000a81548173ffffffffffffffffffffffffffffffffffffffff021916908373ffffffffffffffffffffffffffffffffffffffff16021790555060408201518160010160146101000a81548160ff0219169083151502179055505050600181600101819055506001816002018190555050565b7f000000000000000000000000000000000000000000000000000000000000000073ffffffffffffffffffffffffffffffffffffffff163073ffffffffffffffffffffffffffffffffffffffff16148061212c57507f000000000000000000000000000000000000000000000000000000000000000073ffffffffffffffffffffffffffffffffffffffff16612113612b4e565b73ffffffffffffffffffffffffffffffffffffffff1614155b15612163576040517fe07c8dba00000000000000000000000000000000000000000000000000000000815260040160405180910390fd5b565b6000801b61217281611bdd565b5050565b8173ffffffffffffffffffffffffffffffffffffffff166352d1902d6040518163ffffffff1660e01b8152600401602060405180830381865afa9250505080156121de57506040513d601f19601f820116820180604052508101906121db9190614058565b60015b61221f57816040517f4c9c8ce30000000000000000000000000000000000000000000000000000000081526004016122169190614094565b60405180910390fd5b7f360894a13ba1a3210667c828492db98dca3e2076cc3735a920a3ca505d382bbc60001b811461228657806040517faa1d49a400000000000000000000000000000000000000000000000000000000815260040161227d9190612fa8565b60405180910390fd5b6122908383612ba5565b505050565b7f000000000000000000000000000000000000000000000000000000000000000073ffffffffffffffffffffffffffffffffffffffff163073ffffffffffffffffffffffffffffffffffffffff161461231a576040517fe07c8dba00000000000000000000000000000000000000000000000000000000815260040160405180910390fd5b565b600081600001518260200151836040015160405160200161233f939291906140af565b604051602081830303815290604052805190602001209050919050565b612364612e84565b82600001828154811061237a57612379613991565b5b9060005260206000209060020201604051806060016040529081600082015481526020016001820160009054906101000a900473ffffffffffffffffffffffffffffffffffffffff1673ffffffffffffffffffffffffffffffffffffffff1673ffffffffffffffffffffffffffffffffffffffff1681526020016001820160149054906101000a900460ff161515151581525050905082600001828154811061242657612425613991565b5b90600052602060002090600202016000808201600090556001820160006101000a81549073ffffffffffffffffffffffffffffffffffffffff02191690556001820160146101000a81549060ff0219169055505092915050565b6060836002015483106124dc57826001856002015461249f9190613a8e565b6040517f091724e10000000000000000000000000000000000000000000000000000000081526004016124d39291906140ec565b60405180910390fd5b60005b82518110156125b05760008382815181106124fd576124fc613991565b5b60200260200101519050848111806125185750856001015481105b1561256257808660010154866040517f9e16c3b900000000000000000000000000000000000000000000000000000000815260040161255993929190614115565b60405180910390fd5b600186600001828154811061257a57612579613991565b5b906000526020600020906002020160010160146101000a81548160ff0219169083151502179055505080806001019150506124df565b50600080856001015490505b84811161269a57600073ffffffffffffffffffffffffffffffffffffffff168660000182815481106125f1576125f0613991565b5b906000526020600020906002020160010160009054906101000a900473ffffffffffffffffffffffffffffffffffffffff1673ffffffffffffffffffffffffffffffffffffffff1603156126875785600001818154811061265557612654613991565b5b906000526020600020906002020160010160149054906101000a900460ff166126875781806126839061414c565b9250505b80806126929061414c565b9150506125bc565b5060008167ffffffffffffffff8111156126b7576126b6612fd9565b5b6040519080825280602002602001820160405280156126e55781602001602082028036833780820191505090505b509050600080876001015490505b86811161281857600073ffffffffffffffffffffffffffffffffffffffff1688600001828154811061272857612727613991565b5b906000526020600020906002020160010160009054906101000a900473ffffffffffffffffffffffffffffffffffffffff1673ffffffffffffffffffffffffffffffffffffffff1603156128055787600001818154811061278c5761278b613991565b5b906000526020600020906002020160010160149054906101000a900460ff16612805578760000181815481106127c5576127c4613991565b5b9060005260206000209060020201600001548383815181106127ea576127e9613991565b5b60200260200101818152505081806128019061414c565b9250505b80806128109061414c565b9150506126f3565b506001866128269190613a5a565b87600101819055508193505050509392505050565b600081905060016020600261285091906142c7565b61285a9190613a8e565b836020015410612896576040517fef5ccf6600000000000000000000000000000000000000000000000000000000815260040160405180910390fd5b600083602001600081546128a99061414c565b919050819055905060005b602081101561293d576001808284901c16036128ee57828560000182602081106128e1576128e0613991565b5b0181905550505050612950565b84600001816020811061290457612903613991565b5b015483604051602001612918929190614017565b60405160208183030381529060405280519060200120925080806001019150506128b4565b50600061294d5761294c614312565b5b50505b5050565b60606000600867ffffffffffffffff81111561297357612972612fd9565b5b6040519080825280602002602001820160405280156129a15781602001602082028036833780820191505090505b50905060005b60088110156129f5576020816129bd9190613a18565b84901b60e01c63ffffffff168282815181106129dc576129db613991565b5b60200260200101818152505080806001019150506129a7565b5080915050919050565b60008360000160405180606001604052808581526020018473ffffffffffffffffffffffffffffffffffffffff1681526020016000151581525090806001815401808255809150506001900390600052602060002090600202016000909190919091506000820151816000015560208201518160010160006101000a81548173ffffffffffffffffffffffffffffffffffffffff021916908373ffffffffffffffffffffffffffffffffffffffff16021790555060408201518160010160146101000a81548160ff021916908315150217905550505083600201549050836002016000815480929190612af19061414c565b91905055509392505050565b612b078282611506565b612b4a5780826040517fe2517d3f000000000000000000000000000000000000000000000000000000008152600401612b41929190614341565b60405180910390fd5b5050565b6000612b7c7f360894a13ba1a3210667c828492db98dca3e2076cc3735a920a3ca505d382bbc60001b612c18565b60000160009054906101000a900473ffffffffffffffffffffffffffffffffffffffff16905090565b612bae82612c22565b8173ffffffffffffffffffffffffffffffffffffffff167fbc7cd75a20ee27fd9adebab32041f755214dbc6bffa90cc0225b39da2e5c2d3b60405160405180910390a2600081511115612c0b57612c058282612cef565b50612c14565b612c13612d73565b5b5050565b6000819050919050565b60008173ffffffffffffffffffffffffffffffffffffffff163b03612c7e57806040517f4c9c8ce3000000000000000000000000000000000000000000000000000000008152600401612c759190614094565b60405180910390fd5b80612cab7f360894a13ba1a3210667c828492db98dca3e2076cc3735a920a3ca505d382bbc60001b612c18565b60000160006101000a81548173ffffffffffffffffffffffffffffffffffffffff021916908373ffffffffffffffffffffffffffffffffffffffff16021790555050565b60606000808473ffffffffffffffffffffffffffffffffffffffff1684604051612d1991906143b1565b600060405180830381855af49150503d8060008114612d54576040519150601f19603f3d011682016040523d82523d6000602084013e612d59565b606091505b5091509150612d69858383612db0565b9250505092915050565b6000341115612dae576040517fb398979f00000000000000000000000000000000000000000000000000000000815260040160405180910390fd5b565b606082612dc557612dc082612e3f565b612e37565b60008251148015612ded575060008473ffffffffffffffffffffffffffffffffffffffff163b145b15612e2f57836040517f9996b315000000000000000000000000000000000000000000000000000000008152600401612e269190614094565b60405180910390fd5b819050612e38565b5b9392505050565b600081511115612e525780518082602001fd5b6040517f1425ea4200000000000000000000000000000000000000000000000000000000815260040160405180910390fd5b604051806060016040528060008019168152602001600073ffffffffffffffffffffffffffffffffffffffff1681526020016000151581525090565b6000604051905090565b600080fd5b600080fd5b60007fffffffff0000000000000000000000000000000000000000000000000000000082169050919050565b612f0981612ed4565b8114612f1457600080fd5b50565b600081359050612f2681612f00565b92915050565b600060208284031215612f4257612f41612eca565b5b6000612f5084828501612f17565b91505092915050565b60008115159050919050565b612f6e81612f59565b82525050565b6000602082019050612f896000830184612f65565b92915050565b6000819050919050565b612fa281612f8f565b82525050565b6000602082019050612fbd6000830184612f99565b92915050565b600080fd5b6000601f19601f8301169050919050565b7f4e487b7100000000000000000000000000000000000000000000000000000000600052604160045260246000fd5b61301182612fc8565b810181811067ffffffffffffffff821117156130305761302f612fd9565b5b80604052505050565b6000613043612ec0565b905061304f8282613008565b919050565b600067ffffffffffffffff82111561306f5761306e612fd9565b5b602082029050602081019050919050565b600080fd5b6000819050919050565b61309881613085565b81146130a357600080fd5b50565b6000813590506130b58161308f565b92915050565b60006130ce6130c984613054565b613039565b905080838252602082019050602084028301858111156130f1576130f0613080565b5b835b8181101561311a578061310688826130a6565b8452602084019350506020810190506130f3565b5050509392505050565b600082601f83011261313957613138612fc3565b5b81356131498482602086016130bb565b91505092915050565b60006020828403121561316857613167612eca565b5b600082013567ffffffffffffffff81111561318657613185612ecf565b5b61319284828501613124565b91505092915050565b600081519050919050565b600082825260208201905092915050565b6000819050602082019050919050565b6131d081612f8f565b82525050565b600073ffffffffffffffffffffffffffffffffffffffff82169050919050565b6000613201826131d6565b9050919050565b613211816131f6565b82525050565b61322081612f59565b82525050565b60608201600082015161323c60008501826131c7565b50602082015161324f6020850182613208565b5060408201516132626040850182613217565b50505050565b60006132748383613226565b60608301905092915050565b6000602082019050919050565b60006132988261319b565b6132a281856131a6565b93506132ad836131b7565b8060005b838110156132de5781516132c58882613268565b97506132d083613280565b9250506001810190506132b1565b5085935050505092915050565b60006020820190508181036000830152613305818461328d565b905092915050565b61331681612f8f565b811461332157600080fd5b50565b6000813590506133338161330d565b92915050565b60006020828403121561334f5761334e612eca565b5b600061335d84828501613324565b91505092915050565b61336f81613085565b82525050565b600060208201905061338a6000830184613366565b92915050565b613399816131f6565b81146133a457600080fd5b50565b6000813590506133b681613390565b92915050565b600080604083850312156133d3576133d2612eca565b5b60006133e185828601613324565b92505060206133f2858286016133a7565b9150509250929050565b600080fd5b600063ffffffff82169050919050565b61341a81613401565b811461342557600080fd5b50565b60008135905061343781613411565b92915050565b600060a08284031215613453576134526133fc565b5b61345d60a0613039565b9050600061346d84828501613324565b600083015250602061348184828501613324565b6020830152506040613495848285016133a7565b60408301525060606134a984828501613428565b60608301525060806134bd848285016130a6565b60808301525092915050565b600080fd5b60008083601f8401126134e4576134e3612fc3565b5b8235905067ffffffffffffffff811115613501576135006134c9565b5b60208301915083600182028301111561351d5761351c613080565b5b9250929050565b600080600060c0848603121561353d5761353c612eca565b5b600061354b8682870161343d565b93505060a084013567ffffffffffffffff81111561356c5761356b612ecf565b5b613578868287016134ce565b92509250509250925092565b6000819050919050565b60006135a96135a461359f846131d6565b613584565b6131d6565b9050919050565b60006135bb8261358e565b9050919050565b60006135cd826135b0565b9050919050565b6135dd816135c2565b82525050565b60006020820190506135f860008301846135d4565b92915050565b6000806040838503121561361557613614612eca565b5b6000613623858286016133a7565b9250506020613634858286016133a7565b9150509250929050565b600080fd5b600067ffffffffffffffff82111561365e5761365d612fd9565b5b61366782612fc8565b9050602081019050919050565b82818337600083830152505050565b600061369661369184613643565b613039565b9050828152602081018484840111156136b2576136b161363e565b5b6136bd848285613674565b509392505050565b600082601f8301126136da576136d9612fc3565b5b81356136ea848260208601613683565b91505092915050565b6000806040838503121561370a57613709612eca565b5b6000613718858286016133a7565b925050602083013567ffffffffffffffff81111561373957613738612ecf565b5b613745858286016136c5565b9150509250929050565b60006020828403121561376557613764612eca565b5b6000613773848285016133a7565b91505092915050565b600080fd5b6000606082840312156137975761379661377c565b5b81905092915050565b600080608083850312156137b7576137b6612eca565b5b60006137c5858286016130a6565b92505060206137d685828601613781565b9150509250929050565b6137e981613401565b82525050565b600060208201905061380460008301846137e0565b92915050565b600081519050919050565b600082825260208201905092915050565b60005b83811015613844578082015181840152602081019050613829565b60008484015250505050565b600061385b8261380a565b6138658185613815565b9350613875818560208601613826565b61387e81612fc8565b840191505092915050565b600060208201905081810360008301526138a38184613850565b905092915050565b6000602082840312156138c1576138c0612eca565b5b60006138cf848285016130a6565b91505092915050565b6060820160008201516138ee60008501826131c7565b5060208201516139016020850182613208565b5060408201516139146040850182613217565b50505050565b600060608201905061392f60008301846138d8565b92915050565b6000806040838503121561394c5761394b612eca565b5b600061395a858286016130a6565b925050602083013567ffffffffffffffff81111561397b5761397a612ecf565b5b61398785828601613124565b9150509250929050565b7f4e487b7100000000000000000000000000000000000000000000000000000000600052603260045260246000fd5b60006040820190506139d560008301856137e0565b6139e26020830184613366565b9392505050565b7f4e487b7100000000000000000000000000000000000000000000000000000000600052601160045260246000fd5b6000613a2382613085565b9150613a2e83613085565b9250828202613a3c81613085565b91508282048414831517613a5357613a526139e9565b5b5092915050565b6000613a6582613085565b9150613a7083613085565b9250828201905080821115613a8857613a876139e9565b5b92915050565b6000613a9982613085565b9150613aa483613085565b9250828203905081811115613abc57613abb6139e9565b5b92915050565b6000819050919050565b600067ffffffffffffffff82169050919050565b6000613afb613af6613af184613ac2565b613584565b613acc565b9050919050565b613b0b81613ae0565b82525050565b6000602082019050613b266000830184613b02565b92915050565b600060608284031215613b4257613b416133fc565b5b613b4c6060613039565b90506000613b5c84828501613324565b6000830152506020613b7084828501613428565b6020830152506040613b84848285016130a6565b60408301525092915050565b600060608284031215613ba657613ba5612eca565b5b6000613bb484828501613b2c565b91505092915050565b6000604082019050613bd26000830185612f99565b613bdf6020830184612f99565b9392505050565b6000613bf182613401565b915063ffffffff8203613c0757613c066139e9565b5b600182019050919050565b600081519050919050565b600082825260208201905092915050565b6000819050602082019050919050565b613c4781613085565b82525050565b6000613c598383613c3e565b60208301905092915050565b6000602082019050919050565b6000613c7d82613c12565b613c878185613c1d565b9350613c9283613c2e565b8060005b83811015613cc3578151613caa8882613c4d565b9750613cb583613c65565b925050600181019050613c96565b5085935050505092915050565b600081519050919050565b600082825260208201905092915050565b6000819050602082019050919050565b6000613d0883836131c7565b60208301905092915050565b6000602082019050919050565b6000613d2c82613cd0565b613d368185613cdb565b9350613d4183613cec565b8060005b83811015613d72578151613d598882613cfc565b9750613d6483613d14565b925050600181019050613d45565b5085935050505092915050565b60006040820190508181036000830152613d998185613c72565b90508181036020830152613dad8184613d21565b90509392505050565b6000819050919050565b613dd1613dcc82612f8f565b613db6565b82525050565b60008160601b9050919050565b6000613def82613dd7565b9050919050565b6000613e0182613de4565b9050919050565b613e19613e14826131f6565b613df6565b82525050565b60008160e01b9050919050565b6000613e3782613e1f565b9050919050565b613e4f613e4a82613401565b613e2c565b82525050565b6000819050919050565b613e70613e6b82613085565b613e55565b82525050565b6000613e828288613dc0565b602082019150613e928287613dc0565b602082019150613ea28286613e08565b601482019150613eb28285613e3e565b600482019150613ec28284613e5f565b6020820191508190509695505050505050565b600082825260208201905092915050565b6000613ef28385613ed5565b9350613eff838584613674565b613f0883612fc8565b840190509392505050565b60006040820190508181036000830152613f2e818587613ee6565b90508181036020830152613f428184613c72565b9050949350505050565b613f5581612f59565b8114613f6057600080fd5b50565b600081519050613f7281613f4c565b92915050565b600060208284031215613f8e57613f8d612eca565b5b6000613f9c84828501613f63565b91505092915050565b6000819050919050565b6000613fca613fc5613fc084613fa5565b613584565b613401565b9050919050565b613fda81613faf565b82525050565b6000606082019050613ff56000830186613fd1565b6140026020830185613366565b61400f6040830184613366565b949350505050565b60006140238285613dc0565b6020820191506140338284613dc0565b6020820191508190509392505050565b6000815190506140528161330d565b92915050565b60006020828403121561406e5761406d612eca565b5b600061407c84828501614043565b91505092915050565b61408e816131f6565b82525050565b60006020820190506140a96000830184614085565b92915050565b60006140bb8286613dc0565b6020820191506140cb8285613e3e565b6004820191506140db8284613e5f565b602082019150819050949350505050565b60006040820190506141016000830185613366565b61410e6020830184613366565b9392505050565b600060608201905061412a6000830186613366565b6141376020830185613366565b6141446040830184613366565b949350505050565b600061415782613085565b91507fffffffffffffffffffffffffffffffffffffffffffffffffffffffffffffffff8203614189576141886139e9565b5b600182019050919050565b60008160011c9050919050565b6000808291508390505b60018511156141eb578086048111156141c7576141c66139e9565b5b60018516156141d65780820291505b80810290506141e485614194565b94506141ab565b94509492505050565b60008261420457600190506142c0565b8161421257600090506142c0565b8160018114614228576002811461423257614261565b60019150506142c0565b60ff841115614244576142436139e9565b5b8360020a91508482111561425b5761425a6139e9565b5b506142c0565b5060208310610133831016604e8410600b84101617156142965782820a905083811115614291576142906139e9565b5b6142c0565b6142a384848460016141a1565b925090508184048111156142ba576142b96139e9565b5b81810290505b9392505050565b60006142d282613085565b91506142dd83613085565b925061430a7fffffffffffffffffffffffffffffffffffffffffffffffffffffffffffffffff84846141f4565b905092915050565b7f4e487b7100000000000000000000000000000000000000000000000000000000600052600160045260246000fd5b60006040820190506143566000830185614085565b6143636020830184612f99565b9392505050565b600081519050919050565b600081905092915050565b600061438b8261436a565b6143958185614375565b93506143a5818560208601613826565b80840191505092915050565b60006143bd8284614380565b91508190509291505056fea2646970667358221220f1981296b47ed67b2f5249e9b4909922ff27f5bc5e783d6be3a38f740f618c1864736f6c634300081b0033",
  "linkReferences": {},
  "deployedLinkReferences": {}
}