{
  "_format": "hh-sol-artifact-1",
  "contractName": "MinterV1L",
  "sourceName": "contracts/int1/minterV1/layer2/MinterV1L.sol",
  "abi": [
    {
      "inputs": [],
      "name": "AccessControlBadConfirmation",
      "type": "error"
    },
    {
      "inputs": [
        {
          "internalType": "address",
          "name": "account",
          "type": "address"
        },
        {
          "internalType": "bytes32",
          "name": "neededRole",
          "type": "bytes32"
        }
      ],
      "name": "AccessControlUnauthorizedAccount",
      "type": "error"
    },
    {
      "inputs": [
        {
          "internalType": "address",
          "name": "target",
          "type": "address"
        }
      ],
      "name": "AddressEmptyCode",
      "type": "error"
    },
    {
      "inputs": [
        {
          "internalType": "address",
          "name": "implementation",
          "type": "address"
        }
      ],
      "name": "ERC1967InvalidImplementation",
      "type": "error"
    },
    {
      "inputs": [],
      "name": "ERC1967NonPayable",
      "type": "error"
    },
    {
      "inputs": [
        {
          "internalType": "bytes32",
          "name": "given",
          "type": "bytes32"
        },
        {
          "internalType": "bytes32",
          "name": "expected",
          "type": "bytes32"
        }
      ],
      "name": "EligibleTreeRootMismatch",
      "type": "error"
    },
    {
      "inputs": [],
      "name": "FailedInnerCall",
      "type": "error"
    },
    {
      "inputs": [
        {
          "internalType": "bytes32",
          "name": "depositTreeRoot",
          "type": "bytes32"
        }
      ],
      "name": "InvalidDepositTreeRoot",
      "type": "error"
    },
    {
      "inputs": [],
      "name": "InvalidInitialization",
      "type": "error"
    },
    {
      "inputs": [],
      "name": "InvalidProof",
      "type": "error"
    },
    {
      "inputs": [
        {
          "internalType": "bytes32",
          "name": "given",
          "type": "bytes32"
        },
        {
          "internalType": "bytes32",
          "name": "expected",
          "type": "bytes32"
        }
      ],
      "name": "LastClaimHashMismatch",
      "type": "error"
    },
    {
      "inputs": [],
      "name": "NotInitializing",
      "type": "error"
    },
    {
      "inputs": [],
      "name": "UUPSUnauthorizedCallContext",
      "type": "error"
    },
    {
      "inputs": [
        {
          "internalType": "bytes32",
          "name": "slot",
          "type": "bytes32"
        }
      ],
      "name": "UUPSUnsupportedProxiableUUID",
      "type": "error"
    },
    {
      "inputs": [
        {
          "internalType": "bytes32",
          "name": "nullifier",
          "type": "bytes32"
        }
      ],
      "name": "UsedNullifier",
      "type": "error"
    },
    {
      "anonymous": false,
      "inputs": [
        {
          "indexed": true,
          "internalType": "address",
          "name": "recipient",
          "type": "address"
        },
        {
          "indexed": true,
          "internalType": "bytes32",
          "name": "nullifier",
          "type": "bytes32"
        },
        {
          "indexed": false,
          "internalType": "uint256",
          "name": "amount",
          "type": "uint256"
        }
      ],
      "name": "Claimed",
      "type": "event"
    },
    {
      "anonymous": false,
      "inputs": [
        {
          "indexed": false,
          "internalType": "uint64",
          "name": "version",
          "type": "uint64"
        }
      ],
      "name": "Initialized",
      "type": "event"
    },
    {
      "anonymous": false,
      "inputs": [
        {
          "indexed": true,
          "internalType": "bytes32",
          "name": "role",
          "type": "bytes32"
        },
        {
          "indexed": true,
          "internalType": "bytes32",
          "name": "previousAdminRole",
          "type": "bytes32"
        },
        {
          "indexed": true,
          "internalType": "bytes32",
          "name": "newAdminRole",
          "type": "bytes32"
        }
      ],
      "name": "RoleAdminChanged",
      "type": "event"
    },
    {
      "anonymous": false,
      "inputs": [
        {
          "indexed": true,
          "internalType": "bytes32",
          "name": "role",
          "type": "bytes32"
        },
        {
          "indexed": true,
          "internalType": "address",
          "name": "account",
          "type": "address"
        },
        {
          "indexed": true,
          "internalType": "address",
          "name": "sender",
          "type": "address"
        }
      ],
      "name": "RoleGranted",
      "type": "event"
    },
    {
      "anonymous": false,
      "inputs": [
        {
          "indexed": true,
          "internalType": "bytes32",
          "name": "role",
          "type": "bytes32"
        },
        {
          "indexed": true,
          "internalType": "address",
          "name": "account",
          "type": "address"
        },
        {
          "indexed": true,
          "internalType": "address",
          "name": "sender",
          "type": "address"
        }
      ],
      "name": "RoleRevoked",
      "type": "event"
    },
    {
      "anonymous": false,
      "inputs": [
        {
          "indexed": true,
          "internalType": "address",
          "name": "implementation",
          "type": "address"
        }
      ],
      "name": "Upgraded",
      "type": "event"
    },
    {
      "inputs": [],
      "name": "DEFAULT_ADMIN_ROLE",
      "outputs": [
        {
          "internalType": "bytes32",
          "name": "",
          "type": "bytes32"
        }
      ],
      "stateMutability": "view",
      "type": "function"
    },
    {
      "inputs": [],
      "name": "TREE_MANAGER",
      "outputs": [
        {
          "internalType": "bytes32",
          "name": "",
          "type": "bytes32"
        }
      ],
      "stateMutability": "view",
      "type": "function"
    },
    {
      "inputs": [],
      "name": "UPGRADE_INTERFACE_VERSION",
      "outputs": [
        {
          "internalType": "string",
          "name": "",
          "type": "string"
        }
      ],
      "stateMutability": "view",
      "type": "function"
    },
    {
      "inputs": [
        {
          "internalType": "uint256",
          "name": "amount",
          "type": "uint256"
        }
      ],
      "name": "burn",
      "outputs": [],
      "stateMutability": "nonpayable",
      "type": "function"
    },
    {
      "inputs": [
        {
          "internalType": "bool",
          "name": "isShortTerm",
          "type": "bool"
        },
        {
          "components": [
            {
              "internalType": "address",
              "name": "recipient",
              "type": "address"
            },
            {
              "internalType": "bytes32",
              "name": "nullifier",
              "type": "bytes32"
            },
            {
              "internalType": "uint256",
              "name": "amount",
              "type": "uint256"
            }
          ],
          "internalType": "struct IMinterV1L.MintClaim[]",
          "name": "claims",
          "type": "tuple[]"
        },
        {
          "components": [
            {
              "internalType": "bytes32",
              "name": "depositTreeRoot",
              "type": "bytes32"
            },
            {
              "internalType": "bytes32",
              "name": "eligibleTreeRoot",
              "type": "bytes32"
            },
            {
              "internalType": "bytes32",
              "name": "lastClaimHash",
              "type": "bytes32"
            }
          ],
          "internalType": "struct IMinterV1L.ClaimPublicInputs",
          "name": "publicInputs",
          "type": "tuple"
        },
        {
          "internalType": "bytes",
          "name": "proof",
          "type": "bytes"
        }
      ],
      "name": "claimTokens",
      "outputs": [],
      "stateMutability": "nonpayable",
      "type": "function"
    },
    {
      "inputs": [
        {
          "internalType": "bytes32",
          "name": "role",
          "type": "bytes32"
        }
      ],
      "name": "getRoleAdmin",
      "outputs": [
        {
          "internalType": "bytes32",
          "name": "",
          "type": "bytes32"
        }
      ],
      "stateMutability": "view",
      "type": "function"
    },
    {
      "inputs": [
        {
          "internalType": "bytes32",
          "name": "role",
          "type": "bytes32"
        },
        {
          "internalType": "address",
          "name": "account",
          "type": "address"
        }
      ],
      "name": "grantRole",
      "outputs": [],
      "stateMutability": "nonpayable",
      "type": "function"
    },
    {
      "inputs": [
        {
          "internalType": "bytes32",
          "name": "role",
          "type": "bytes32"
        },
        {
          "internalType": "address",
          "name": "account",
          "type": "address"
        }
      ],
      "name": "hasRole",
      "outputs": [
        {
          "internalType": "bool",
          "name": "",
          "type": "bool"
        }
      ],
      "stateMutability": "view",
      "type": "function"
    },
    {
      "inputs": [
        {
          "internalType": "address",
          "name": "plonkVerifier_",
          "type": "address"
        },
        {
          "internalType": "address",
          "name": "token_",
          "type": "address"
        },
        {
          "internalType": "address",
          "name": "int1_",
          "type": "address"
        },
        {
          "internalType": "address",
          "name": "admin_",
          "type": "address"
        }
      ],
      "name": "initialize",
      "outputs": [],
      "stateMutability": "nonpayable",
      "type": "function"
    },
    {
      "inputs": [],
      "name": "int1",
      "outputs": [
        {
          "internalType": "contract IInt1",
          "name": "",
          "type": "address"
        }
      ],
      "stateMutability": "view",
      "type": "function"
    },
    {
      "inputs": [],
      "name": "longTermEligibleTreeRoot",
      "outputs": [
        {
          "internalType": "bytes32",
          "name": "",
          "type": "bytes32"
        }
      ],
      "stateMutability": "view",
      "type": "function"
    },
    {
      "inputs": [
        {
          "internalType": "bytes32",
          "name": "",
          "type": "bytes32"
        }
      ],
      "name": "longTermNullifiers",
      "outputs": [
        {
          "internalType": "bool",
          "name": "",
          "type": "bool"
        }
      ],
      "stateMutability": "view",
      "type": "function"
    },
    {
      "inputs": [
        {
          "internalType": "address",
          "name": "newMinter",
          "type": "address"
        }
      ],
      "name": "migrate",
      "outputs": [],
      "stateMutability": "nonpayable",
      "type": "function"
    },
    {
      "inputs": [],
      "name": "mint",
      "outputs": [],
      "stateMutability": "nonpayable",
      "type": "function"
    },
    {
      "inputs": [],
      "name": "proxiableUUID",
      "outputs": [
        {
          "internalType": "bytes32",
          "name": "",
          "type": "bytes32"
        }
      ],
      "stateMutability": "view",
      "type": "function"
    },
    {
      "inputs": [
        {
          "internalType": "bytes32",
          "name": "role",
          "type": "bytes32"
        },
        {
          "internalType": "address",
          "name": "callerConfirmation",
          "type": "address"
        }
      ],
      "name": "renounceRole",
      "outputs": [],
      "stateMutability": "nonpayable",
      "type": "function"
    },
    {
      "inputs": [
        {
          "internalType": "bytes32",
          "name": "role",
          "type": "bytes32"
        },
        {
          "internalType": "address",
          "name": "account",
          "type": "address"
        }
      ],
      "name": "revokeRole",
      "outputs": [],
      "stateMutability": "nonpayable",
      "type": "function"
    },
    {
      "inputs": [
        {
          "internalType": "bytes32",
          "name": "eligibleTreeRoot_",
          "type": "bytes32"
        }
      ],
      "name": "setLongTermTreeRoot",
      "outputs": [],
      "stateMutability": "nonpayable",
      "type": "function"
    },
    {
      "inputs": [
        {
          "internalType": "bytes32",
          "name": "eligibleTreeRoot_",
          "type": "bytes32"
        }
      ],
      "name": "setShortTermTreeRoot",
      "outputs": [],
      "stateMutability": "nonpayable",
      "type": "function"
    },
    {
      "inputs": [
        {
          "internalType": "address",
          "name": "verifier_",
          "type": "address"
        }
      ],
      "name": "setVerifier",
      "outputs": [],
      "stateMutability": "nonpayable",
      "type": "function"
    },
    {
      "inputs": [],
      "name": "shortTermEligibleTreeRoot",
      "outputs": [
        {
          "internalType": "bytes32",
          "name": "",
          "type": "bytes32"
        }
      ],
      "stateMutability": "view",
      "type": "function"
    },
    {
      "inputs": [
        {
          "internalType": "bytes32",
          "name": "",
          "type": "bytes32"
        }
      ],
      "name": "shortTermNullifiers",
      "outputs": [
        {
          "internalType": "bool",
          "name": "",
          "type": "bool"
        }
      ],
      "stateMutability": "view",
      "type": "function"
    },
    {
      "inputs": [
        {
          "internalType": "bytes4",
          "name": "interfaceId",
          "type": "bytes4"
        }
      ],
      "name": "supportsInterface",
      "outputs": [
        {
          "internalType": "bool",
          "name": "",
          "type": "bool"
        }
      ],
      "stateMutability": "view",
      "type": "function"
    },
    {
      "inputs": [],
      "name": "token",
      "outputs": [
        {
          "internalType": "contract IINTMAXToken",
          "name": "",
          "type": "address"
        }
      ],
      "stateMutability": "view",
      "type": "function"
    },
    {
      "inputs": [
        {
          "internalType": "address",
          "name": "newImplementation",
          "type": "address"
        },
        {
          "internalType": "bytes",
          "name": "data",
          "type": "bytes"
        }
      ],
      "name": "upgradeToAndCall",
      "outputs": [],
      "stateMutability": "payable",
      "type": "function"
    },
    {
      "inputs": [],
      "name": "verifier",
      "outputs": [
        {
          "internalType": "contract IPlonkVerifier",
          "name": "",
          "type": "address"
        }
      ],
      "stateMutability": "view",
      "type": "function"
    }
  ],
  "bytecode": "0x60a06040523073ffffffffffffffffffffffffffffffffffffffff1660809073ffffffffffffffffffffffffffffffffffffffff16815250348015604257600080fd5b50608051612d4161006c60003960008181611762015281816117b701526119780152612d416000f3fe6080604052600436106101805760003560e01c80636d8db9a2116100d1578063ad3cb1cc1161008a578063d502014311610064578063d502014314610560578063d547741f14610589578063f8c8765e146105b2578063fc0c546a146105db57610180565b8063ad3cb1cc146104e1578063c38c03981461050c578063ce5494bb1461053757610180565b80636d8db9a2146103bf578063896936a0146103ea57806391d1485414610413578063984279bf14610450578063a217fddf14610479578063aa3b8219146104a457610180565b806336568abe1161013e5780634f1ef286116101185780634f1ef2861461032457806352d1902d146103405780635437988d1461036b5780636d1869871461039457610180565b806336568abe1461029557806338ff1796146102be57806342966c68146102fb57610180565b8062aadd0f1461018557806301ffc9a7146101b05780631249c58b146101ed578063248a9ca3146102045780632b7ac3f3146102415780632f2ff15d1461026c575b600080fd5b34801561019157600080fd5b5061019a610606565b6040516101a79190611f5d565b60405180910390f35b3480156101bc57600080fd5b506101d760048036038101906101d29190611fe4565b61062c565b6040516101e4919061202c565b60405180910390f35b3480156101f957600080fd5b506102026106a6565b005b34801561021057600080fd5b5061022b6004803603810190610226919061207d565b610760565b60405161023891906120b9565b60405180910390f35b34801561024d57600080fd5b5061025661078e565b60405161026391906120f5565b60405180910390f35b34801561027857600080fd5b50610293600480360381019061028e919061214e565b6107b4565b005b3480156102a157600080fd5b506102bc60048036038101906102b7919061214e565b6107d6565b005b3480156102ca57600080fd5b506102e560048036038101906102e0919061207d565b610851565b6040516102f2919061202c565b60405180910390f35b34801561030757600080fd5b50610322600480360381019061031d91906121c4565b610871565b005b61033e60048036038101906103399190612337565b61090f565b005b34801561034c57600080fd5b5061035561092e565b60405161036291906120b9565b60405180910390f35b34801561037757600080fd5b50610392600480360381019061038d9190612393565b610961565b005b3480156103a057600080fd5b506103a96109b3565b6040516103b691906120b9565b60405180910390f35b3480156103cb57600080fd5b506103d46109b9565b6040516103e191906120b9565b60405180910390f35b3480156103f657600080fd5b50610411600480360381019061040c919061207d565b6109bf565b005b34801561041f57600080fd5b5061043a6004803603810190610435919061214e565b6109f4565b604051610447919061202c565b60405180910390f35b34801561045c57600080fd5b506104776004803603810190610472919061207d565b610a6d565b005b34801561048557600080fd5b5061048e610aa2565b60405161049b91906120b9565b60405180910390f35b3480156104b057600080fd5b506104cb60048036038101906104c6919061207d565b610aa9565b6040516104d8919061202c565b60405180910390f35b3480156104ed57600080fd5b506104f6610ac9565b604051610503919061243f565b60405180910390f35b34801561051857600080fd5b50610521610b02565b60405161052e91906120b9565b60405180910390f35b34801561054357600080fd5b5061055e60048036038101906105599190612393565b610b26565b005b34801561056c57600080fd5b506105876004803603810190610582919061267d565b610c79565b005b34801561059557600080fd5b506105b060048036038101906105ab919061214e565b61120d565b005b3480156105be57600080fd5b506105d960048036038101906105d49190612721565b61122f565b005b3480156105e757600080fd5b506105f0611489565b6040516105fd91906127a9565b60405180910390f35b600660009054906101000a900473ffffffffffffffffffffffffffffffffffffffff1681565b60007f7965db0b000000000000000000000000000000000000000000000000000000007bffffffffffffffffffffffffffffffffffffffffffffffffffffffff1916827bffffffffffffffffffffffffffffffffffffffffffffffffffffffff1916148061069f575061069e826114af565b5b9050919050565b7f92a34060481126178f80fd86c2c51038c6d11c21120b77079571cc3abf1d746b6106d081611519565b600560009054906101000a900473ffffffffffffffffffffffffffffffffffffffff1673ffffffffffffffffffffffffffffffffffffffff16636a627842306040518263ffffffff1660e01b815260040161072b91906127d3565b600060405180830381600087803b15801561074557600080fd5b505af1158015610759573d6000803e3d6000fd5b5050505050565b60008061076b61152d565b905080600001600084815260200190815260200160002060010154915050919050565b600460009054906101000a900473ffffffffffffffffffffffffffffffffffffffff1681565b6107bd82610760565b6107c681611519565b6107d08383611555565b50505050565b6107de611656565b73ffffffffffffffffffffffffffffffffffffffff168173ffffffffffffffffffffffffffffffffffffffff1614610842576040517f6697b23200000000000000000000000000000000000000000000000000000000815260040160405180910390fd5b61084c828261165e565b505050565b60016020528060005260406000206000915054906101000a900460ff1681565b6000801b61087e81611519565b600560009054906101000a900473ffffffffffffffffffffffffffffffffffffffff1673ffffffffffffffffffffffffffffffffffffffff166342966c68836040518263ffffffff1660e01b81526004016108d991906127fd565b600060405180830381600087803b1580156108f357600080fd5b505af1158015610907573d6000803e3d6000fd5b505050505050565b610917611760565b61092082611846565b61092a8282611857565b5050565b6000610938611976565b7f360894a13ba1a3210667c828492db98dca3e2076cc3735a920a3ca505d382bbc60001b905090565b6000801b61096e81611519565b81600460006101000a81548173ffffffffffffffffffffffffffffffffffffffff021916908373ffffffffffffffffffffffffffffffffffffffff1602179055505050565b60005481565b60025481565b7f92a34060481126178f80fd86c2c51038c6d11c21120b77079571cc3abf1d746b6109e981611519565b816002819055505050565b6000806109ff61152d565b905080600001600085815260200190815260200160002060000160008473ffffffffffffffffffffffffffffffffffffffff1673ffffffffffffffffffffffffffffffffffffffff16815260200190815260200160002060009054906101000a900460ff1691505092915050565b7f92a34060481126178f80fd86c2c51038c6d11c21120b77079571cc3abf1d746b610a9781611519565b816000819055505050565b6000801b81565b60036020528060005260406000206000915054906101000a900460ff1681565b6040518060400160405280600581526020017f352e302e3000000000000000000000000000000000000000000000000000000081525081565b7f92a34060481126178f80fd86c2c51038c6d11c21120b77079571cc3abf1d746b81565b6000801b610b3381611519565b6000600560009054906101000a900473ffffffffffffffffffffffffffffffffffffffff1673ffffffffffffffffffffffffffffffffffffffff166370a08231306040518263ffffffff1660e01b8152600401610b9091906127d3565b602060405180830381865afa158015610bad573d6000803e3d6000fd5b505050506040513d601f19601f82011682018060405250810190610bd1919061282d565b9050600560009054906101000a900473ffffffffffffffffffffffffffffffffffffffff1673ffffffffffffffffffffffffffffffffffffffff1663a9059cbb84836040518363ffffffff1660e01b8152600401610c3092919061285a565b6020604051808303816000875af1158015610c4f573d6000803e3d6000fd5b505050506040513d601f19601f82011682018060405250810190610c739190612898565b50505050565b8415610cd657600054836020015114610cd15782602001516000546040517fb2a57f36000000000000000000000000000000000000000000000000000000008152600401610cc89291906128c5565b60405180910390fd5b610d29565b600254836020015114610d285782602001516002546040517fb2a57f36000000000000000000000000000000000000000000000000000000008152600401610d1f9291906128c5565b60405180910390fd5b5b6000600660009054906101000a900473ffffffffffffffffffffffffffffffffffffffff1673ffffffffffffffffffffffffffffffffffffffff1663e09dfaa285600001516040518263ffffffff1660e01b8152600401610d8a91906120b9565b602060405180830381865afa158015610da7573d6000803e3d6000fd5b505050506040513d601f19601f82011682018060405250810190610dcb919061282d565b03610e115782600001516040517fb6a9b4dc000000000000000000000000000000000000000000000000000000008152600401610e0891906120b9565b60405180910390fd5b6000610e1c856119fd565b905080846040015114610e6c578360400151816040517fb8617640000000000000000000000000000000000000000000000000000000008152600401610e639291906128c5565b60405180910390fd5b6000846000015185602001518660400151604051602001610e8f9392919061290f565b604051602081830303815290604052805190602001209050600460009054906101000a900473ffffffffffffffffffffffffffffffffffffffff1673ffffffffffffffffffffffffffffffffffffffff16637e4f7a8a8585610ef085611a84565b6040518463ffffffff1660e01b8152600401610f0e93929190612a48565b602060405180830381865afa158015610f2b573d6000803e3d6000fd5b505050506040513d601f19601f82011682018060405250810190610f4f9190612898565b610f85576040517f09bde33900000000000000000000000000000000000000000000000000000000815260040160405180910390fd5b60005b8651811015611203576000878281518110610fa657610fa5612a81565b5b60200260200101519050881561105557600160008260200151815260200190815260200160002060009054906101000a900460ff16156110215780602001516040517f3d39a25300000000000000000000000000000000000000000000000000000000815260040161101891906120b9565b60405180910390fd5b60018060008360200151815260200190815260200160002060006101000a81548160ff0219169083151502179055506110f1565b600360008260200151815260200190815260200160002060009054906101000a900460ff16156110c05780602001516040517f3d39a2530000000000000000000000000000000000000000000000000000000081526004016110b791906120b9565b60405180910390fd5b6001600360008360200151815260200190815260200160002060006101000a81548160ff0219169083151502179055505b600560009054906101000a900473ffffffffffffffffffffffffffffffffffffffff1673ffffffffffffffffffffffffffffffffffffffff1663a9059cbb826000015183604001516040518363ffffffff1660e01b815260040161115692919061285a565b6020604051808303816000875af1158015611175573d6000803e3d6000fd5b505050506040513d601f19601f820116820180604052508101906111999190612898565b508060200151816000015173ffffffffffffffffffffffffffffffffffffffff167f9b01158d4bc10c112ba32b5240cda97e49e2eb86021f03f6a0f460342ac4dfda83604001516040516111ed91906127fd565b60405180910390a3508080600101915050610f88565b5050505050505050565b61121682610760565b61121f81611519565b611229838361165e565b50505050565b6000611239611b2f565b905060008160000160089054906101000a900460ff1615905060008260000160009054906101000a900467ffffffffffffffff1690506000808267ffffffffffffffff161480156112875750825b9050600060018367ffffffffffffffff161480156112bc575060003073ffffffffffffffffffffffffffffffffffffffff163b145b9050811580156112ca575080155b15611301576040517ff92ee8a900000000000000000000000000000000000000000000000000000000815260040160405180910390fd5b60018560000160006101000a81548167ffffffffffffffff021916908367ffffffffffffffff16021790555083156113515760018560000160086101000a81548160ff0219169083151502179055505b88600460006101000a81548173ffffffffffffffffffffffffffffffffffffffff021916908373ffffffffffffffffffffffffffffffffffffffff16021790555087600560006101000a81548173ffffffffffffffffffffffffffffffffffffffff021916908373ffffffffffffffffffffffffffffffffffffffff16021790555086600660006101000a81548173ffffffffffffffffffffffffffffffffffffffff021916908373ffffffffffffffffffffffffffffffffffffffff1602179055506114216000801b87611555565b50831561147e5760008560000160086101000a81548160ff0219169083151502179055507fc7f505b2f371ae2175ee4913f4499e1f2633a7b5936321eed1cdaeb6115181d260016040516114759190612aff565b60405180910390a15b505050505050505050565b600560009054906101000a900473ffffffffffffffffffffffffffffffffffffffff1681565b60007f01ffc9a7000000000000000000000000000000000000000000000000000000007bffffffffffffffffffffffffffffffffffffffffffffffffffffffff1916827bffffffffffffffffffffffffffffffffffffffffffffffffffffffff1916149050919050565b61152a81611525611656565b611b57565b50565b60007f02dd7bc7dec4dceedda775e58dd541e08a116c6c53815c0bd028192f7b626800905090565b60008061156061152d565b905061156c84846109f4565b61164a57600181600001600086815260200190815260200160002060000160008573ffffffffffffffffffffffffffffffffffffffff1673ffffffffffffffffffffffffffffffffffffffff16815260200190815260200160002060006101000a81548160ff0219169083151502179055506115e6611656565b73ffffffffffffffffffffffffffffffffffffffff168373ffffffffffffffffffffffffffffffffffffffff16857f2f8788117e7eff1d82e926ec794901d17c78024a50270940304540a733656f0d60405160405180910390a46001915050611650565b60009150505b92915050565b600033905090565b60008061166961152d565b905061167584846109f4565b1561175457600081600001600086815260200190815260200160002060000160008573ffffffffffffffffffffffffffffffffffffffff1673ffffffffffffffffffffffffffffffffffffffff16815260200190815260200160002060006101000a81548160ff0219169083151502179055506116f0611656565b73ffffffffffffffffffffffffffffffffffffffff168373ffffffffffffffffffffffffffffffffffffffff16857ff6391f5c32d9c69d2a47ea670b442974b53935d1edc7fd64eb21e047a839171b60405160405180910390a4600191505061175a565b60009150505b92915050565b7f000000000000000000000000000000000000000000000000000000000000000073ffffffffffffffffffffffffffffffffffffffff163073ffffffffffffffffffffffffffffffffffffffff16148061180d57507f000000000000000000000000000000000000000000000000000000000000000073ffffffffffffffffffffffffffffffffffffffff166117f4611ba8565b73ffffffffffffffffffffffffffffffffffffffff1614155b15611844576040517fe07c8dba00000000000000000000000000000000000000000000000000000000815260040160405180910390fd5b565b6000801b61185381611519565b5050565b8173ffffffffffffffffffffffffffffffffffffffff166352d1902d6040518163ffffffff1660e01b8152600401602060405180830381865afa9250505080156118bf57506040513d601f19601f820116820180604052508101906118bc9190612b2f565b60015b61190057816040517f4c9c8ce30000000000000000000000000000000000000000000000000000000081526004016118f791906127d3565b60405180910390fd5b7f360894a13ba1a3210667c828492db98dca3e2076cc3735a920a3ca505d382bbc60001b811461196757806040517faa1d49a400000000000000000000000000000000000000000000000000000000815260040161195e91906120b9565b60405180910390fd5b6119718383611bff565b505050565b7f000000000000000000000000000000000000000000000000000000000000000073ffffffffffffffffffffffffffffffffffffffff163073ffffffffffffffffffffffffffffffffffffffff16146119fb576040517fe07c8dba00000000000000000000000000000000000000000000000000000000815260040160405180910390fd5b565b6000806000801b905060005b8351811015611a7a576000848281518110611a2757611a26612a81565b5b6020026020010151905082816000015182602001518360400151604051602001611a549493929190612bc5565b604051602081830303815290604052805190602001209250508080600101915050611a09565b5080915050919050565b60606000600867ffffffffffffffff811115611aa357611aa261220c565b5b604051908082528060200260200182016040528015611ad15781602001602082028036833780820191505090505b50905060005b6008811015611b2557602081611aed9190612c42565b84901b60e01c63ffffffff16828281518110611b0c57611b0b612a81565b5b6020026020010181815250508080600101915050611ad7565b5080915050919050565b60007ff0c57e16840df040f15088dc2f81fe391c3923bec73e23a9662efc9c229c6a00905090565b611b6182826109f4565b611ba45780826040517fe2517d3f000000000000000000000000000000000000000000000000000000008152600401611b9b929190612c84565b60405180910390fd5b5050565b6000611bd67f360894a13ba1a3210667c828492db98dca3e2076cc3735a920a3ca505d382bbc60001b611c72565b60000160009054906101000a900473ffffffffffffffffffffffffffffffffffffffff16905090565b611c0882611c7c565b8173ffffffffffffffffffffffffffffffffffffffff167fbc7cd75a20ee27fd9adebab32041f755214dbc6bffa90cc0225b39da2e5c2d3b60405160405180910390a2600081511115611c6557611c5f8282611d49565b50611c6e565b611c6d611dcd565b5b5050565b6000819050919050565b60008173ffffffffffffffffffffffffffffffffffffffff163b03611cd857806040517f4c9c8ce3000000000000000000000000000000000000000000000000000000008152600401611ccf91906127d3565b60405180910390fd5b80611d057f360894a13ba1a3210667c828492db98dca3e2076cc3735a920a3ca505d382bbc60001b611c72565b60000160006101000a81548173ffffffffffffffffffffffffffffffffffffffff021916908373ffffffffffffffffffffffffffffffffffffffff16021790555050565b60606000808473ffffffffffffffffffffffffffffffffffffffff1684604051611d739190612cf4565b600060405180830381855af49150503d8060008114611dae576040519150601f19603f3d011682016040523d82523d6000602084013e611db3565b606091505b5091509150611dc3858383611e0a565b9250505092915050565b6000341115611e08576040517fb398979f00000000000000000000000000000000000000000000000000000000815260040160405180910390fd5b565b606082611e1f57611e1a82611e99565b611e91565b60008251148015611e47575060008473ffffffffffffffffffffffffffffffffffffffff163b145b15611e8957836040517f9996b315000000000000000000000000000000000000000000000000000000008152600401611e8091906127d3565b60405180910390fd5b819050611e92565b5b9392505050565b600081511115611eac5780518082602001fd5b6040517f1425ea4200000000000000000000000000000000000000000000000000000000815260040160405180910390fd5b600073ffffffffffffffffffffffffffffffffffffffff82169050919050565b6000819050919050565b6000611f23611f1e611f1984611ede565b611efe565b611ede565b9050919050565b6000611f3582611f08565b9050919050565b6000611f4782611f2a565b9050919050565b611f5781611f3c565b82525050565b6000602082019050611f726000830184611f4e565b92915050565b6000604051905090565b600080fd5b600080fd5b60007fffffffff0000000000000000000000000000000000000000000000000000000082169050919050565b611fc181611f8c565b8114611fcc57600080fd5b50565b600081359050611fde81611fb8565b92915050565b600060208284031215611ffa57611ff9611f82565b5b600061200884828501611fcf565b91505092915050565b60008115159050919050565b61202681612011565b82525050565b6000602082019050612041600083018461201d565b92915050565b6000819050919050565b61205a81612047565b811461206557600080fd5b50565b60008135905061207781612051565b92915050565b60006020828403121561209357612092611f82565b5b60006120a184828501612068565b91505092915050565b6120b381612047565b82525050565b60006020820190506120ce60008301846120aa565b92915050565b60006120df82611f2a565b9050919050565b6120ef816120d4565b82525050565b600060208201905061210a60008301846120e6565b92915050565b600061211b82611ede565b9050919050565b61212b81612110565b811461213657600080fd5b50565b60008135905061214881612122565b92915050565b6000806040838503121561216557612164611f82565b5b600061217385828601612068565b925050602061218485828601612139565b9150509250929050565b6000819050919050565b6121a18161218e565b81146121ac57600080fd5b50565b6000813590506121be81612198565b92915050565b6000602082840312156121da576121d9611f82565b5b60006121e8848285016121af565b91505092915050565b600080fd5b600080fd5b6000601f19601f8301169050919050565b7f4e487b7100000000000000000000000000000000000000000000000000000000600052604160045260246000fd5b612244826121fb565b810181811067ffffffffffffffff821117156122635761226261220c565b5b80604052505050565b6000612276611f78565b9050612282828261223b565b919050565b600067ffffffffffffffff8211156122a2576122a161220c565b5b6122ab826121fb565b9050602081019050919050565b82818337600083830152505050565b60006122da6122d584612287565b61226c565b9050828152602081018484840111156122f6576122f56121f6565b5b6123018482856122b8565b509392505050565b600082601f83011261231e5761231d6121f1565b5b813561232e8482602086016122c7565b91505092915050565b6000806040838503121561234e5761234d611f82565b5b600061235c85828601612139565b925050602083013567ffffffffffffffff81111561237d5761237c611f87565b5b61238985828601612309565b9150509250929050565b6000602082840312156123a9576123a8611f82565b5b60006123b784828501612139565b91505092915050565b600081519050919050565b600082825260208201905092915050565b60005b838110156123fa5780820151818401526020810190506123df565b60008484015250505050565b6000612411826123c0565b61241b81856123cb565b935061242b8185602086016123dc565b612434816121fb565b840191505092915050565b600060208201905081810360008301526124598184612406565b905092915050565b61246a81612011565b811461247557600080fd5b50565b60008135905061248781612461565b92915050565b600067ffffffffffffffff8211156124a8576124a761220c565b5b602082029050602081019050919050565b600080fd5b600080fd5b6000606082840312156124d9576124d86124be565b5b6124e3606061226c565b905060006124f384828501612139565b600083015250602061250784828501612068565b602083015250604061251b848285016121af565b60408301525092915050565b600061253a6125358461248d565b61226c565b9050808382526020820190506060840283018581111561255d5761255c6124b9565b5b835b81811015612586578061257288826124c3565b84526020840193505060608101905061255f565b5050509392505050565b600082601f8301126125a5576125a46121f1565b5b81356125b5848260208601612527565b91505092915050565b6000606082840312156125d4576125d36124be565b5b6125de606061226c565b905060006125ee84828501612068565b600083015250602061260284828501612068565b602083015250604061261684828501612068565b60408301525092915050565b600080fd5b60008083601f84011261263d5761263c6121f1565b5b8235905067ffffffffffffffff81111561265a57612659612622565b5b602083019150836001820283011115612676576126756124b9565b5b9250929050565b600080600080600060c0868803121561269957612698611f82565b5b60006126a788828901612478565b955050602086013567ffffffffffffffff8111156126c8576126c7611f87565b5b6126d488828901612590565b94505060406126e5888289016125be565b93505060a086013567ffffffffffffffff81111561270657612705611f87565b5b61271288828901612627565b92509250509295509295909350565b6000806000806080858703121561273b5761273a611f82565b5b600061274987828801612139565b945050602061275a87828801612139565b935050604061276b87828801612139565b925050606061277c87828801612139565b91505092959194509250565b600061279382611f2a565b9050919050565b6127a381612788565b82525050565b60006020820190506127be600083018461279a565b92915050565b6127cd81612110565b82525050565b60006020820190506127e860008301846127c4565b92915050565b6127f78161218e565b82525050565b600060208201905061281260008301846127ee565b92915050565b60008151905061282781612198565b92915050565b60006020828403121561284357612842611f82565b5b600061285184828501612818565b91505092915050565b600060408201905061286f60008301856127c4565b61287c60208301846127ee565b9392505050565b60008151905061289281612461565b92915050565b6000602082840312156128ae576128ad611f82565b5b60006128bc84828501612883565b91505092915050565b60006040820190506128da60008301856120aa565b6128e760208301846120aa565b9392505050565b6000819050919050565b61290961290482612047565b6128ee565b82525050565b600061291b82866128f8565b60208201915061292b82856128f8565b60208201915061293b82846128f8565b602082019150819050949350505050565b600082825260208201905092915050565b6000612969838561294c565b93506129768385846122b8565b61297f836121fb565b840190509392505050565b600081519050919050565b600082825260208201905092915050565b6000819050602082019050919050565b6129bf8161218e565b82525050565b60006129d183836129b6565b60208301905092915050565b6000602082019050919050565b60006129f58261298a565b6129ff8185612995565b9350612a0a836129a6565b8060005b83811015612a3b578151612a2288826129c5565b9750612a2d836129dd565b925050600181019050612a0e565b5085935050505092915050565b60006040820190508181036000830152612a6381858761295d565b90508181036020830152612a7781846129ea565b9050949350505050565b7f4e487b7100000000000000000000000000000000000000000000000000000000600052603260045260246000fd5b6000819050919050565b600067ffffffffffffffff82169050919050565b6000612ae9612ae4612adf84612ab0565b611efe565b612aba565b9050919050565b612af981612ace565b82525050565b6000602082019050612b146000830184612af0565b92915050565b600081519050612b2981612051565b92915050565b600060208284031215612b4557612b44611f82565b5b6000612b5384828501612b1a565b91505092915050565b60008160601b9050919050565b6000612b7482612b5c565b9050919050565b6000612b8682612b69565b9050919050565b612b9e612b9982612110565b612b7b565b82525050565b6000819050919050565b612bbf612bba8261218e565b612ba4565b82525050565b6000612bd182876128f8565b602082019150612be18286612b8d565b601482019150612bf182856128f8565b602082019150612c018284612bae565b60208201915081905095945050505050565b7f4e487b7100000000000000000000000000000000000000000000000000000000600052601160045260246000fd5b6000612c4d8261218e565b9150612c588361218e565b9250828202612c668161218e565b91508282048414831517612c7d57612c7c612c13565b5b5092915050565b6000604082019050612c9960008301856127c4565b612ca660208301846120aa565b9392505050565b600081519050919050565b600081905092915050565b6000612cce82612cad565b612cd88185612cb8565b9350612ce88185602086016123dc565b80840191505092915050565b6000612d008284612cc3565b91508190509291505056fea264697066735822122040705a8db4c03104443d15c5c20a8451baf213e7854758a3e0c1ba003b6b5a2064736f6c634300081b0033",
  "linkReferences": {},
  "deployedLinkReferences": {}
}