{
  "_format": "hh-sol-artifact-1",
  "contractName": "MinterV1",
  "sourceName": "contracts/MinterV1.sol",
  "abi": [
    {
      "inputs": [],
      "name": "AccessControlBadConfirmation",
      "type": "error"
    },
    {
      "inputs": [
        {
          "internalType": "address",
          "name": "account",
          "type": "address"
        },
        {
          "internalType": "bytes32",
          "name": "neededRole",
          "type": "bytes32"
        }
      ],
      "name": "AccessControlUnauthorizedAccount",
      "type": "error"
    },
    {
      "inputs": [
        {
          "internalType": "address",
          "name": "target",
          "type": "address"
        }
      ],
      "name": "AddressEmptyCode",
      "type": "error"
    },
    {
      "inputs": [
        {
          "internalType": "address",
          "name": "implementation",
          "type": "address"
        }
      ],
      "name": "ERC1967InvalidImplementation",
      "type": "error"
    },
    {
      "inputs": [],
      "name": "ERC1967NonPayable",
      "type": "error"
    },
    {
      "inputs": [
        {
          "internalType": "bytes32",
          "name": "given",
          "type": "bytes32"
        },
        {
          "internalType": "bytes32",
          "name": "expected",
          "type": "bytes32"
        }
      ],
      "name": "EligibleTreeRootMismatch",
      "type": "error"
    },
    {
      "inputs": [],
      "name": "FailedInnerCall",
      "type": "error"
    },
    {
      "inputs": [
        {
          "internalType": "bytes32",
          "name": "depositTreeRoot",
          "type": "bytes32"
        }
      ],
      "name": "InvalidDepositTreeRoot",
      "type": "error"
    },
    {
      "inputs": [],
      "name": "InvalidInitialization",
      "type": "error"
    },
    {
      "inputs": [],
      "name": "InvalidProof",
      "type": "error"
    },
    {
      "inputs": [
        {
          "internalType": "bytes32",
          "name": "given",
          "type": "bytes32"
        },
        {
          "internalType": "bytes32",
          "name": "expected",
          "type": "bytes32"
        }
      ],
      "name": "LastClaimHashMismatch",
      "type": "error"
    },
    {
      "inputs": [],
      "name": "NotInitializing",
      "type": "error"
    },
    {
      "inputs": [],
      "name": "UUPSUnauthorizedCallContext",
      "type": "error"
    },
    {
      "inputs": [
        {
          "internalType": "bytes32",
          "name": "slot",
          "type": "bytes32"
        }
      ],
      "name": "UUPSUnsupportedProxiableUUID",
      "type": "error"
    },
    {
      "inputs": [
        {
          "internalType": "bytes32",
          "name": "nullifier",
          "type": "bytes32"
        }
      ],
      "name": "UsedNullifier",
      "type": "error"
    },
    {
      "anonymous": false,
      "inputs": [
        {
          "indexed": true,
          "internalType": "address",
          "name": "recipient",
          "type": "address"
        },
        {
          "indexed": true,
          "internalType": "bytes32",
          "name": "nullifier",
          "type": "bytes32"
        },
        {
          "indexed": false,
          "internalType": "uint256",
          "name": "amount",
          "type": "uint256"
        }
      ],
      "name": "Claimed",
      "type": "event"
    },
    {
      "anonymous": false,
      "inputs": [
        {
          "indexed": false,
          "internalType": "uint64",
          "name": "version",
          "type": "uint64"
        }
      ],
      "name": "Initialized",
      "type": "event"
    },
    {
      "anonymous": false,
      "inputs": [
        {
          "indexed": true,
          "internalType": "bytes32",
          "name": "role",
          "type": "bytes32"
        },
        {
          "indexed": true,
          "internalType": "bytes32",
          "name": "previousAdminRole",
          "type": "bytes32"
        },
        {
          "indexed": true,
          "internalType": "bytes32",
          "name": "newAdminRole",
          "type": "bytes32"
        }
      ],
      "name": "RoleAdminChanged",
      "type": "event"
    },
    {
      "anonymous": false,
      "inputs": [
        {
          "indexed": true,
          "internalType": "bytes32",
          "name": "role",
          "type": "bytes32"
        },
        {
          "indexed": true,
          "internalType": "address",
          "name": "account",
          "type": "address"
        },
        {
          "indexed": true,
          "internalType": "address",
          "name": "sender",
          "type": "address"
        }
      ],
      "name": "RoleGranted",
      "type": "event"
    },
    {
      "anonymous": false,
      "inputs": [
        {
          "indexed": true,
          "internalType": "bytes32",
          "name": "role",
          "type": "bytes32"
        },
        {
          "indexed": true,
          "internalType": "address",
          "name": "account",
          "type": "address"
        },
        {
          "indexed": true,
          "internalType": "address",
          "name": "sender",
          "type": "address"
        }
      ],
      "name": "RoleRevoked",
      "type": "event"
    },
    {
      "anonymous": false,
      "inputs": [
        {
          "indexed": true,
          "internalType": "address",
          "name": "implementation",
          "type": "address"
        }
      ],
      "name": "Upgraded",
      "type": "event"
    },
    {
      "inputs": [],
      "name": "DEFAULT_ADMIN_ROLE",
      "outputs": [
        {
          "internalType": "bytes32",
          "name": "",
          "type": "bytes32"
        }
      ],
      "stateMutability": "view",
      "type": "function"
    },
    {
      "inputs": [],
      "name": "UPGRADE_INTERFACE_VERSION",
      "outputs": [
        {
          "internalType": "string",
          "name": "",
          "type": "string"
        }
      ],
      "stateMutability": "view",
      "type": "function"
    },
    {
      "inputs": [
        {
          "components": [
            {
              "internalType": "address",
              "name": "recipient",
              "type": "address"
            },
            {
              "internalType": "bytes32",
              "name": "nullifier",
              "type": "bytes32"
            },
            {
              "internalType": "uint256",
              "name": "amount",
              "type": "uint256"
            }
          ],
          "internalType": "struct IMinterV1.MintClaim[]",
          "name": "claims",
          "type": "tuple[]"
        },
        {
          "components": [
            {
              "internalType": "bytes32",
              "name": "depositTreeRoot",
              "type": "bytes32"
            },
            {
              "internalType": "bytes32",
              "name": "eligibleTreeRoot",
              "type": "bytes32"
            },
            {
              "internalType": "bytes32",
              "name": "lastClaimHash",
              "type": "bytes32"
            }
          ],
          "internalType": "struct IMinterV1.ClaimPublicInputs",
          "name": "publicInputs",
          "type": "tuple"
        },
        {
          "internalType": "bytes",
          "name": "proof",
          "type": "bytes"
        }
      ],
      "name": "claimTokens",
      "outputs": [],
      "stateMutability": "nonpayable",
      "type": "function"
    },
    {
      "inputs": [],
      "name": "eligibleTreeRoot",
      "outputs": [
        {
          "internalType": "bytes32",
          "name": "",
          "type": "bytes32"
        }
      ],
      "stateMutability": "view",
      "type": "function"
    },
    {
      "inputs": [
        {
          "internalType": "bytes32",
          "name": "role",
          "type": "bytes32"
        }
      ],
      "name": "getRoleAdmin",
      "outputs": [
        {
          "internalType": "bytes32",
          "name": "",
          "type": "bytes32"
        }
      ],
      "stateMutability": "view",
      "type": "function"
    },
    {
      "inputs": [
        {
          "internalType": "bytes32",
          "name": "role",
          "type": "bytes32"
        },
        {
          "internalType": "address",
          "name": "account",
          "type": "address"
        }
      ],
      "name": "grantRole",
      "outputs": [],
      "stateMutability": "nonpayable",
      "type": "function"
    },
    {
      "inputs": [
        {
          "internalType": "bytes32",
          "name": "role",
          "type": "bytes32"
        },
        {
          "internalType": "address",
          "name": "account",
          "type": "address"
        }
      ],
      "name": "hasRole",
      "outputs": [
        {
          "internalType": "bool",
          "name": "",
          "type": "bool"
        }
      ],
      "stateMutability": "view",
      "type": "function"
    },
    {
      "inputs": [
        {
          "internalType": "address",
          "name": "plonkVerifier_",
          "type": "address"
        },
        {
          "internalType": "address",
          "name": "token_",
          "type": "address"
        },
        {
          "internalType": "address",
          "name": "int1_",
          "type": "address"
        },
        {
          "internalType": "address",
          "name": "admin_",
          "type": "address"
        }
      ],
      "name": "initialize",
      "outputs": [],
      "stateMutability": "nonpayable",
      "type": "function"
    },
    {
      "inputs": [],
      "name": "int1",
      "outputs": [
        {
          "internalType": "contract IInt1",
          "name": "",
          "type": "address"
        }
      ],
      "stateMutability": "view",
      "type": "function"
    },
    {
      "inputs": [
        {
          "internalType": "address",
          "name": "newMinter",
          "type": "address"
        }
      ],
      "name": "migrate",
      "outputs": [],
      "stateMutability": "nonpayable",
      "type": "function"
    },
    {
      "inputs": [],
      "name": "mint",
      "outputs": [],
      "stateMutability": "nonpayable",
      "type": "function"
    },
    {
      "inputs": [
        {
          "internalType": "bytes32",
          "name": "",
          "type": "bytes32"
        }
      ],
      "name": "nullifiers",
      "outputs": [
        {
          "internalType": "bool",
          "name": "",
          "type": "bool"
        }
      ],
      "stateMutability": "view",
      "type": "function"
    },
    {
      "inputs": [],
      "name": "proxiableUUID",
      "outputs": [
        {
          "internalType": "bytes32",
          "name": "",
          "type": "bytes32"
        }
      ],
      "stateMutability": "view",
      "type": "function"
    },
    {
      "inputs": [
        {
          "internalType": "bytes32",
          "name": "role",
          "type": "bytes32"
        },
        {
          "internalType": "address",
          "name": "callerConfirmation",
          "type": "address"
        }
      ],
      "name": "renounceRole",
      "outputs": [],
      "stateMutability": "nonpayable",
      "type": "function"
    },
    {
      "inputs": [
        {
          "internalType": "bytes32",
          "name": "role",
          "type": "bytes32"
        },
        {
          "internalType": "address",
          "name": "account",
          "type": "address"
        }
      ],
      "name": "revokeRole",
      "outputs": [],
      "stateMutability": "nonpayable",
      "type": "function"
    },
    {
      "inputs": [
        {
          "internalType": "bytes32",
          "name": "eligibleTreeRoot_",
          "type": "bytes32"
        },
        {
          "internalType": "uint256",
          "name": "targetBalance",
          "type": "uint256"
        }
      ],
      "name": "setTreeRoots",
      "outputs": [],
      "stateMutability": "nonpayable",
      "type": "function"
    },
    {
      "inputs": [
        {
          "internalType": "bytes4",
          "name": "interfaceId",
          "type": "bytes4"
        }
      ],
      "name": "supportsInterface",
      "outputs": [
        {
          "internalType": "bool",
          "name": "",
          "type": "bool"
        }
      ],
      "stateMutability": "view",
      "type": "function"
    },
    {
      "inputs": [],
      "name": "token",
      "outputs": [
        {
          "internalType": "contract IINTMAXToken",
          "name": "",
          "type": "address"
        }
      ],
      "stateMutability": "view",
      "type": "function"
    },
    {
      "inputs": [
        {
          "internalType": "address",
          "name": "newImplementation",
          "type": "address"
        },
        {
          "internalType": "bytes",
          "name": "data",
          "type": "bytes"
        }
      ],
      "name": "upgradeToAndCall",
      "outputs": [],
      "stateMutability": "payable",
      "type": "function"
    },
    {
      "inputs": [],
      "name": "verifier",
      "outputs": [
        {
          "internalType": "contract IPlonkVerifier",
          "name": "",
          "type": "address"
        }
      ],
      "stateMutability": "view",
      "type": "function"
    }
  ],
  "bytecode": "0x60a06040523073ffffffffffffffffffffffffffffffffffffffff1660809073ffffffffffffffffffffffffffffffffffffffff1681525034801561004357600080fd5b50608051612a8061006d60003960008181611483015281816114d801526116990152612a806000f3fe60806040526004361061011e5760003560e01c8063550ca5f8116100a0578063ce5494bb11610064578063ce5494bb146103c5578063d547741f146103ee578063def496a814610417578063f8c8765e14610442578063fc0c546a1461046b5761011e565b8063550ca5f8146102e057806391d1485414610309578063a217fddf14610346578063ad3cb1cc14610371578063b875f89e1461039c5761011e565b80632b7ac3f3116100e75780632b7ac3f31461021c5780632f2ff15d1461024757806336568abe146102705780634f1ef2861461029957806352d1902d146102b55761011e565b8062aadd0f1461012357806301ffc9a71461014e5780631249c58b1461018b578063248a9ca3146101a25780632997e86b146101df575b600080fd5b34801561012f57600080fd5b50610138610496565b6040516101459190611c7e565b60405180910390f35b34801561015a57600080fd5b5061017560048036038101906101709190611d05565b6104bc565b6040516101829190611d4d565b60405180910390f35b34801561019757600080fd5b506101a0610536565b005b3480156101ae57600080fd5b506101c960048036038101906101c49190611d9e565b6105d3565b6040516101d69190611dda565b60405180910390f35b3480156101eb57600080fd5b5061020660048036038101906102019190611d9e565b610601565b6040516102139190611d4d565b60405180910390f35b34801561022857600080fd5b50610231610621565b60405161023e9190611e16565b60405180910390f35b34801561025357600080fd5b5061026e60048036038101906102699190611e6f565b610647565b005b34801561027c57600080fd5b5061029760048036038101906102929190611e6f565b610669565b005b6102b360048036038101906102ae9190611ff5565b6106e4565b005b3480156102c157600080fd5b506102ca610703565b6040516102d79190611dda565b60405180910390f35b3480156102ec57600080fd5b5061030760048036038101906103029190612277565b610736565b005b34801561031557600080fd5b50610330600480360381019061032b9190611e6f565b610bc4565b60405161033d9190611d4d565b60405180910390f35b34801561035257600080fd5b5061035b610c3d565b6040516103689190611dda565b60405180910390f35b34801561037d57600080fd5b50610386610c44565b6040516103939190612386565b60405180910390f35b3480156103a857600080fd5b506103c360048036038101906103be91906123a8565b610c7d565b005b3480156103d157600080fd5b506103ec60048036038101906103e791906123e8565b610dd5565b005b3480156103fa57600080fd5b5061041560048036038101906104109190611e6f565b610f28565b005b34801561042357600080fd5b5061042c610f4a565b6040516104399190611dda565b60405180910390f35b34801561044e57600080fd5b5061046960048036038101906104649190612415565b610f50565b005b34801561047757600080fd5b506104806111aa565b60405161048d919061249d565b60405180910390f35b600460009054906101000a900473ffffffffffffffffffffffffffffffffffffffff1681565b60007f7965db0b000000000000000000000000000000000000000000000000000000007bffffffffffffffffffffffffffffffffffffffffffffffffffffffff1916827bffffffffffffffffffffffffffffffffffffffffffffffffffffffff1916148061052f575061052e826111d0565b5b9050919050565b6000801b6105438161123a565b600360009054906101000a900473ffffffffffffffffffffffffffffffffffffffff1673ffffffffffffffffffffffffffffffffffffffff16636a627842306040518263ffffffff1660e01b815260040161059e91906124c7565b600060405180830381600087803b1580156105b857600080fd5b505af11580156105cc573d6000803e3d6000fd5b5050505050565b6000806105de61124e565b905080600001600084815260200190815260200160002060010154915050919050565b60016020528060005260406000206000915054906101000a900460ff1681565b600260009054906101000a900473ffffffffffffffffffffffffffffffffffffffff1681565b610650826105d3565b6106598161123a565b6106638383611276565b50505050565b610671611377565b73ffffffffffffffffffffffffffffffffffffffff168173ffffffffffffffffffffffffffffffffffffffff16146106d5576040517f6697b23200000000000000000000000000000000000000000000000000000000815260040160405180910390fd5b6106df828261137f565b505050565b6106ec611481565b6106f582611567565b6106ff8282611578565b5050565b600061070d611697565b7f360894a13ba1a3210667c828492db98dca3e2076cc3735a920a3ca505d382bbc60001b905090565b6000548360200151146107885782602001516000546040517fb2a57f3600000000000000000000000000000000000000000000000000000000815260040161077f9291906124e2565b60405180910390fd5b6000600460009054906101000a900473ffffffffffffffffffffffffffffffffffffffff1673ffffffffffffffffffffffffffffffffffffffff1663e09dfaa285600001516040518263ffffffff1660e01b81526004016107e99190611dda565b602060405180830381865afa158015610806573d6000803e3d6000fd5b505050506040513d601f19601f8201168201806040525081019061082a9190612520565b036108705782600001516040517fb6a9b4dc0000000000000000000000000000000000000000000000000000000081526004016108679190611dda565b60405180910390fd5b600061087b8561171e565b9050808460400151146108cb578360400151816040517fb86176400000000000000000000000000000000000000000000000000000000081526004016108c29291906124e2565b60405180910390fd5b60008460000151856020015186604001516040516020016108ee9392919061256e565b604051602081830303815290604052805190602001209050600260009054906101000a900473ffffffffffffffffffffffffffffffffffffffff1673ffffffffffffffffffffffffffffffffffffffff16637e4f7a8a858561094f856117a5565b6040518463ffffffff1660e01b815260040161096d939291906126a7565b602060405180830381865afa15801561098a573d6000803e3d6000fd5b505050506040513d601f19601f820116820180604052508101906109ae919061270c565b6109e4576040517f09bde33900000000000000000000000000000000000000000000000000000000815260040160405180910390fd5b60005b8651811015610bbb576000878281518110610a0557610a04612739565b5b60200260200101519050600160008260200151815260200190815260200160002060009054906101000a900460ff1615610a7a5780602001516040517f3d39a253000000000000000000000000000000000000000000000000000000008152600401610a719190611dda565b60405180910390fd5b60018060008360200151815260200190815260200160002060006101000a81548160ff021916908315150217905550600360009054906101000a900473ffffffffffffffffffffffffffffffffffffffff1673ffffffffffffffffffffffffffffffffffffffff1663a9059cbb826000015183604001516040518363ffffffff1660e01b8152600401610b0e929190612777565b6020604051808303816000875af1158015610b2d573d6000803e3d6000fd5b505050506040513d601f19601f82011682018060405250810190610b51919061270c565b508060200151816000015173ffffffffffffffffffffffffffffffffffffffff167f9b01158d4bc10c112ba32b5240cda97e49e2eb86021f03f6a0f460342ac4dfda8360400151604051610ba591906127a0565b60405180910390a35080806001019150506109e7565b50505050505050565b600080610bcf61124e565b905080600001600085815260200190815260200160002060000160008473ffffffffffffffffffffffffffffffffffffffff1673ffffffffffffffffffffffffffffffffffffffff16815260200190815260200160002060009054906101000a900460ff1691505092915050565b6000801b81565b6040518060400160405280600581526020017f352e302e3000000000000000000000000000000000000000000000000000000081525081565b6000801b610c8a8161123a565b826000819055506000600360009054906101000a900473ffffffffffffffffffffffffffffffffffffffff1673ffffffffffffffffffffffffffffffffffffffff166370a08231306040518263ffffffff1660e01b8152600401610cee91906124c7565b602060405180830381865afa158015610d0b573d6000803e3d6000fd5b505050506040513d601f19601f82011682018060405250810190610d2f9190612520565b905060008382610d3f91906127ea565b9050600360009054906101000a900473ffffffffffffffffffffffffffffffffffffffff1673ffffffffffffffffffffffffffffffffffffffff166342966c68826040518263ffffffff1660e01b8152600401610d9c91906127a0565b600060405180830381600087803b158015610db657600080fd5b505af1158015610dca573d6000803e3d6000fd5b505050505050505050565b6000801b610de28161123a565b6000600360009054906101000a900473ffffffffffffffffffffffffffffffffffffffff1673ffffffffffffffffffffffffffffffffffffffff166370a08231306040518263ffffffff1660e01b8152600401610e3f91906124c7565b602060405180830381865afa158015610e5c573d6000803e3d6000fd5b505050506040513d601f19601f82011682018060405250810190610e809190612520565b9050600360009054906101000a900473ffffffffffffffffffffffffffffffffffffffff1673ffffffffffffffffffffffffffffffffffffffff1663a9059cbb84836040518363ffffffff1660e01b8152600401610edf929190612777565b6020604051808303816000875af1158015610efe573d6000803e3d6000fd5b505050506040513d601f19601f82011682018060405250810190610f22919061270c565b50505050565b610f31826105d3565b610f3a8161123a565b610f44838361137f565b50505050565b60005481565b6000610f5a611850565b905060008160000160089054906101000a900460ff1615905060008260000160009054906101000a900467ffffffffffffffff1690506000808267ffffffffffffffff16148015610fa85750825b9050600060018367ffffffffffffffff16148015610fdd575060003073ffffffffffffffffffffffffffffffffffffffff163b145b905081158015610feb575080155b15611022576040517ff92ee8a900000000000000000000000000000000000000000000000000000000815260040160405180910390fd5b60018560000160006101000a81548167ffffffffffffffff021916908367ffffffffffffffff16021790555083156110725760018560000160086101000a81548160ff0219169083151502179055505b88600260006101000a81548173ffffffffffffffffffffffffffffffffffffffff021916908373ffffffffffffffffffffffffffffffffffffffff16021790555087600360006101000a81548173ffffffffffffffffffffffffffffffffffffffff021916908373ffffffffffffffffffffffffffffffffffffffff16021790555086600460006101000a81548173ffffffffffffffffffffffffffffffffffffffff021916908373ffffffffffffffffffffffffffffffffffffffff1602179055506111426000801b87611276565b50831561119f5760008560000160086101000a81548160ff0219169083151502179055507fc7f505b2f371ae2175ee4913f4499e1f2633a7b5936321eed1cdaeb6115181d26001604051611196919061286d565b60405180910390a15b505050505050505050565b600360009054906101000a900473ffffffffffffffffffffffffffffffffffffffff1681565b60007f01ffc9a7000000000000000000000000000000000000000000000000000000007bffffffffffffffffffffffffffffffffffffffffffffffffffffffff1916827bffffffffffffffffffffffffffffffffffffffffffffffffffffffff1916149050919050565b61124b81611246611377565b611878565b50565b60007f02dd7bc7dec4dceedda775e58dd541e08a116c6c53815c0bd028192f7b626800905090565b60008061128161124e565b905061128d8484610bc4565b61136b57600181600001600086815260200190815260200160002060000160008573ffffffffffffffffffffffffffffffffffffffff1673ffffffffffffffffffffffffffffffffffffffff16815260200190815260200160002060006101000a81548160ff021916908315150217905550611307611377565b73ffffffffffffffffffffffffffffffffffffffff168373ffffffffffffffffffffffffffffffffffffffff16857f2f8788117e7eff1d82e926ec794901d17c78024a50270940304540a733656f0d60405160405180910390a46001915050611371565b60009150505b92915050565b600033905090565b60008061138a61124e565b90506113968484610bc4565b1561147557600081600001600086815260200190815260200160002060000160008573ffffffffffffffffffffffffffffffffffffffff1673ffffffffffffffffffffffffffffffffffffffff16815260200190815260200160002060006101000a81548160ff021916908315150217905550611411611377565b73ffffffffffffffffffffffffffffffffffffffff168373ffffffffffffffffffffffffffffffffffffffff16857ff6391f5c32d9c69d2a47ea670b442974b53935d1edc7fd64eb21e047a839171b60405160405180910390a4600191505061147b565b60009150505b92915050565b7f000000000000000000000000000000000000000000000000000000000000000073ffffffffffffffffffffffffffffffffffffffff163073ffffffffffffffffffffffffffffffffffffffff16148061152e57507f000000000000000000000000000000000000000000000000000000000000000073ffffffffffffffffffffffffffffffffffffffff166115156118c9565b73ffffffffffffffffffffffffffffffffffffffff1614155b15611565576040517fe07c8dba00000000000000000000000000000000000000000000000000000000815260040160405180910390fd5b565b6000801b6115748161123a565b5050565b8173ffffffffffffffffffffffffffffffffffffffff166352d1902d6040518163ffffffff1660e01b8152600401602060405180830381865afa9250505080156115e057506040513d601f19601f820116820180604052508101906115dd919061289d565b60015b61162157816040517f4c9c8ce300000000000000000000000000000000000000000000000000000000815260040161161891906124c7565b60405180910390fd5b7f360894a13ba1a3210667c828492db98dca3e2076cc3735a920a3ca505d382bbc60001b811461168857806040517faa1d49a400000000000000000000000000000000000000000000000000000000815260040161167f9190611dda565b60405180910390fd5b6116928383611920565b505050565b7f000000000000000000000000000000000000000000000000000000000000000073ffffffffffffffffffffffffffffffffffffffff163073ffffffffffffffffffffffffffffffffffffffff161461171c576040517fe07c8dba00000000000000000000000000000000000000000000000000000000815260040160405180910390fd5b565b6000806000801b905060005b835181101561179b57600084828151811061174857611747612739565b5b60200260200101519050828160000151826020015183604001516040516020016117759493929190612933565b60405160208183030381529060405280519060200120925050808060010191505061172a565b5080915050919050565b60606000600867ffffffffffffffff8111156117c4576117c3611eca565b5b6040519080825280602002602001820160405280156117f25781602001602082028036833780820191505090505b50905060005b60088110156118465760208161180e9190612981565b84901b60e01c63ffffffff1682828151811061182d5761182c612739565b5b60200260200101818152505080806001019150506117f8565b5080915050919050565b60007ff0c57e16840df040f15088dc2f81fe391c3923bec73e23a9662efc9c229c6a00905090565b6118828282610bc4565b6118c55780826040517fe2517d3f0000000000000000000000000000000000000000000000000000000081526004016118bc9291906129c3565b60405180910390fd5b5050565b60006118f77f360894a13ba1a3210667c828492db98dca3e2076cc3735a920a3ca505d382bbc60001b611993565b60000160009054906101000a900473ffffffffffffffffffffffffffffffffffffffff16905090565b6119298261199d565b8173ffffffffffffffffffffffffffffffffffffffff167fbc7cd75a20ee27fd9adebab32041f755214dbc6bffa90cc0225b39da2e5c2d3b60405160405180910390a2600081511115611986576119808282611a6a565b5061198f565b61198e611aee565b5b5050565b6000819050919050565b60008173ffffffffffffffffffffffffffffffffffffffff163b036119f957806040517f4c9c8ce30000000000000000000000000000000000000000000000000000000081526004016119f091906124c7565b60405180910390fd5b80611a267f360894a13ba1a3210667c828492db98dca3e2076cc3735a920a3ca505d382bbc60001b611993565b60000160006101000a81548173ffffffffffffffffffffffffffffffffffffffff021916908373ffffffffffffffffffffffffffffffffffffffff16021790555050565b60606000808473ffffffffffffffffffffffffffffffffffffffff1684604051611a949190612a33565b600060405180830381855af49150503d8060008114611acf576040519150601f19603f3d011682016040523d82523d6000602084013e611ad4565b606091505b5091509150611ae4858383611b2b565b9250505092915050565b6000341115611b29576040517fb398979f00000000000000000000000000000000000000000000000000000000815260040160405180910390fd5b565b606082611b4057611b3b82611bba565b611bb2565b60008251148015611b68575060008473ffffffffffffffffffffffffffffffffffffffff163b145b15611baa57836040517f9996b315000000000000000000000000000000000000000000000000000000008152600401611ba191906124c7565b60405180910390fd5b819050611bb3565b5b9392505050565b600081511115611bcd5780518082602001fd5b6040517f1425ea4200000000000000000000000000000000000000000000000000000000815260040160405180910390fd5b600073ffffffffffffffffffffffffffffffffffffffff82169050919050565b6000819050919050565b6000611c44611c3f611c3a84611bff565b611c1f565b611bff565b9050919050565b6000611c5682611c29565b9050919050565b6000611c6882611c4b565b9050919050565b611c7881611c5d565b82525050565b6000602082019050611c936000830184611c6f565b92915050565b6000604051905090565b600080fd5b600080fd5b60007fffffffff0000000000000000000000000000000000000000000000000000000082169050919050565b611ce281611cad565b8114611ced57600080fd5b50565b600081359050611cff81611cd9565b92915050565b600060208284031215611d1b57611d1a611ca3565b5b6000611d2984828501611cf0565b91505092915050565b60008115159050919050565b611d4781611d32565b82525050565b6000602082019050611d626000830184611d3e565b92915050565b6000819050919050565b611d7b81611d68565b8114611d8657600080fd5b50565b600081359050611d9881611d72565b92915050565b600060208284031215611db457611db3611ca3565b5b6000611dc284828501611d89565b91505092915050565b611dd481611d68565b82525050565b6000602082019050611def6000830184611dcb565b92915050565b6000611e0082611c4b565b9050919050565b611e1081611df5565b82525050565b6000602082019050611e2b6000830184611e07565b92915050565b6000611e3c82611bff565b9050919050565b611e4c81611e31565b8114611e5757600080fd5b50565b600081359050611e6981611e43565b92915050565b60008060408385031215611e8657611e85611ca3565b5b6000611e9485828601611d89565b9250506020611ea585828601611e5a565b9150509250929050565b600080fd5b600080fd5b6000601f19601f8301169050919050565b7f4e487b7100000000000000000000000000000000000000000000000000000000600052604160045260246000fd5b611f0282611eb9565b810181811067ffffffffffffffff82111715611f2157611f20611eca565b5b80604052505050565b6000611f34611c99565b9050611f408282611ef9565b919050565b600067ffffffffffffffff821115611f6057611f5f611eca565b5b611f6982611eb9565b9050602081019050919050565b82818337600083830152505050565b6000611f98611f9384611f45565b611f2a565b905082815260208101848484011115611fb457611fb3611eb4565b5b611fbf848285611f76565b509392505050565b600082601f830112611fdc57611fdb611eaf565b5b8135611fec848260208601611f85565b91505092915050565b6000806040838503121561200c5761200b611ca3565b5b600061201a85828601611e5a565b925050602083013567ffffffffffffffff81111561203b5761203a611ca8565b5b61204785828601611fc7565b9150509250929050565b600067ffffffffffffffff82111561206c5761206b611eca565b5b602082029050602081019050919050565b600080fd5b600080fd5b6000819050919050565b61209a81612087565b81146120a557600080fd5b50565b6000813590506120b781612091565b92915050565b6000606082840312156120d3576120d2612082565b5b6120dd6060611f2a565b905060006120ed84828501611e5a565b600083015250602061210184828501611d89565b6020830152506040612115848285016120a8565b60408301525092915050565b600061213461212f84612051565b611f2a565b905080838252602082019050606084028301858111156121575761215661207d565b5b835b81811015612180578061216c88826120bd565b845260208401935050606081019050612159565b5050509392505050565b600082601f83011261219f5761219e611eaf565b5b81356121af848260208601612121565b91505092915050565b6000606082840312156121ce576121cd612082565b5b6121d86060611f2a565b905060006121e884828501611d89565b60008301525060206121fc84828501611d89565b602083015250604061221084828501611d89565b60408301525092915050565b600080fd5b60008083601f84011261223757612236611eaf565b5b8235905067ffffffffffffffff8111156122545761225361221c565b5b6020830191508360018202830111156122705761226f61207d565b5b9250929050565b60008060008060a0858703121561229157612290611ca3565b5b600085013567ffffffffffffffff8111156122af576122ae611ca8565b5b6122bb8782880161218a565b94505060206122cc878288016121b8565b935050608085013567ffffffffffffffff8111156122ed576122ec611ca8565b5b6122f987828801612221565b925092505092959194509250565b600081519050919050565b600082825260208201905092915050565b60005b83811015612341578082015181840152602081019050612326565b60008484015250505050565b600061235882612307565b6123628185612312565b9350612372818560208601612323565b61237b81611eb9565b840191505092915050565b600060208201905081810360008301526123a0818461234d565b905092915050565b600080604083850312156123bf576123be611ca3565b5b60006123cd85828601611d89565b92505060206123de858286016120a8565b9150509250929050565b6000602082840312156123fe576123fd611ca3565b5b600061240c84828501611e5a565b91505092915050565b6000806000806080858703121561242f5761242e611ca3565b5b600061243d87828801611e5a565b945050602061244e87828801611e5a565b935050604061245f87828801611e5a565b925050606061247087828801611e5a565b91505092959194509250565b600061248782611c4b565b9050919050565b6124978161247c565b82525050565b60006020820190506124b2600083018461248e565b92915050565b6124c181611e31565b82525050565b60006020820190506124dc60008301846124b8565b92915050565b60006040820190506124f76000830185611dcb565b6125046020830184611dcb565b9392505050565b60008151905061251a81612091565b92915050565b60006020828403121561253657612535611ca3565b5b60006125448482850161250b565b91505092915050565b6000819050919050565b61256861256382611d68565b61254d565b82525050565b600061257a8286612557565b60208201915061258a8285612557565b60208201915061259a8284612557565b602082019150819050949350505050565b600082825260208201905092915050565b60006125c883856125ab565b93506125d5838584611f76565b6125de83611eb9565b840190509392505050565b600081519050919050565b600082825260208201905092915050565b6000819050602082019050919050565b61261e81612087565b82525050565b60006126308383612615565b60208301905092915050565b6000602082019050919050565b6000612654826125e9565b61265e81856125f4565b935061266983612605565b8060005b8381101561269a5781516126818882612624565b975061268c8361263c565b92505060018101905061266d565b5085935050505092915050565b600060408201905081810360008301526126c28185876125bc565b905081810360208301526126d68184612649565b9050949350505050565b6126e981611d32565b81146126f457600080fd5b50565b600081519050612706816126e0565b92915050565b60006020828403121561272257612721611ca3565b5b6000612730848285016126f7565b91505092915050565b7f4e487b7100000000000000000000000000000000000000000000000000000000600052603260045260246000fd5b61277181612087565b82525050565b600060408201905061278c60008301856124b8565b6127996020830184612768565b9392505050565b60006020820190506127b56000830184612768565b92915050565b7f4e487b7100000000000000000000000000000000000000000000000000000000600052601160045260246000fd5b60006127f582612087565b915061280083612087565b9250828203905081811115612818576128176127bb565b5b92915050565b6000819050919050565b600067ffffffffffffffff82169050919050565b600061285761285261284d8461281e565b611c1f565b612828565b9050919050565b6128678161283c565b82525050565b6000602082019050612882600083018461285e565b92915050565b60008151905061289781611d72565b92915050565b6000602082840312156128b3576128b2611ca3565b5b60006128c184828501612888565b91505092915050565b60008160601b9050919050565b60006128e2826128ca565b9050919050565b60006128f4826128d7565b9050919050565b61290c61290782611e31565b6128e9565b82525050565b6000819050919050565b61292d61292882612087565b612912565b82525050565b600061293f8287612557565b60208201915061294f82866128fb565b60148201915061295f8285612557565b60208201915061296f828461291c565b60208201915081905095945050505050565b600061298c82612087565b915061299783612087565b92508282026129a581612087565b915082820484148315176129bc576129bb6127bb565b5b5092915050565b60006040820190506129d860008301856124b8565b6129e56020830184611dcb565b9392505050565b600081519050919050565b600081905092915050565b6000612a0d826129ec565b612a1781856129f7565b9350612a27818560208601612323565b80840191505092915050565b6000612a3f8284612a02565b91508190509291505056fea264697066735822122079e8d20245d1c4b5a11f304b85fb9a21521fe3244d301bc703e1323ec839ef2c64736f6c63430008180033",
  "linkReferences": {},
  "deployedLinkReferences": {}
}